:100000000C94D1020C94F9020C94F9020C94391955
:100010000C945D190C9481190C94F9020C94F9025A
:100020000C94F9020C94F9020C94F9020C94F90264
:100030000C94B31A0C94A91A0C94F9020C94F902BA
:100040000C94631F0C94F9020C941D220C944F2203
:100050000C94F9020C94F9020C94F9020C94F90234
:100060000C94D31B0C94F902121218121F122612B0
:100070002D1234123B1242124912501257125E12C4
:1000800065126C127312627574746F6E2068656C01
:10009000643F3D0053657467656E6520746F3A0078
:1000A000456666656374203D20006D6173746572FA
:1000B000206D6F64652061637469766174656400A6
:1000C0004E65772067656E65206C6561726E65644C
:1000D000203D2000203A200043757272656E742026
:1000E00053686F7747656E65203D200042617365F8
:1000F0002067656E652073657420746F3A00416CEB
:10010000726561647920686176652067656E653A1D
:1001100000577269746520454550524F4D20435237
:100120004331363A00435243204F4B3A0042414458
:10013000204352433A00203A2000454550524F4D4B
:1001400047656E65733A00454550524F4D4E756D8B
:1001500047656E6573203D200050554668617368A1
:10016000203D20002E004C6F6164696E6700496E6F
:1001700076616C696420636F6C6F727365742023A1
:100180000046696C6C206D6F64652E2020456E748E
:100190006572206120636F6C6F7273657420746F79
:1001A00020636F707920746F20616C6C2067656EBE
:1001B00065733A0020746F200053657474696E672C
:1001C0002067656E65202300456E7465722061208E
:1001D000636F6C6F72736574202300456E74657273
:1001E00020616E2065666665637420230050726F1F
:1001F0006772616D206D6F64652E2020456E746599
:100200007220612067656E652023006D203A2066AC
:10021000616C6C6F757420340066203A2066696CDE
:100220006C2072616D2D67656E65732077697468E7
:1002300020616C6C20656666656374730077203A94
:1002400020776970652067656E6573202872657612
:1002500065727369626C65290072203A2064756D5D
:100260007020656570726F6D0070203A2070726F3B
:100270006772616D0053657269616C20636F6D6DAB
:10028000616E642068656C703A00756E6B6E6F7796
:100290006E20636F6D6D616E6400726561642065D0
:1002A00072726F723A204E756D47656E65733D00D0
:1002B000434D443A20000101010101010101010106
:1002C0000101010000000000010101010101020122
:1002D000010101010101010102010101010101010D
:1002E00001010201010101010101010102010100FD
:1002F00000010101010102010000000000010101F3
:1003000002000000000000010101020000000000E6
:1003100001010101020100000000010101010201CF
:1003200001000001010101000100010001010101C2
:1003300001000000000001010101010000000100B6
:1003400001010101010001000000010101000000A4
:10035000010001000000050207040906010803006E
:10036000000102FF070605FF000908FF030405FF5F
:10037000030804090500FFFF020701060005FFFF4F
:10038000000000000000000000000000000000006D
:10039000000000000000000000000000000000005D
:1003A00000FF0000FF000000FF00FF0000FFFF0053
:1003B0007F007F00007F7F00007F00007F00000043
:1003C00000FF0000FF00FF000000FF00FFFF000033
:1003D00000007F007F7F0000007F00007F007F0023
:1003E00000FFFF000000FF00FF000000FFFF000013
:1003F0007F0000007F7F0000007F7F0000007F0003
:1004000000FF000000FF650000FF7F0000FFFF000D
:10041000FF008F00FF00FF00FF000800FF0000004A
:10042000FF008F00FF00FF00FF000800FF0000003A
:1004300000FF000000FF650000FF7F0000FFFF00DD
:1004400000FF000000FFFF00FF00FF00FF7F000033
:1004500000FF7F000000FF00FF000000FFFF000022
:1004600000FF7F000000FF00FF000000FFFF000012
:1004700000FF000000FFFF00FF00FF00FF7F000003
:10048000007FFF00FF00FF00FF7F0000FFFF000074
:100490007F3F00007F7F0000003F7F007F007F00E4
:1004A000FF770000FF7F00007C9C0000FFFF000042
:1004B0007F7F0000202000007F3F00002020000000
:1004C00000FF7F0000EE550000CC330000AA2200A0
:1004D000FF000000B0000000900000006600660011
:1004E0007733FF0033991100440022004400880054
:1004F0002200110022004400331177001144000053
:100500007733FF0033991100440022004400880033
:10051000110008001133000011081100082200002A
:100520001D763800751C35003891E600A07BC200AE
:100530002200110022004400331177001144000012
:100540000000000800020100000304070000000092
:10055000000000000102040810204080010204088D
:1005600010200102040810200404040404040404FC
:10057000020202020202030303030303000000005D
:1005800023002600290000000000250028002B0081
:1005900000000000240027002A007A12A61B7F22F8
:1005A000931211241FBECFEFD8E0DEBFCDBF11E004
:1005B000A0E0B1E0ECEBF1E502C005900D92AC3D9E
:1005C000B107D9F725E0ACEDB1E001C01D92A03F25
:1005D000B207E1F715E0C0EAD5E004C02297FE01BA
:1005E0000E94DB26CA39D107C9F70E94A7240C94C0
:1005F000D1280C9400000C94BB280C94C328909133
:10060000D603937028E0829FF0011124E90FF11DB9
:10061000EE0FFF1FEE0FFF1FE058FC4F6591759125
:10062000859194910895E091D703E370F0E03496BA
:1006300098E0899FE00DF11D1124EE0FFF1FEE0FD2
:10064000FF1FE058FC4F6591759185919491089535
:10065000FF920F931F93CF93DF93FC01862F6AE0E5
:100660000E946426C92FD0E0DA01C90161E1B69584
:10067000A795979587956A95D1F7682F6F77F62E8E
:10068000EC0FFD1F648B62ABDF01A655BF4F6C936F
:10069000DA01C90179E0B695A795979587957A957E
:1006A000D1F7682F6F77628760A7DF01A056BF4F31
:1006B0006C93DA01C901B695A79597958795482F50
:1006C0004F77468F44AFEC54FF4F40838F2D0E94ED
:1006D000191F9B01AC01BE01C8010E94B41EDF912D
:1006E000CF911F910F91FF900895CF92DF92EF92DB
:1006F000FF920F931F93CF93DF937C01862F6AE0C5
:100700000E946426C92ED12CDA01C90161E1B69597
:10071000A795979587956A95D1F7682F6F77E70129
:10072000CC0DDD1D6AABDA01C90179E0B695A7955C
:10073000979587957A95D1F78F7788A7569547959E
:10074000379527952F772CAFFE01E056FF4F30816C
:100750003A873A9640814C8B3A9690819E8FE45628
:10076000F109641B60833A97831B80837496291B6D
:1007700020830E94AD1FF6017E96EE0FFF1FEE0F45
:10078000FF1FEE0DFF1D6083718382839383F6014B
:10079000F296EE0FFF1FEE0DFF1D1183008380E226
:1007A0008883DF91CF911F910F91FF90EF90DF90A1
:1007B000CF900895CF92DF92EF92FF92CF938091E6
:1007C0001401882349F182E00E94AF20C1E0892B07
:1007D00009F4C0E0809116018C17E1F08091B2031A
:1007E0009091B303A091B403B091B5038093AE038D
:1007F0009093AF03A093B003B093B1031092140190
:100800000E94B91F6093B2037093B3038093B40343
:100810009093B503C09316018091140181113BC0E0
:100820000E94B91F6B017C018091B2039091B303C8
:10083000A091B403B091B503A7019601281B390B11
:100840004A0B5B0BDA01C90180379741A105B1055D
:1008500010F182E00E94AF2021E0892B09F420E012
:10086000209315012223A1F08091AE039091AF0354
:10087000A091B003B091B103C81AD90AEA0AFB0AE1
:10088000C092AA03D092AB03E092AC03F092AD0306
:1008900081E080931401CF91FF90EF90DF90CF9093
:1008A00008952F923F924F925F926F927F928F9214
:1008B0009F92AF92BF92CF92DF92EF92FF920F93EF
:1008C0001F93CF93DF93CDB7DEB72C970FB6F89475
:1008D000DEBF0FBECDBF5C018B011A010E94AD1FB0
:1008E000980117FF02C020E030E079010027F7FCF3
:1008F0000095102FE60EF71E081F191FEB82FC82D1
:100900000D831E838501C12CD12C80EEF82ED801D9
:100910008C91803129F0803299F4D801FC9210C07A
:10092000F8011082F501EC0DFD1D44AD60A582A912
:100930000E94191F9B01AC01B601C1010E94B41EA7
:10094000BFEFCB1ADB0A0F5F1F4FEAE0CE16D104D0
:10095000F1F6C1010E94981D0E94AD1FEB80FC8042
:100960000D811E816E157F058007910708F0C8C0B4
:10097000C5010E94DA03BA86A986BC86AB86B88612
:10098000AF82812C912C0E94AD1FEF81F885E85831
:10099000FF4FC080D180E280F380AB85BC852C9175
:1009A000203E09F092C02B013C014C185D086E08F6
:1009B0007F08E985FA85EC59FF4FC080D180E12C92
:1009C000F12C8501080D191DA056BF4FBA83A983CC
:1009D0004C145D046E047F040CF048C0EB85FC856C
:1009E000EA5BFF4FA081BB27A7FDB095A301920151
:1009F0000E94EA26A70196010E94BA26F801828584
:100A0000820FA981BA818C93EB85FC85E05BFF4F57
:100A1000A081BB27A7FDB095A30192010E94EA2601
:100A2000A70196010E94BA26F8018489820FEB85FE
:100A3000FC85E655FF4F8083EB85FC85E65AFF4F2A
:100A4000A081BB27A7FDB095A30192010E94EA26D1
:100A5000A70196010E94BA26D8015E968C91820F5A
:100A6000EB85FC85EC54FF4F808318C0F80180A50E
:100A70008287A981BA818C9382A9848BEB85FC85BE
:100A8000E655FF4F8083F80184AD868FEB85FC85AA
:100A9000EC54FF4F8083AB85BC851C92EB85FC85B5
:100AA000EC54FF4F4081EB85FC85E056FF4F6081A1
:100AB000EB85FC85E655FF4F80810E94191F9B0145
:100AC000AC01B401C1010E94B41EBFEF8B1A9B0A96
:100AD0000F8118850C5F1F4F18870F830B851C85AE
:100AE0000F5F1F4F1C870B8709851A850E5F1F4FED
:100AF0001A8709871AE08116910409F044CF29CF9B
:100B00002C960FB6F894DEBF0FBECDBFDF91CF910C
:100B10001F910F91FF90EF90DF90CF90BF90AF901B
:100B20009F908F907F906F905F904F903F902F900D
:100B3000089565E772E08FE495E00E94302369E64E
:100B400072E08FE495E00E94302369E572E08FE463
:100B500095E00E9430236DE372E08FE495E00E94FF
:100B6000302369E172E08FE495E00E9430236BE06E
:100B700072E08FE495E00C943023E1E0F0E860E06F
:100B800080E0DF0111979C91892790816927329637
:100B9000E13092E8F907A9F770E0762F6627680F31
:100BA000711D80E090E00895FC0180E05CE86150F8
:100BB00088F0419198E0742F7827282F30E0359500
:100BC0002795822F70FF02C0852F8227469591506E
:100BD00091F7EDCF0895CF92DF92EF92FF920F93AE
:100BE0001F93CF93DF938B016C01E12CF12CC0E0BC
:100BF000D0E017FD28C0F601EE0DFF1D8081918128
:100C0000C827D92788E09E01369527959C2FE901B2
:100C100090FF04C091E0C92790EAD927815099F745
:100C200068E171E08FE495E00E94232340E150E009
:100C3000BE018FE495E00E9438240150110982E042
:100C4000E80EF11CD6CFCE01DF91CF911F910F910D
:100C5000FF90EF90DF90CF9008958F3FE1F090915B
:100C6000DC018A3011F08D3021F41092DC01892FE3
:100C70000895292F30E041505109241735075CF4BD
:100C80009F5F9093DC01FB01E20FF31F8083FB0168
:100C9000E90FF11D10828FEF0895CF92DF92EF924E
:100CA000FF920F931F93CF93DF93D82EEA01C0904A
:100CB000AB028C2D8770E82EF12C8701000F111FDD
:100CC00000591C4FF8018491EE0CFF1C8F3F09F472
:100CD0004EC08D2D0E94FF029B01AC01F801649172
:100CE0008E0187ED92E00E9475038D2D0E94FF0218
:100CF0009B01AC01F701EF58FC4F64918E0187ED29
:100D000092E00E9475038C2D90E0019768E070E0FE
:100D10000E9484267C01FF24EE0CFF1C87010059F1
:100D20001C4FF80180818F3FD1F08D2D0E9413035D
:100D30009B01AC01F80164918E0187ED92E00E9465
:100D400075038D2D0E9413039B01AC01F701EF5831
:100D5000FC4F64918E0187ED92E00E94750345E996
:100D600053E0BE0187ED92E00E94510425C0CC0FF4
:100D7000DD1FCC0FDD1FF12C80E00E9413039B01CF
:100D8000AC018E016F2D87ED92E00E947503F39404
:100D9000FAE0FF12F1CF45E953E0BE0187ED92E0A2
:100DA0000E9451048091D6038F5F8093D603809177
:100DB000D7038F5F8093D7038091AB028F5F8093BF
:100DC000AB02DF91CF911F910F91FF90EF90DF90D9
:100DD000CF900895DF92EF92FF920F931F93CF93DE
:100DE000DF93E82EEA01D090AB028D2D8F70F82EA4
:100DF000082F10E0005A1C4FF80184918F3FA1F199
:100E00008E2D0E94FF029B01AC01F80164918E01BE
:100E100087ED92E00E9475038D2D90E0019760E1CF
:100E200070E00E9484268C011127005A1C4FF801A3
:100E300084918F3F61F08E2D0E9413039B01AC01C2
:100E4000F80164918E0187ED92E00E947503F11024
:100E50001FC08091D6038F5F8093D6038091D70304
:100E60008F5F8093D70314C0CC0FDD1FCC0FDD1F25
:100E7000F12C80E00E9413039B01AC018E016F2DC9
:100E800087ED92E00E947503F394FAE0FF12F1CF30
:100E900045E953E0BE0187ED92E00E945104809144
:100EA000AB028F5F8093AB02DF91CF911F910F91C7
:100EB000FF90EF90DF9008959F92AF92BF92CF92F4
:100EC000DF92EF92FF920F931F93CF93DF93F82E51
:100ED000EA019090AB020E94FF029B01AC01892DB8
:100EE0006BE00E946426A92EB12CF501EA5AFC4F52
:100EF00064918E0187ED92E00E9475038F2D0E9410
:100F000013036B017C01892D90E001976BE070E089
:100F10000E94842699278A5A9C4FFC0164918E0175
:100F200015950795A701960187ED92E00E9475033C
:100F300045E953E0BE0187ED92E00E945104F501BE
:100F4000EA5AFC4F808181110AC08091D6038F5FDD
:100F50008093D6038091D7038F5F8093D7038091CE
:100F6000AB028F5F8093AB02DF91CF911F910F9106
:100F7000FF90EF90DF90CF90BF90AF909F9008953B
:100F80009F92AF92BF92CF92DF92EF92FF920F9318
:100F90001F93CF93DF935A019090AB02EA01CC0FDD
:100FA000DD1F0E94FF029B01AC01892D6BE00E94B6
:100FB0006426E92FF0E0EA5AFC4F64918E0187ED38
:100FC00092E00E94750380E00E9413036B017C0194
:100FD000892D90E001976BE070E00E9484269927AC
:100FE0008A5A9C4FFC0164918501A701960187ED07
:100FF00092E00E94750345E953E0BE0187ED92E05F
:101000000E9451048091AB028F5F8093AB0280916C
:10101000D6038F5F8093D6038091D7038F5F809331
:10102000D703DF91CF911F910F91FF90EF90DF9049
:10103000CF90BF90AF909F900895BF92CF92DF92D4
:10104000EF92FF920F931F93CF93DF93D82E7A01E5
:10105000C090AB028C2D6CE00E946426C92FD0E0BA
:10106000CC0FDD1FC058DE4FB8808FEFB81609F4E3
:1010700042C08D2D0E94FF029B01AC0187016B2DA8
:1010800087ED92E00E9475038D2D0E94FF029B0167
:10109000AC01698187ED92E00E9475038C2D90E090
:1010A00001976CE070E00E948426EC01DD27CC0FF4
:1010B000DD1FC058DE4FC8808FEFC816A1F08D2D00
:1010C0000E9413039B01AC016C2D87ED92E00E94FE
:1010D00075038D2D0E9413039B01AC01698187ED7F
:1010E00092E00E94750345E953E0B70187ED92E075
:1010F0000E94510424C0EE0CFF1CEE0CFF1CC0E04B
:1011000080E00E9413039B01AC0187016C2F87EDE7
:1011100092E00E947503CF5FCA3091F745E953E032
:10112000B70187ED92E00E9451048091D6038F5F52
:101130008093D6038091D7038F5F8093D7038091EC
:10114000AB028F5F8093AB02DF91CF911F910F9124
:10115000FF90EF90DF90CF90BF9008957F928F9295
:101160009F92AF92BF92CF92DF92EF92FF920F9336
:101170001F93CF93DF93882E5A017090AB02872D77
:101180008770982E882D0E94FF029B01AC01C92D0B
:10119000D0E0CC0FDD1FC059DE4F8501688187ED9F
:1011A00092E00E947503882D0E94FF029B01AC0112
:1011B000698187ED92E00E947503882D0E941303D8
:1011C0006B017C01872D90E0019768E070E00E9440
:1011D0008426EC01DD27CC0FDD1FC059DE4FA701AF
:1011E0009601688187ED92E00E947503882D0E9428
:1011F00013039B01AC01698187ED92E00E947503A6
:1012000045E953E0B50187ED92E00E945104992031
:1012100019F085E098120DC08091D6038F5F8093FE
:10122000D60385E0981205C08091D7038F5F809325
:10123000D7038091AB028F5F8093AB02DF91CF9198
:101240001F910F91FF90EF90DF90CF90BF90AF90E4
:101250009F908F907F900895AF92BF92CF92DF9230
:10126000EF92FF920F931F93CF93DF93F82EEA0133
:10127000A090AB028A2D6AE00E946426B92E8F2DC1
:101280000E94FF029B01AC01EB2DF0E0EA59FE4FFA
:101290008E01608187ED92E00E9475038F2D0E9480
:1012A00013036B017C01000F111F8A2D90E0019741
:1012B0006AE070E00E94842699278A599E4FA70110
:1012C0009601FC01608187ED92E00E94750345E97B
:1012D00053E0BE0187ED92E00E945104B1100AC0B4
:1012E0008091D6038F5F8093D6038091D7038F5F61
:1012F0008093D7038091AB028F5F8093AB02DF9125
:10130000CF911F910F91FF90EF90DF90CF90BF9002
:10131000AF900895AF92BF92CF92DF92EF92FF927B
:101320000F931F93CF93DF93F82EEA01A090AB02A7
:101330008A2D66E10E946426B92E8F2D0E94FF023D
:101340009B01AC01EB2DF0E0E05BFE4F8E01608174
:1013500087ED92E00E9475038F2D0E9413036B01AD
:101360007C01000F111F8A2D90E0019766E170E06B
:101370000E9484269927805B9E4FA7019601FC015D
:10138000608187ED92E00E94750345E953E0BE015C
:1013900087ED92E00E945104B1100AC08091D603FB
:1013A0008F5F8093D6038091D7038F5F8093D7039D
:1013B0008091AB028F5F8093AB02DF91CF911F9141
:1013C0000F91FF90EF90DF90CF90BF90AF90089576
:1013D0007F928F929F92AF92BF92CF92DF92EF92C5
:1013E000FF920F931F93CF93DF93882E7A0160E0D3
:1013F00071E080E090E00E946624613F98F0633FD6
:1014000048F46FEF7FEFCB010E9466246F5F60931B
:10141000A90229C08091A902813041F181E0809325
:10142000A90222C08091A902882329F01092A90262
:1014300081E080931301643050F462E070E080E05A
:1014400090E00E946624675F6093AA020CC0603837
:1014500069F48091D6038F5F8093D6038091D70380
:101460008F5F8093D70381E0809313016EE185E95C
:1014700093E00E94221F809113018823D9F1670114
:1014800034E0D594C7943A95E1F7C0E0D0E04AE063
:10149000A42EB12C5AE0752E8091AA029E01280F2D
:1014A000311DC901B5010E948426982E8091A902A0
:1014B000FE01789EE00DF11D1124EC5DFC4FE491DE
:1014C000EE2339F0882D0E94FF029B01AC018601BA
:1014D00006C080E00E9413039B01AC018701692DC7
:1014E00087ED92E00E9475032196CA30D105A1F6DE
:1014F0001092130145E953E0B70187ED92E00E9495
:1015000051048091AB028F5F8093AB02DF91CF914A
:101510001F910F91FF90EF90DF90CF90BF90AF9011
:101520009F908F907F9008957F928F929F92AF921D
:10153000BF92CF92DF92EF92FF920F931F93CF93C0
:10154000DF93A82E7A0160E071E080E090E00E94D5
:101550006624611103C01092A8020CC0603851F4D7
:101560009091D6039F5F9093D6039091D7039F5F8E
:101570009093D703C0E0D0E07AE0C72ED12CE9E009
:101580008E2EFAE07F2E28E0A29E50011124809139
:10159000A8029E01280F311DC901B6010E948426B0
:1015A000982E8091AB02682D0E946426FE01799EE0
:1015B000E00DF11D1124E653FD4FE491EE23A1F05F
:1015C0008091D603F0E0E80FF11DE370FF27EA0DEC
:1015D000FB1DEE0FFF1FEE0FFF1FE058FC4F259184
:1015E00035914591549105C080E00E9413039B0101
:1015F000AC0105E913E0692D87ED92E00E94280314
:101600002196CA30D10509F0C2CF85E993E00E9446
:10161000981D45E953E0B70187ED92E00E9451041F
:101620008091AB028F5F8093AB02DF91CF911F91CE
:101630000F91FF90EF90DF90CF90BF90AF909F9071
:101640008F907F900895BF92CF92DF92EF92FF929A
:101650000F931F93CF93DF93C82E7A0169E170E057
:1016600080E090E00E946624262F862F65E00E948D
:101670006426992339F081E08093A70283E0809368
:10168000A60206C08091A602811102C01092A70294
:101690009091A6029923C1F0E92FF0E0E15FFE4F9F
:1016A00080818093A70291509093A60291110CC063
:1016B00021110AC09091D6039F5F9093D603909119
:1016C000D7039F5F9093D703C0E0D0E0BAE0BB2E72
:1016D00088E0C89E600111248091A702FE01B89E97
:1016E000E00DF11D1124EA54FD4FE491EE23A9F021
:1016F0009091D603E80FF0E0E90FF11DE370FF27AA
:10170000EC0DFD1DEE0FFF1FEE0FFF1FE058FC4F0D
:10171000259135914591549105C080E00E941303B5
:101720009B01AC0105E913E06C2F87ED92E00E946C
:1017300028032196CA30D10579F685E993E00E9405
:10174000981D45E953E0B70187ED92E00E945104EE
:101750008091AB028F5F8093AB02DF91CF911F919D
:101760000F91FF90EF90DF90CF90BF900895AF92D0
:10177000BF92CF92DF92EF92FF920F931F93CF937E
:10178000DF93F82EEA01A090AB028A2D6AE00E9456
:101790006426B92E8F2D0E94FF029B01AC018E01A1
:1017A0006B2D87ED92E00E9475038F2D0E9413032D
:1017B0006B017C01000F111F000F111F8A2D90E09B
:1017C00001976AE070E00E948426A7019601682FC5
:1017D00087ED92E00E94750345E953E0BE0187ED75
:1017E00092E00E945104B1100AC08091D6038F5F2D
:1017F0008093D6038091D7038F5F8093D703609146
:10180000170185E993E00E94221F8091AB028F5F50
:101810008093AB02DF91CF911F910F91FF90EF90DA
:10182000DF90CF90BF90AF90089566E671E08FE4AF
:1018300095E00E9430236EE070E080E090E00E942E
:101840006624C62F48EC50E066ED72E08C2F0E94B3
:10185000B70B64E671E08FE495E00E940023F2CFBD
:101860002F923F924F925F926F927F928F929F92B0
:10187000AF92BF92CF92DF92EF92FF920F931F939E
:10188000CF93DF93CDB7DEB760970FB6F894DEBF86
:101890000FBECDBF89875C834B832A8790912D0231
:1018A00081E0892726E0929F2001112466E0869F2F
:1018B000A00111245A834983612C712C0FEF1FEF73
:1018C000425D5D4F5C874B87A82FB0E0BE87AD8738
:1018D00081E0800F6AE00E946426292FC8016AE037
:1018E00070E00E9484263CE0389F6001399FD00C54
:1018F0001124C40CD51CA601425D5D4F6A01C801CC
:1019000002966AE070E00E948426389F7001399F39
:10191000F00C1124E40CF51CB701625D7D4F7B01D6
:1019200012017CE0279F200C311C1124C101825D33
:101930009D4F1C01AB85BC85A60DB71DB887AF8335
:10194000188A1F86EF85F889EC0DFD1D8081918135
:10195000BC0180E090E00E944B252AE939E949E981
:101960005EE30E9401264B015C01EF85F889EE0DD4
:10197000FF1D80819181BC0180E090E00E944B2599
:101980002AE939E949E95EE30E9401269B01AC019D
:10199000C501B4010E94B7244B015C01EF85F889B1
:1019A000E20DF31D80819181BC0180E090E00E94F6
:1019B0004B259B01AC01C501B4010E94B7240E94D4
:1019C0001F2580E090E00E944B252DEC3CEC4CE084
:1019D0005FE30E940126AF80B884EF85F889AE0EE0
:1019E000BF1E0E941F25D5016D937C93EF85F8895A
:1019F0003296F88BEF87369709F0A4CF0F5F1F4F11
:101A0000FCE06F0E711C0930110509F061CF65E033
:101A100070E080E090E00E946624672B682B692BC1
:101A200059F56AE070E080E090E00E946624162F8D
:101A300089850E94FF0226E04D855E85249FF00186
:101A4000259FF00D11245CE0159FE00DF11D112480
:101A5000E25DFD4F072F182F292F33270027118311
:101A600000839B0122273383228314826583809124
:101A7000D6038F5F8093D60369817A81625D7D4F43
:101A80007B01A12CB12CD12CF701EA0DFB1D858126
:101A900071817E831D82AD81BE819D0140E050E059
:101AA000280F311D411D511D838190E0A0E0B0E061
:101AB000DC0199278827280F391F4A1F5B1F0B81DC
:101AC0001C816D2D87ED92E00E947503D394BCE0DC
:101AD000AB0EB11CEAE0DE12D7CF6A8585E993E050
:101AE0000E94221F45E953E06B817C8187ED92E0E3
:101AF0000E94510480912D0291E0892780932D024C
:101B000060960FB6F894DEBF0FBECDBFDF91CF91C8
:101B10001F910F91FF90EF90DF90CF90BF90AF900B
:101B20009F908F907F906F905F904F903F902F90FD
:101B300008953F924F925F926F927F928F929F9201
:101B4000AF92BF92CF92DF92EF92FF920F931F93CB
:101B5000CF93DF932B013C01EA0101E8802E03E0E3
:101B6000902E87E7A82E83E0B82E9BE8C92E93E03D
:101B7000D92E25E0E22E22E0F22E312CF401319113
:101B80004F01F50181915F01F60121916F0190E014
:101B9000A0E0B0E0BA2FA92F982F8827A32B822B83
:101BA000F70181939193A193B1937F0105E913E02C
:101BB000A3019201632D87ED92E00E9428033394E4
:101BC000FAE03F12DBCFC8010E94981DB5E0EB2E72
:101BD000B2E0FB2ED12CF70121913191419151912D
:101BE0007F018E016D2D87ED92E00E947503D394E5
:101BF000FAE0DF12F0CF45E953E0BE0187ED92E055
:101C0000DF91CF911F910F91FF90EF90DF90CF90D8
:101C1000BF90AF909F908F907F906F905F904F900C
:101C20003F900C9451044F925F926F927F928F92EB
:101C30009F92AF92BF92CF92DF92EF92FF920F935B
:101C40001F93CF93DF93B82E7A01C090AB028C2DF7
:101C50006AE00E946426A92ED12C8B2D0E94FF02DF
:101C60009B01AC0187016A2D87ED92E00E9475030C
:101C70004701880C991C880C991C8B2D0E9413031A
:101C80002B013C01C6010197CAE0D0E0BE010E94D1
:101C900084268401A3019201682F87ED92E00E94BF
:101CA00075038B2D0E94FF022B013C01C60180951C
:101CB0009095BE010E9484268701A3019201682F9E
:101CC00087ED92E00E9475038B2D0E9413032B0178
:101CD0003C01882799278C199D09BE010E94842602
:101CE0008401A3019201682F87ED92E00E947503A1
:101CF00045E953E0B70187ED92E00E945104A1103D
:101D000049C08091D6038F5F8093D6038091D7031B
:101D10008F5F8093D7036AE070E080E090E00E94DC
:101D20006624672B682B692BA9F124EF31E040E092
:101D300050E06AEF70E080E090E00E948A246B013E
:101D40007C018B2D0E94FF02A6010E94990D8091BB
:101D5000D6038F5F8093D60320ED37E040E050E05C
:101D600068EE73E080E090E00E948A246B017C01C1
:101D70008B2D0E94FF02A6010E94990D8091D6032F
:101D80008F5F8093D6038B2D0E94FF024CED55E0B0
:101D90000E94990D6091170185E993E00E94221F2E
:101DA0008091AB028F5F8093AB02DF91CF911F9147
:101DB0000F91FF90EF90DF90CF90BF90AF909F90EA
:101DC0008F907F906F905F904F9008950F931F9327
:101DD0008C0180910D0191E0892780930D019091F4
:101DE00004029150923078F4882329F02FEF3FEFCE
:101DF0004FEF50E003C020E030E0A90164E087ED40
:101E000092E00E9475031F910F910895FF920F9326
:101E10001F93CF93DF93F82EEB018B0120E030E08E
:101E2000A90160910F0187ED92E00E947503209156
:101E30000F018F2D992787FD9095820F911D27FD0A
:101E40009A956AE070E00E94842687FD89E080937D
:101E50000F018E0120E03FEF4FEF50E060910F0146
:101E600087ED92E00E947503DF91CF911F910F9152
:101E7000FF900895BF92CF92DF92EF92FF920F935F
:101E80001F93CF93DF93B82E6A017B01E90189018B
:101E900020E030E0A90160910E0187ED92E00E9400
:101EA000750320910E018B2D992787FD9095820F48
:101EB000911D27FD9A956AE070E00E94842687FDB7
:101EC00089E080930E018E01A701960160910E01B9
:101ED00087ED92E00E947503DF91CF911F910F91E2
:101EE000FF90EF90DF90CF90BF900895DF92EF9238
:101EF000FF920F931F93CF93DF93EA01622F85E93F
:101F000093E00E94221F80910402823009F44EC0A7
:101F100028F4882351F08130B1F188C0833009F46E
:101F200058C0843009F477C081C085E080930F01E8
:101F30007E01EE0CFF1CEE0CFF1CD12C87012FEF55
:101F40003FEF4FEF50E06D2D87ED92E00E9475035B
:101F5000D394D3948AE0D812F1CF20E03FEF4FEF33
:101F600050E060910F0187ED92E00E947503BE0181
:101F7000660F771F6C0F7D1F45E953E087ED92E0F8
:101F80000E9451040DC060E070E081E00E94060FE5
:101F900080910F01883009F049C085E080930E01DF
:101FA000809104028F5F8093040240C060E070E083
:101FB00081E00E94060F20E030E040E05FEF60E04B
:101FC00070E081E00E943A0F80910F01843071F53A
:101FD000E7CF60E070E08FEF0E94060F20E030E076
:101FE0004FEF50E060E070E08FEF0E943A0F809179
:101FF0000E018430D9F4809104028F5F8093040233
:1020000000E010E020E030E0A90164E087ED92E01C
:102010000E9475030BC060E070E08FEF0E94060F16
:1020200080910F01853011F41092040280E090E05D
:102030000E94E60ED595C79545E953E0BE0187EDB0
:1020400092E00E94510480E090E00E94E60E45E993
:1020500053E0BE0187ED92E0DF91CF911F910F9188
:10206000FF90EF90DF900C9451040F931F93CF9348
:10207000DF9380E090E00E94FB02182F67E471E09C
:102080008FE495E00E9400234AE050E0612F8FE446
:1020900095E00E9421246AE371E08FE495E00E94BC
:1020A0003023143138F181E090E00E94FB02C82F08
:1020B00082E090E00E94FB02D0E0DC2FCC27C82B0E
:1020C000612F70E0615071098EEA92E00E94EB0589
:1020D000C817D90759F16DE271E08FE495E00E94CD
:1020E000002340E150E0BE018FE495E00E943824D7
:1020F00080E02AC0CEEAD2E000E00117A1F240E180
:1021000050E0602F8FE495E00E941A2466E371E0AE
:102110008FE495E00E9400236991799140E150E0BD
:102120008FE495E00E9438240F5FE7CF65E271E00D
:102130008FE495E00E94002340E150E0BE018FE46F
:1021400095E00E94382481E0DF91CF911F910F919B
:102150000895BF92CF92DF92EF92FF920F931F9359
:10216000CF93DF9380E090E00E94FB02C82FD0E085
:10217000C431D105FCF4FEEAEF2EF2E0FF2E00E0C0
:1021800010E00C171D07C0F46801CC0CDD1CC60163
:102190000B960E94FB02B82EC6010A960E94FB0213
:1021A0002B2D30E0382BF701219331937F010F5F06
:1021B0001F4FE7CFC0E0D0E0CE01DF91CF911F915C
:1021C0000F91FF90EF90DF90CF90BF900895CF9246
:1021D000DF92EF92FF92CF93DF930E94BD056B01D8
:1021E0007C0185E993E00E94141D6EE185E993E08E
:1021F0000E94221FC0E0D0E020E030E0A901BE0133
:1022000085E993E00E94B41E2196CA30D105A1F75A
:1022100085E993E00E94981D26E040E052EC61E0E1
:1022200070E08FE495E00E94BB214AE050E060E05E
:1022300070E08FE495E00E9460246BEC71E08FE425
:1022400095E00E94232369E571E08FE495E00E9408
:102250000023A7016627772720E130E08FE495E08F
:102260000E940D24B701A6016627772720E130E000
:102270008FE495E00E944E244CE251E060E070E073
:1022800086EB93E00E94281A86EB93E00E948D185B
:1022900060E089E00E94792062E088E00E944020AE
:1022A00062E082E00E9440200E94A9108093AD026B
:1022B0001092AA031092AB031092AC031092AD03DC
:1022C00067E271E08FE495E0DF91CF91FF90EF90AE
:1022D000DF90CF900C9442236F927F928F929F92C7
:1022E000AF92BF92CF92DF92EF92FF920F931F9324
:1022F000CF93DF933C01C62E80E090E00E94FB026A
:102300008C1529F06C2D80E090E00E94FD02C62D16
:10231000D72D00E010E0D12C0C151D0530F558012B
:10232000AA0CBB1C45018AE0880E911CC4010E94C6
:10233000FB02E980F12C90E08E159F0521F06E2DB7
:10234000C4010E94FD028BE0A80EB11CC5010E94D1
:10235000FB026991799190E08617970719F0C50102
:102360000E94FD020F5F1F4FD7CFB6016150710968
:10237000C3010E94EB05EC016D2F81E090E00E940B
:10238000FD026C2F82E090E00E94FD0261E171E0AD
:102390008FE495E00E94002340E150E0BE018FE40D
:1023A00095E0DF91CF911F910F91FF90EF90DF901B
:1023B000CF90BF90AF909F908F907F906F900C9434
:1023C000382420E030E050E0261758F4F22FEE27B2
:1023D000E42BF52BDC01ED93FD93CD012F5F3F4FF7
:1023E000F3CF08958AE090E00E94FB02682F609589
:1023F0008AE090E00E94FD020E94A91048EE53E09E
:1024000060E070E08FEF90E00C94990D482F862FDC
:1024100050E04F30510508F06CC0FA01EC5CFF4F02
:102420000C94D92648EC50E066ED72E00C94B70BA2
:102430002EE144E650E066ED72E00C945C072EE17C
:102440004AE050E066ED72E00C94C0072EE148ECE3
:1024500050E066ED72E00C941D082EE148EC50E06F
:1024600066ED72E00C94AE082EE14EE551E066EDAB
:1024700072E00C942C092EE144E650E066ED72E027
:102480000C948A092EE148EC50E066ED72E00C9461
:102490004D062EE146E950E066ED72E00C94EA0646
:1024A0002EE14CE251E066ED72E00C94E80926E979
:1024B00044E650E066ED72E00C94300C2EE148ECFE
:1024C00050E066ED72E00C94230B2EE148E250E000
:1024D00066ED72E00C94940A2EE144EF51E066ED53
:1024E00072E00C94760F46E450E066ED72E00C94D6
:1024F000130E0895EF92FF920F93E12CF12C01E05F
:1025000020E049E068E086EB93E00E94EC1922E5C8
:1025100030E047E06AE070E085E993E00F91FF90DA
:10252000EF900C948C1E85E993E00E94001D86EBD1
:1025300093E00C94A21AFF920F931F93CF93DF9313
:102540006DEE71E08FE495E00E9430238FE495E01A
:102550000E94F12046E050E063EE71E00E942D06FB
:1025600087FDF4CF83EE91E00E948528F82E83E169
:102570008F1508F46AC06BED71E08FE495E00E945E
:1025800030238FE495E00E94F12046E050E063EEB6
:1025900071E00E942D0687FDF4CF83EE91E00E944A
:1025A0008528182F8F3008F050C068EC71E08FE458
:1025B00095E00E9430238FE495E00E94F12046E0F0
:1025C00050E063EE71E00E942D0687FDF4CF83EEAC
:1025D00091E00E9485288E30B8F5D12F90E0C92F68
:1025E000C82B69EB71E08FE495E00E9400230F2D6A
:1025F000112707FD10954AE050E0B8018FE495E0FF
:102600000E94ED2364EB71E08FE495E00E940023CB
:1026100040E150E0BE018FE495E00E943824F801CB
:10262000EE0FFF1FE255FD4FD183C08361E06F0DB8
:102630006093AD028EEA92E00E946C112091AD028F
:10264000332727FD309503C003C02FEF3FEFC901AB
:10265000DF91CF911F910F91FF90089561E871E094
:102660008FE495E00E9430238FE495E00E94F120F2
:1026700046E050E06DED71E00E942D0687FDF4CF3D
:102680008DED91E00E9485288E3088F4EEEAF2E02C
:1026900020E030E09927522F4427482B592B4193B3
:1026A00051932F5F3F4F2F303105A9F709C06EE6D8
:1026B00071E08FE495E00E9430238FEF9FEF089543
:1026C0008FE090E008958FE495E00E94F12044E0CF
:1026D00050E069EE71E00E942D068F3F09F469C059
:1026E00060EB72E08FE495E00E94002369EE71E0F8
:1026F0008FE495E00E94422366E471E089EE91E068
:102700000E94AA28892B11F40C949B1263ED71E0AE
:1027100089EE91E00E94AA28892B11F40C942E13C3
:1027200068E471E089EE91E00E94AA28892B11F4F7
:102730000E94150C6AE471E089EE91E00E94AA28DB
:10274000892B19F40E94990534C06CE471E089EE7C
:1027500091E00E94AA28892BD9F480E090E00E94A1
:10276000FB02853118F40E94351023C06AE972E03B
:102770008FE495E00E9400236091AD02772767FD0A
:1027800070954AE050E08FE495E00E94F52311C077
:102790006EE471E089EE91E00E94AA28892B19F479
:1027A0000E94F21106C06AE872E08FE495E00E9490
:1027B00030238FEF9FEF08950F931F93CF9386EBF6
:1027C00093E00E945F18892B09F449C086EB93E0DF
:1027D0000E946F17C82F8091FE0181112DC0CF3F3D
:1027E00011F410920C0180910C01853040F7E82F14
:1027F000F0E0E150FE4FC0838F5F80930C01853085
:10280000F1F664E08FEF91E00E94D405C813D7CFB2
:1028100081E08093FE010E94AD1F68577C4E8F4F70
:102820009F4F6093FA017093FB018093FC0190939A
:10283000FD018091000214C00E94AD1F0091FA01B9
:102840001091FB012091FC013091FD010617170743
:102850002807390708F0B3CF1092FE01B0CF80E00F
:10286000CF911F910F910895CF93DF932FEF209376
:10287000F60120E12093F7019093F8018093F9018C
:10288000C6EFD1E0688186EB93E00E94AA17892BFE
:10289000C9F345E953E061E070E087ED92E00E9402
:1028A0005104219681E0CA3FD80761F764E086EFC2
:1028B00091E00E94D405682F86EB93E00E94AA174E
:1028C000892BA1F3DF91CF910895CF93DF932FEF61
:1028D0002093F60127E22093F7019093F80180936B
:1028E000F901C6EFD1E0688186EB93E00E94AA1758
:1028F000892BC9F345E953E061E070E087ED92E090
:102900000E945104219681E0CA3FD80761F764E034
:1029100086EF91E00E94D405682F86EB93E00E9439
:10292000AA17892BA1F3DF91CF910895CF92DF925F
:10293000EF92FF92CF93DF936AEA70E08FE495E025
:102940000E9430231092AA031092AB031092AC03A2
:102950001092AD03CFE0D0E080910A01882309F402
:10296000E4C060910B018091F1010E9406120E9467
:10297000DC13C090ED01D090EE01E090EF01F090FB
:10298000F0010E94AD1FC616D706E806F906B0F49E
:1029900044E650E06FEF7FEF8FEF90E00E94990DDB
:1029A0000E94AD1F68517C4F8F4F9F4F6093ED0188
:1029B0007093EE018093EF019093F0016091AA0370
:1029C0007091AB038091AC039091AD0361157105DB
:1029D0008105910509F20E944B256B017C0120E0E5
:1029E00034E244E759E40E941B2587FF20C0809110
:1029F000F10190E00196BE010E9484268093F101CE
:102A00006EE070E080E090E00E94662460930B012D
:102A100060EA70E08FE495E00E9400234AE050E015
:102A20006091F1018FE495E00E94212475C020E0BF
:102A300034E244E759E4C701B6010E94FD2587FD51
:102A400040C020E836E948E95AE4C701B6010E94CF
:102A50001B2587FF36C0E090F101F12CFE2CEE24FF
:102A600080910B01E82A1092AA031092AB031092F6
:102A7000AC031092AD034091AA035091AB03609157
:102A8000AC037091AD03452B462B472B09F044C096
:102A9000C7010E94651464E970E08FE495E00E942C
:102AA000002340E150E0B7018FE495E00E94382414
:102AB00044EF51E060E07FEF80E090E00E94990DEC
:102AC000DACF20E836E948E15BE4C701B6010E94AD
:102AD000FD2587FD0DC020EC31EE44EE5BE4C7011F
:102AE000B6010E941B2587FF03C010920A0114C083
:102AF00066E870E08FE495E00E9400234091AA030D
:102B00005091AB036091AC037091AD032AE030E0CB
:102B10008FE495E00E944E241092AA031092AB031A
:102B20001092AC031092AD0317CFDF91CF91FF90BD
:102B3000EF90DF90CF900895CF92DF92EF92FF92C7
:102B40000F931F938091AD021816ECF50E94AD1FF4
:102B50000091F2011091F3012091F4013091F501FF
:102B6000061717072807390710F58091AE029091D4
:102B7000AF020E9434140E94AD1F6B017C0168EE0D
:102B800073E080E090E00E9466249701860108517E
:102B90001C4F2F4F3F4F060F171F281F391F009341
:102BA000F2011093F3012093F4013093F501E091C9
:102BB000AC02F0E0EE0FFF1FE255FD4F6081818116
:102BC0000E94061237C06FEF7FEF8FEF90E00E94F8
:102BD000662420E12093D7028B019C01E1E1369528
:102BE000279517950795EA95D1F70F770093EB0294
:102BF00000930903009381038B019C01F9E0369552
:102C0000279517950795FA95D1F70F770093E1026D
:102C10000093FF0200937703DC01CB01B695A795E3
:102C200097958795682F6F776093F50260931303EC
:102C300060938B030E94DC13882309F46BC000911E
:102C4000010210E0102F002790910202092B803121
:102C5000D9F58091AD02992787FD909540E0E42F4A
:102C6000F0E0E817F9071CF5EE0FFF1FE255FD4FE6
:102C70002081318120173107C1F41092FE016EEFDF
:102C800070E08FE495E00E94002340E150E0B8013D
:102C90008FE495E00E94382444EF51E060E07FEF3C
:102CA00080E090E00E94990D02C04F5FD8CF8091E4
:102CB000FE01882379F148EE53E06FEF7FEF8FEF4D
:102CC00090E00E94990D26C0873221F548EE53E02E
:102CD00060E07FEF80E090E00E94990D81E08093BA
:102CE000AD021093AF020093AE026CEE70E08FE481
:102CF00095E00E94002340E150E0B8018FE495E0A8
:102D00000E9438246091AD028EEA92E00E946C111C
:102D10001092AC0245E953E06AE070E087ED92E082
:102D20000E9451046091AA037091AB038091AC039F
:102D30009091AD03611571058105910509F4C1C03C
:102D40000E944B256B017C0120E034E244E759E40A
:102D50000E941B2587FF81C08091FE0181113FC029
:102D60008091AC0290E001966091AD02772767FDFB
:102D700070950E9484268093AC0268ED70E08FE429
:102D800095E00E9400234AE050E06091AC028FE49D
:102D900095E00E941A2464ED70E08FE495E00E94B3
:102DA0000023E091AC02F0E0EE0FFF1FE255FD4F73
:102DB0006081718140E150E08FE495E00E94382409
:102DC0008091AD02811175C040910B016FE08EEAD8
:102DD00092E00E94E1118FE08093AD026AC0809181
:102DE00000028031D1F52091AD02E22FEE0FFF0BF2
:102DF000E255FD4F8091010290E0982F8827309195
:102E00000202832B918380832093AC0260EC70E0FC
:102E10008FE495E00E940023E091AD02EE0FFF0BDE
:102E2000E255FD4F6081718140E150E08FE495E013
:102E30000E9438246091AD026F5F6093AD028EEA0C
:102E400092E00E946C118091AD0285311CF084E10A
:102E50008093AD021092FE012CC020E836E948E1D3
:102E60005BE4C701B6010E94FD2587FD0DC020EC83
:102E700031EE44EE5BE4C701B6010E941B2587FFDB
:102E800003C00E94961415C020EC31EE44EE5BE4C2
:102E9000C701B6010E94FD2587FD0BC020EC31EE75
:102EA00044EE5CE4C701B6010E941B2587FD0E9429
:102EB000F2111092AA031092AB031092AC0310927D
:102EC000AD030E9463131816190614F48093AD0223
:102ED0001F910F91FF90EF90DF90CF900895209178
:102EE00085043091860428173907B9F4909143047A
:102EF00080914404981789F0E0914304F0E0EB5B83
:102F0000FB4F80812091430430E02F5F3F4F2F73B0
:102F100033272093430490E008958FEF9FEF0895A7
:102F200020918504309186042817390781F4909107
:102F3000430480914404981751F0E0914304F0E079
:102F4000EB5BFB4F8081992787FD909508958FEF6C
:102F50009FEF08958091FA03811173C01092F703D7
:102F600080E88093EB0380E28093EA0380E190E0C5
:102F700030E120E240E6DC01A752BC4FEFEFE80F62
:102F800067FF02C04C9301C03C93F0E0E752FC4F56
:102F90002083660F029779F782E18093D8038091AE
:102FA00080008093F403809181008093F3038091EB
:102FB0008400909185009093F2038093F1038091B7
:102FC0008800909189009093F0038093EF038091A3
:102FD0008600909187009093EE038093ED0380919B
:102FE0006F008093EC0380918000887382688093E7
:102FF000800080918100807E8961809381001092A1
:1030000085001092840082ED90E090938900809377
:10301000880085EA91E09093870080938600609312
:10302000F6036093F50389E08093F70381E08093D2
:10303000FA0380916F00846080936F0081E090E0DC
:10304000089580E090E008952091850430918604F1
:103050008217930789F530910104209102043217F9
:1030600059F1209102044091430430E02F5F3F4F1B
:103070002F73332750E024173507B9F0E09102048D
:10308000F0E0ED5FFB4F60832091020430E02F5FA2
:103090003F4F2F73332720930204DC01ED91FC9105
:1030A0000484F585E02D099504C0FC01258D22607E
:1030B000258F80E090E008958FEF9FEF0895209195
:1030C0008504309186042817390771F480914404EF
:1030D0002091430490E0805C9F4F821B910960E443
:1030E00070E00E948426089580E090E00895209189
:1030F0008504309186042817390739F48FB7F8947E
:1031000010924404109243048FBF089520E0019769
:103110002FEF8F3F9207D9F70895209185043091C2
:10312000860428173907B1F0FC01258D2E7F2D7FED
:10313000258F2FB7F89410924404109243041092F4
:1031400002041092010490938604809385042FBF9B
:1031500081E0089580E008950F931F93CF93DF934C
:10316000EC010E94B91F0091FD031091FE03209114
:10317000FF03309100044091FA03442319F01092A8
:10318000FB0369C0EE85FF8540815D85452309F419
:103190005AC09B01201B310B4091FB03411112C00F
:1031A000253F41E034070CF44EC035952795309308
:1031B000F9032093F8031092FC0328E02093FB030B
:1031C0001E8E41C04091FC03440F4093FC0340918C
:1031D000FB0341504093FB034091F8035091F903E6
:1031E0004217530728F42091FC0321602093FC032D
:1031F0002091FB03211127C02091FC032F8F21E098
:103200002E8F209144044091430430E02F5F3F4FC4
:103210002F73332750E02417350791F0E0914404D1
:103220002091FC03F0E0EB5BFB4F208320914404F2
:1032300030E02F5F3F4F2F7333272093440403C0A8
:103240002D8D21602D8F6093FD037093FE0380937D
:10325000FF0390930004DF91CF911F910F91089588
:103260008091850490918604009711F00C94AC181D
:1032700008951F920F920FB60F9211242F933F9330
:103280004F935F936F937F938F939F93AF93BF936E
:10329000EF93FF930E943019FF91EF91BF91AF918F
:1032A0009F918F917F916F915F914F913F912F915E
:1032B0000F900FBE0F901F9018951F920F920FB690
:1032C0000F9211242F933F934F935F936F937F93AC
:1032D0008F939F93AF93BF93EF93FF930E94301907
:1032E000FF91EF91BF91AF919F918F917F916F91DE
:1032F0005F914F913F912F910F900FBE0F901F90B4
:1033000018951F920F920FB60F9211242F933F938F
:103310004F935F936F937F938F939F93AF93BF93DD
:10332000EF93FF930E943019FF91EF91BF91AF91FE
:103330009F918F917F916F915F914F913F912F91CD
:103340000F900FBE0F901F9018951F93CF93DF9390
:10335000EC01162F61E0812F0E94402061E0812F57
:103360000E947920812F90E0FC01EC5AFA4FE49101
:10337000E88BFC01E859FA4FE491F0E0EE0FFF1FF3
:10338000EA57FA4F859194919A8B898BDF91CF916F
:103390001F9108951F93CF93DF93EC01162F60E0E8
:1033A000812F0E9440201C87612F70E0FB01EC5AA6
:1033B000FA4FE491ED87FB01E859FA4FE491F0E010
:1033C000EE0FFF1FE458FA4F859194919F878E87E7
:1033D000DF91CF911F910895CF92DF92EF92FF92EC
:1033E0000F931F93CF93DF93EC01162FC7011B821E
:1033F0001A8278EEC72E73E0D72EE12CF12CCC8206
:10340000DD82EE82FF82ECE9F1E0F983E8831C8A39
:103410001B8A1E8A1D8A188E1F8A1A8E198E9C8FEF
:103420008B8F8D8D8C7F20FB82F900FB83F98D8F34
:10343000642FCE010E94A519612FCE01DF91CF919B
:103440001F910F91FF90EF90DF90CF900C94CA19CD
:10345000CF93DF93EC018C858631E0F520916800F5
:10346000883050F091E08E3008F490E081E001C0A7
:10347000880F9A95EAF701C084E0822B8093680058
:103480002C85283038F02E3040F0263148F0E0E02E
:10349000F0E008C0EDE6F0E005C0EBE6F0E002C0C9
:1034A000ECE6F0E03081283030F481E001C0880F94
:1034B0002A95EAF70DC0822F90E02E3010F408977D
:1034C00001C00E9791E001C0990F8A95EAF7892F04
:1034D000832B8083898D9A8D0E948618CE01DF917F
:1034E000CF910C948D18FC014485463150F548303D
:1034F00028F04E3030F4EBE6F0E005C0EDE6F0E009
:1035000002C0ECE6F0E05081483040F481E090E009
:10351000042E01C0880F0A94EAF710C0242F30E06F
:103520004E3018F42850310902C02E50310981E084
:1035300090E0022E01C0880F0A94EAF78095852357
:10354000808308952CE931E0FC01318320830C94C1
:10355000731A1F920F920FB60F9211240F900FBE85
:103560000F901F9018951F920F920FB60F92112473
:103570008F939F93EF93FF93F8948091D8038823C0
:10358000D9F0E091D803F0E0E752FC4F8081815000
:103590008083E091D803F0E0E752FC4F80818111F5
:1035A00035C0809180008058809380008091D8033E
:1035B00081508093D8032AC08091FA03882331F187
:1035C0008091EC0380936F008091F40380938000DE
:1035D0008091F303809381008091F1039091F20335
:1035E00090938500809384008091EF039091F00385
:1035F00090938900809388008091ED039091EE0371
:1036000090938700809386001092FA03FF91EF91C8
:103610009F918F910F900FBE0F901F9018958091E2
:10362000B60490E02091B704821B9109089520917F
:10363000B7048091B604281750F4E22FF0E0E85464
:10364000FB4F808190E02F5F2093B70408958FEFA8
:103650009FEF0895E091B7048091B604E81730F425
:10366000F0E0E854FB4F808190E008958FEF9FEFEA
:1036700008950895CF92DF92EF92FF920F931F93D8
:10368000CF93DF937C01CB018A0120919304222305
:1036900089F0EB016B01C40ED51ECC15DD0569F078
:1036A0006991D701ED91FC910190F081E02DC70166
:1036B0000995F3CF642F0E94AA1BC801DF91CF9117
:1036C0001F910F91FF90EF90DF90CF900895CF93CF
:1036D000DF931F92CDB7DEB7698320919304222335
:1036E000D1F020919404203240F021E030E0FC0140
:1036F0003383228380E090E015C080919504E82F09
:10370000F0E0EA56FB4F998190838F5F8093950498
:103710008093940405C061E0CE0101960E94AA1B2B
:1037200081E090E00F90DF91CF910895FC0113822A
:10373000128248EE53E060E070E044835583668374
:1037400077838EEA91E091838083089587E894E0FF
:103750000C94961B613298F420914505243089F42D
:103760006093FA04FC018CEF94E0DC012A2F281B03
:10377000261718F421912D93F9CF80E0089581E068
:10378000089582E0089585ED8093BC008091BC008F
:1037900084FDFCCF10924505089585EC8093BC0014
:1037A0001092450508951F920F920FB60F921124A3
:1037B0002F933F934F935F936F937F938F939F9339
:1037C000AF93BF93EF93FF938091B900887F8036CA
:1037D00009F49EC078F5883209F45DC090F4803118
:1037E00009F456C038F4882309F4F5C0883009F488
:1037F0004FC0F5C0883109F44EC0803209F45FC073
:10380000EEC0803409F46AC058F4803309F457C01C
:10381000883309F0E4C08093D8040E94CD1BDFC038
:10382000803509F44FC0883509F45DC0883409F04B
:10383000D6C0D3C0883909F4C4C0A8F4883709F4C5
:1038400067C038F4883609F463C0803709F460C073
:10385000C6C0883809F4B5C0803909F45FC0803823
:1038600009F0BDC05BC0803B09F483C038F4803AE6
:1038700009F466C0883A09F47CC0B1C0803C09F400
:10388000A4C0883C09F4A1C0883B09F487C0A7C044
:103890008091440510C090911D0580911C059817DA
:1038A00070F5E0911D0581E08E0F80931D05F0E01D
:1038B000E25EFA4F80818093BB0085EC83C08093E9
:1038C000D8048BC0E0911D0581E08E0F80931D050B
:1038D0008091BB00F0E0E25EFA4F808390911D057D
:1038E00080911C056BC0E0911D0581E08E0F8093D7
:1038F0001D058091BB00F0E0E25EFA4F808380916D
:10390000430581116AC081E08093420584EA5EC06C
:1039100083E0809345051092D904CFCF8091D904DC
:10392000803208F04EC0E091D90481E08E0F809380
:10393000D9048091BB00F0E0E652FB4F8083BDCFFD
:103940000E94CD1B8091D904803230F4E091D904DB
:10395000F0E0E652FB4F10826091D90470E0E091F4
:103960003E05F0913F058AED94E009951092D90447
:1039700036C084E0809345051092FB041092FA044F
:10398000E0914005F091410509958091FA0481117B
:1039900005C081E08093FA041092FC04E091FB04DE
:1039A00081E08E0F8093FB04F0E0E450FB4F8081B8
:1039B0008093BB009091FB048091FA04981708F45F
:1039C0007CCF85E88093BC000AC085EC8093BC0066
:1039D0001092450504C01092D8040E94C31BFF91A9
:1039E000EF91BF91AF919F918F917F916F915F9177
:1039F0004F913F912F910F900FBE0F901F901895F0
:103A0000CF93DF93EC0188859985009711F00E9490
:103A100099278E8187FD05C060E0DF91CF910C94DE
:103A20004020DF91CF910895CF93DF93EC018E81F9
:103A300087FD07C061E00E94402060E08E810E9407
:103A4000792081E08983DF91CF910895EF92FF92F1
:103A50000F931F93CF93DF93EC017B0188859985AA
:103A6000009711F00E9499279D858A85981303C0BD
:103A700083E090E002C084E090E08E9D80018F9D05
:103A8000100D9E9D100D11241D830C83C8010E94F2
:103A9000012799878887009741F0A80160E070E0CE
:103AA0000E94A328FB82EA8204C01D821C821B8222
:103AB0001A82DF91CF911F910F91FF90EF9008959F
:103AC000FC0121E095858285981320E0CB0136E04A
:103AD000969587953A95E1F7482F43704587CB0136
:103AE00054E0969587955A95E1F7382F33703287D1
:103AF000CB01969587959695879583708387862FBA
:103B00008370848781E06F3F710511F008F080E0D9
:103B1000808380859185892B51F091E0431390E05B
:103B2000921729F062817381CF010C94261D0895AC
:103B3000CF92DF92EF92FF920F931F93CF93DF9379
:103B4000CDB7DEB729970FB6F894DEBF0FBECDBF55
:103B50008C01DC0118968D919C911997892B09F4A1
:103B60009AC00E94B91FF801C684D784E088F18802
:103B70006C197D098E099F096233710581059105D4
:103B800080F3F894848195819A838983A085B18597
:103B90007D01EFEFEE1AFE0A8C918987D8019C9186
:103BA00052960D90BC91A02DF8018489992309F4B7
:103BB0002EC09C91982B98879C91809589238F8308
:103BC0008F818E8388E08D8358856F8149853D8103
:103BD0002E8189819A81F7015C9347FD252F3A95C3
:103BE0002C93262F39F0441F00C000006C93000076
:103BF00000C0F2CF38E041916C930000019761F76B
:103C0000F801B38BA28B49873D832E8338C09C91EA
:103C1000982B98879C91809589238F838F818C83A3
:103C200088E08B8358856F8149853B812C81898110
:103C30009A81F7015C9347FD252F00C000C02C93AB
:103C400000C000C000C000C000C06C930000262F60
:103C50003A9541F0441F000000C000C000C000C001
:103C600000C0E8CF38E0419100C06C9300C00197DC
:103C700009F7F801B38BA28B49873B832C839A8386
:103C8000898378940E94B91FD8011E966D937D9305
:103C90008D939C93519729960FB6F894DEBF0FBE73
:103CA000CDBFDF91CF911F910F91FF90EF90DF90EB
:103CB000CF9008951F93CF93DF93EC01162F898146
:103CC000882331F08E8187FD03C060E00E94402090
:103CD0001E838981882341F061E0812F0E9440206A
:103CE00060E0812F0E947920812F90E0FC01E8594B
:103CF000FA4FE491F0E0EE0FFF1FEA57FA4F2591DB
:103D000034913B8B2A8BFC01EC5AFA4F84918C8BBB
:103D1000DF91CF911F910895EF92FF920F931F9320
:103D2000CF93DF931F92CDB7DEB77C018B01FC01EF
:103D3000118217821186108616861786108A118ABC
:103D4000B90149830E94601DB801C7010E94261D68
:103D50004981642FC7010F90DF91CF911F910F917F
:103D6000FF90EF900C945A1ECF92DF92EF92FF9249
:103D70000F931F93CF93DF93FC0182819381681788
:103D8000790708F04DC0CA01AA27BB27182FC32EF8
:103D9000D42EE52EFF24DC2DC22F0781002361F0F5
:103DA000809FC0011124192FC09E60011124DD2DB8
:103DB000209FC0011124C92FF5848285A085B1857B
:103DC000F81208C0CB01880F991F860F971F8A0F22
:103DD0009B1F17C0CB01880F991F880F991F8A0F4F
:103DE0009B1F452F552766277727DC01AF0DB11D97
:103DF000002329F0409F90011124232F01C0242F7C
:103E00002C932285DC01A20FB11D1C932385DC01BC
:103E1000A20FB11DDC932485FC01E20FF11DC083CC
:103E2000DF91CF911F910F91FF90EF90DF90CF9096
:103E30000895962F50E060E070E0592B682BCB017D
:103E4000BA010895FF920F931F93CF93DF93EC0174
:103E5000FF24F394F60E2F81F21679F10885198567
:103E60002150B9F06F3F59F430E040E050E06FEF7F
:103E70007FEF80E090E00E94BA26B9010CC08F2D40
:103E800090E0982F88270197622F70E00E9470269B
:103E900002C060E070E0F8018C819D81AF01401BA1
:103EA000510B4817590740F44081469FC001479F76
:103EB000900D11249193F0CFFF82DF91CF911F914C
:103EC0000F91FF9008951F920F920FB60F92112439
:103ED0002F933F938F939F93AF93BF938091470509
:103EE00090914805A0914905B0914A053091460549
:103EF00023E0230F2D3720F40196A11DB11D05C02D
:103F000026E8230F0296A11DB11D2093460580933C
:103F1000470590934805A0934905B0934A058091C1
:103F20004B0590914C05A0914D05B0914E05019621
:103F3000A11DB11D80934B0590934C05A0934D0599
:103F4000B0934E05BF91AF919F918F913F912F916B
:103F50000F900FBE0F901F9018952FB7F894609197
:103F60004705709148058091490590914A052FBFFA
:103F700008953FB7F89480914B0590914C05A0911E
:103F80004D05B0914E0526B5A89B05C02F3F19F0F1
:103F90000196A11DB11D3FBF6627782F892F9A2F4B
:103FA000620F711D811D911D42E0660F771F881FF2
:103FB000991F4A95D1F70895789484B5826084BD9D
:103FC00084B5816084BD85B5826085BD85B581601D
:103FD00085BDEEE6F0E0808181608083E1E8F0E07D
:103FE0001082808182608083808181608083E0E8AC
:103FF000F0E0808181608083E1EBF0E0808184608B
:104000008083E0EBF0E0808181608083EAE7F0E08C
:1040100080818460808380818260808380818160F0
:1040200080838081806880831092C10008958330EE
:1040300081F028F4813099F08230A1F00895873022
:10404000A9F08830B9F08430D1F4809180008F7D60
:1040500003C0809180008F7780938000089584B59D
:104060008F7702C084B58F7D84BD08958091B000A4
:104070008F7703C08091B0008F7D8093B00008954A
:10408000CF93DF9390E0FC01EC5AFA4F2491FC01AE
:10409000E859FA4F8491882349F190E0880F991FDD
:1040A000FC01E057FA4FA591B4918A579A4FFC0151
:1040B000C591D4919FB7611108C0F8948C91209557
:1040C00082238C93888182230AC0623051F4F89451
:1040D0008C91322F309583238C938881822B888317
:1040E00004C0F8948C91822B8C939FBFDF91CF9169
:1040F00008950F931F93CF93DF931F92CDB7DEB731
:10410000282F30E0F901E05CFA4F8491F901EC5A74
:10411000FA4F1491F901E859FA4F04910023C9F0BC
:10412000882321F069830E9417206981E02FF0E045
:10413000EE0FFF1FEA57FA4FA591B4919FB7F8947D
:104140008C91611103C01095812301C0812B8C9348
:104150009FBF0F90DF91CF911F910F910895CF9343
:10416000DF93282F30E0F901E05CFA4F8491F901E8
:10417000EC5AFA4FD491F901E859FA4FC491CC2383
:1041800091F081110E941720EC2FF0E0EE0FFF1F3D
:10419000E458FA4FA591B4912C912D2381E090E041
:1041A00021F480E002C080E090E0DF91CF9108959B
:1041B000FC01818D228D90E0805C9F4F821B9109D4
:1041C0008F7399270895FC01918D828D981731F096
:1041D000828DE80FF11D858D90E008958FEF9FEFA0
:1041E0000895FC01918D828D981761F0828DDF0119
:1041F000A80FB11D5D968C91928D9F5F9F73928FDA
:1042000090E008958FEF9FEF089585E792E2892B64
:1042100049F080E090E0892B29F00E9475228111FD
:104220000C9400000895FC01848DDF01A80FB11DDE
:10423000A35ABF4F2C91848D90E001968F739927DC
:10424000848FA689B7892C93A089B1898C918064C9
:104250008C93938D848D981306C00288F389E02D8A
:1042600080818F7D80830895CF93DF93EC01888DCB
:104270008823C9F0EA89FB89808185FD05C0A8896A
:10428000B9898C9186FD0FC00FB607FCF5CF8081F0
:1042900085FFF2CFA889B9898C9185FFEDCFCE013A
:1042A0000E941321E7CFDF91CF910895CF92DF9243
:1042B000FF920F931F93CF93DF931F92CDB7DEB77B
:1042C0006C0181E0D60158968C9358975B969C912F
:1042D0005B975C968C915C97981307C05096ED9114
:1042E000FC915197808185FD2EC0F601038D10E071
:1042F0000F5F1F4F0F731127F02EF601848DF812F8
:1043000011C00FB607FCF9CFD6015096ED91FC9184
:104310005197808185FFF1CFC60169830E941321E7
:104320006981EBCF838DE80FF11DE35AFF4F608366
:10433000D6015B960C935B975296ED91FC91539747
:10434000808180620CC0D6015696ED91FC91579702
:1043500060835096ED91FC915197808180648083B9
:1043600081E090E00F90DF91CF911F910F91FF902E
:10437000DF90CF900895BF92CF92DF92EF92FF929D
:10438000CF93DF93EC016A017B01B22EE889F989B2
:1043900082E08083411581EE580761057105A1F027
:1043A00060E079E08DE390E0A70196010E949826F5
:1043B000215031094109510956954795379527955F
:1043C000211580E1380798F0E889F989108260E8C2
:1043D00074E88EE190E0A70196010E949826215092
:1043E0003109410951095695479537952795EC852F
:1043F000FD853083EE85FF852083188EEC89FD894D
:10440000B082EA89FB89808180618083EA89FB89A7
:10441000808188608083EA89FB89808180688083CD
:10442000EA89FB8980818F7D8083DF91CF91FF9026
:10443000EF90DF90CF90BF9008951F920F920FB62C
:104440000F9211242F938F939F93EF93FF93E091FB
:104450005F05F09160058081E0916505F09166054A
:1044600082FD12C09081809168058F5F8F732091CB
:104470006905821751F0E0916805F0E0E15BFA4FC1
:10448000958F8093680501C08081FF91EF919F9186
:104490008F912F910F900FBE0F901F9018951F9224
:1044A0000F920FB60F9211242F933F934F935F9368
:1044B0006F937F938F939F93AF93BF93EF93FF93EC
:1044C0008FE495E00E941321FF91EF91BF91AF918E
:1044D0009F918F917F916F915F914F913F912F911C
:1044E0000F900FBE0F901F9018958FE495E00E94DB
:1044F000D82021E0892B09F420E0822F0895109222
:1045000052051092510588EE93E0A0E0B0E0809350
:10451000530590935405A0935505B09356058EEB23
:1045200091E09093500580934F0585EC90E0909337
:104530005C0580935B0584EC90E090935E0580932E
:104540005D0580EC90E09093600580935F0581ECC1
:1045500090E0909362058093610582EC90E09093E7
:1045600064058093630586EC90E0909366058093E4
:104570006505109268051092690510926A051092FF
:104580006B050895CF92DF92EF92FF920F931F93E6
:10459000CF93DF937C016A01EB0100E010E00C1582
:1045A0001D0571F06991D701ED91FC910190F081A9
:1045B000E02DC7010995892B19F00F5F1F4FEFCF31
:1045C000C801DF91CF911F910F91FF90EF90DF9085
:1045D000CF9008956115710581F0DB010D900020E9
:1045E000E9F7AD0141505109461B570BDC01ED9134
:1045F000FC910280F381E02D099480E090E0089521
:10460000EF92FF920F931F93CF93DF938C017B0167
:10461000C0E0D0E0F701EC0FFD1F6491662359F074
:10462000F801A081B181ED91FC91C8010995892B18
:1046300011F02196EFCFCE01DF91CF911F910F9115
:10464000FF90EF9008950C94EA22DC01ED91FC912B
:104650000190F081E02D09946AEC71E00C94EA225B
:104660000F931F93CF93DF93EC010E9400238C01E3
:10467000CE010E942C23800F911FDF91CF911F91BB
:104680000F9108950F931F93CF93DF93EC010E9436
:10469000EA228C01CE010E942C23800F911FDF9112
:1046A000CF911F910F9108958F929F92AF92BF92D9
:1046B000DF92EF92FF920F931F93CF93DF93CDB7CB
:1046C000DEB7A1970FB6F894DEBF0FBECDBF7C0159
:1046D000F42FD52ECB0119A2223008F42AE08E0146
:1046E0000F5D1F4F822E912CA12CB12C6F2F7D2D91
:1046F000A50194010E949826F22FD32ECA010150E1
:1047000011096A3014F4E0E301C0E7E3E60FD801D1
:10471000EC93232B242B252B49F7B801C7010E94CA
:10472000EA22A1960FB6F894DEBF0FBECDBFDF918F
:10473000CF911F910F91FF90EF90DF90BF90AF90BE
:104740009F908F900895CF92DF92EF92FF920F93F8
:104750001F93CF93DF93EC016A017B012115310593
:1047600079F4E881F9810190F081E02D642FDF91E7
:10477000CF911F910F91FF90EF90DF90CF90099410
:104780002A303105E9F477FF1AC06DE20E94252333
:104790008C0144275527BA014C195D096E097F0920
:1047A0002AE0CE010E945423800F911FDF91CF9108
:1047B0001F910F91FF90EF90DF90CF9008952AE026
:1047C000B701A601CE01DF91CF911F910F91FF900C
:1047D000EF90DF90CF900C9454239A01AB016627A1
:1047E00057FD6095762F0C94A3230F931F93CF93BF
:1047F000DF93EC019A01AB01662757FD6095762F98
:104800000E94A3238C01CE010E942C23800F911FB4
:10481000DF91CF911F910F9108952115310541F43A
:10482000DC01ED91FC910190F081E02D642F099461
:104830000C9454239A01462F50E060E070E00C94F1
:104840000D240F931F93CF93DF93EC019A01462F12
:1048500050E060E070E00E940D248C01CE010E94C7
:104860002C23800F911FDF91CF911F910F910895FD
:104870000F931F93CF93DF93EC019A01AB0160E09C
:1048800070E00E940D248C01CE010E942C23800F29
:10489000911FDF91CF911F910F9108950F931F9357
:1048A000CF93DF93EC010E940D248C01CE010E9476
:1048B0002C23800F911FDF91CF911F910F910895AD
:1048C000FC0144835583668377830895CF93DF93F8
:1048D00000D000D0CDB7DEB79B01AC0161157105EA
:1048E0008105910569F069833A834B835C830E945B
:1048F000772829813A814B815C810E94BA2603C0C6
:1049000060E070E0CB010F900F900F900F90DF915F
:10491000CF910895CF92DF92EF92FF926B017C01CD
:10492000621773078407950764F4CA01B9016C190B
:104930007D098E099F090E9466246C0D7D1D8E1DC8
:104940009F1DFF90EF90DF90CF90089508950E94F3
:10495000DC1F0E94A6240E94E710C5E0D1E20E945D
:104960009C152097E1F30E940521F9CF5058BB27F1
:10497000AA270ED008C1F9D030F0FED020F031F4D3
:104980009F3F11F41EF4EEC00EF4E095E7FBE4C087
:10499000E92F0AD180F3BA176207730784079507D6
:1049A00018F071F49EF522C10EF4E0950B2EBA2F8B
:1049B000A02D0B01B90190010C01CA01A001112425
:1049C000FF27591B99F0593F50F4503E68F11A16D1
:1049D000F040A22F232F342F4427585FF3CF469562
:1049E00037952795A795F0405395C9F77EF41F1684
:1049F000BA0B620B730B840BBAF09150A1F0FF0F4E
:104A0000BB1F661F771F881FC2F70EC0BA0F621F39
:104A1000731F841F48F4879577956795B795F79529
:104A20009E3F08F0B3CF9395880F08F09927EE0FBB
:104A30009795879508956CD008F481E00895BCD0CF
:104A400088F09F5790F0B92F9927B751A0F0D1F077
:104A5000660F771F881F991F1AF0BA95C9F712C001
:104A6000B13081F0C3D0B1E00895C0C0672F782F76
:104A70008827B85F39F0B93FCCF38695779567956D
:104A8000B395D9F73EF490958095709561957F4FD9
:104A90008F4F9F4F0895E89409C097FB3EF490957F
:104AA0008095709561957F4F8F4F9F4F9923A9F007
:104AB000F92F96E9BB279395F69587957795679596
:104AC000B795F111F8CFFAF4BB0F11F460FF1BC0DA
:104AD0006F5F7F4F8F4F9F4F16C0882311F096E96D
:104AE00011C0772321F09EE8872F762F05C066231B
:104AF00071F096E8862F70E060E02AF09A95660FD4
:104B0000771F881FDAF7880F9695879597F908958C
:104B1000990F0008550FAA0BE0E8FEEF16161706CE
:104B2000E807F907C0F012161306E407F50798F036
:104B3000621B730B840B950B39F40A2661F0232B4F
:104B4000242B252B21F408950A2609F4A140A695CB
:104B50008FEF811D811D089597F99F6780E870E0B0
:104B600060E008959FEF80EC089500240A941616E3
:104B7000170618060906089500240A94121613064B
:104B8000140605060895092E0394000C11F48823D9
:104B900052F0BB0F40F4BF2B11F460FF04C06F5FF5
:104BA0007F4F8F4F9F4F089557FD9058440F551FCB
:104BB00059F05F3F71F04795880F97FB991F61F09F
:104BC0009F3F79F087950895121613061406551F16
:104BD000F2CF4695F1DF08C0161617061806991F82
:104BE000F1CF86957105610508940895E894BB2777
:104BF00066277727CB0197F908958ADF08F48FEFAE
:104C000008950BD0C0CFB1DF28F0B6DF18F09523A0
:104C100009F0A2CFA7CF1124EACFC6DFA0F3959F5A
:104C2000D1F3950F50E0551F629FF001729FBB2793
:104C3000F00DB11D639FAA27F00DB11DAA1F649F3F
:104C40006627B00DA11D661F829F2227B00DA11DF2
:104C5000621F739FB00DA11D621F839FA00D611D78
:104C6000221F749F3327A00D611D231F849F600D99
:104C7000211D822F762F6A2F11249F5750408AF0D2
:104C8000E1F088234AF0EE0FFF1FBB1F661F771F5E
:104C9000881F91505040A9F79E3F510570F05CCF9E
:104CA000A6CF5F3FECF3983EDCF38695779567954A
:104CB000B795F795E7959F5FC1F7FE2B880F911D7C
:104CC0009695879597F90895991B79E004C0991FE7
:104CD000961708F0961B881F7A95C9F78095089556
:104CE000AA1BBB1B51E107C0AA1FBB1FA617B70712
:104CF00010F0A61BB70B881F991F5A95A9F780952E
:104D00009095BC01CD01089597FB072E16F40094F1
:104D100007D077FD09D00E94702607FC05D03EF42D
:104D2000909581959F4F0895709561957F4F089557
:104D3000A1E21A2EAA1BBB1BFD010DC0AA1FBB1F9F
:104D4000EE1FFF1FA217B307E407F50720F0A21B11
:104D5000B30BE40BF50B661F771F881F991F1A947E
:104D600069F760957095809590959B01AC01BD01A8
:104D7000CF010895052E97FB1EF400940E94D126C2
:104D800057FD07D00E94982607FC03D04EF40C94E0
:104D9000D12650954095309521953F4F4F4F5F4F0D
:104DA000089590958095709561957F4F8F4F9F4F97
:104DB0000895EE0FFF1F0590F491E02D09940E94D5
:104DC000F226A59F900DB49F900DA49F800D911D7C
:104DD00011240895B7FF0C94DF260E94DF26821B62
:104DE000930B0895A29FB001B39FC001A39F700DC4
:104DF000811D1124911DB29F700D811D1124911DE3
:104E00000895CF93DF938230910510F482E090E013
:104E1000E091EE05F091EF0520E030E0A0E0B0E099
:104E2000309739F14081518148175907B8F0481738
:104E3000590771F482819381109729F013969C93FE
:104E40008E9312972CC09093EF058093EE0527C0A8
:104E50002115310531F04217530718F0A901DB0184
:104E600001C0EF019A01BD01DF010280F381E02D55
:104E7000D7CF21153105F9F0281B390B2430310526
:104E800080F48A819B816115710521F0FB01938378
:104E9000828304C09093EF058093EE05FE01329665
:104EA00044C0FE01E20FF31F819391932250310918
:104EB000398328833AC02091EC053091ED05232BEE
:104EC00041F420910201309103013093ED052093CC
:104ED000EC0520910001309101012115310541F4CB
:104EE0002DB73EB74091040150910501241B350BAD
:104EF000E091EC05F091ED05E217F307A0F42E1B0D
:104F00003F0B2817390778F0AC014E5F5F4F24172D
:104F1000350748F04E0F5F1F5093ED054093EC05A9
:104F20008193919302C0E0E0F0E0CF01DF91CF9157
:104F30000895CF93DF93009709F487C0FC0132975F
:104F400013821282C091EE05D091EF05209781F473
:104F500020813181280F391F8091EC059091ED055A
:104F60008217930779F5F093ED05E093EC056DC09A
:104F7000DE0120E030E0AE17BF0750F412964D91ED
:104F80005C9113979D014115510509F1DA01F3CFA9
:104F9000B383A28340815181840F951F8A179B0799
:104FA00071F48D919C911197840F951F02969183B6
:104FB000808312968D919C91139793838283211500
:104FC000310529F4F093EF05E093EE053EC0D901D9
:104FD0001396FC93EE9312974D915D91A40FB51F1C
:104FE000EA17FB0779F480819181840F951F02965F
:104FF000D90111969C938E938281938113969C93F1
:105000008E931297E0E0F0E08A819B81009719F07F
:10501000FE01EC01F9CFCE01029628813981820F81
:10502000931F2091EC053091ED052817390769F49D
:10503000309729F41092EF051092EE0502C013820A
:105040001282D093ED05C093EC05DF91CF910895C6
:105050008F929F92AF92BF92CF92DF92EF92FF9288
:10506000CF93DF93EC01688179818A819B816115FF
:1050700071058105910521F464E279ED8BE597E0F6
:105080002DE133EF41E050E00E94BA2649015A0178
:105090009B01AC01A7EAB1E40E94DF266B017C0111
:1050A000ACEEB4EFA50194010E94ED26C60ED71E0A
:1050B000E81EF91EF7FE06C081E0C81AD108E10813
:1050C00080E8F80AC882D982EA82FB82C701B60169
:1050D0009F77DF91CF91FF90EF90DF90CF90BF90BF
:1050E000AF909F908F9008950E942828089586E0A1
:1050F00091E00E94282808956093060170930701AB
:1051000080930801909309010895FC01882799274D
:10511000E89421912032E9F3293010F02E30C8F3C1
:105120002B3241F02D3239F4689404C00E94B32828
:10513000820F911D219120532A30C0F31EF49095C7
:1051400081959F4F0895DC0101C06D9341505040FF
:10515000E0F70895FB01DC018D91019080190110A9
:10516000D9F3990B08957AE0979F902D879F802D12
:10517000910D11240895F999FECF92BD81BDF89A41
:10518000992780B50895262FF999FECF1FBA92BDB1
:1051900081BD20BD0FB6F894FA9AF99A0FBE019618
:1051A000089515E0C0EAD5E004C0FE010E94DB26A8
:0C51B0002296C23AD107C9F7F894FFCF4D
:1051BC000000F00580000100000001060501050556
:1051CC00010001010101011972756E6E696E672093
:1051DC0043524331363A005374617274696E6720DE
:1051EC0050524F504147414E442D455945206B6517
:1051FC00726E656C3A0070006D003F0072007700B3
:10520C000001020304050607080900050403020156
:10521C000009080706050204000608070905010332
:10522C00020301040005090608070906000501042C
:10523C0002030104000509060807FFFF0807090619
:10524C00000501040203FFFF000000002418C22225
:10525C005F186F1790177718AA1700000000671BCC
:10526C003A1B0F1B171B2A1B391B00000000562171
:10527C00C222D820F120E32034210D0A006E616E89
:0C528C0000696E66006F7666002E000060
:107E0000112484B714BE81FFF0D085E080938100F7
:107E100082E08093C00088E18093C10086E0809377
:107E2000C20080E18093C4008EE0C9D0259A86E02C
:107E300020E33CEF91E0309385002093840096BBD3
:107E4000B09BFECF1D9AA8958150A9F7CC24DD24C4
:107E500088248394B5E0AB2EA1E19A2EF3E0BF2EE7
:107E6000A2D0813461F49FD0082FAFD0023811F036
:107E7000013811F484E001C083E08DD089C08234E0
:107E800011F484E103C0853419F485E0A6D080C0E4
:107E9000853579F488D0E82EFF2485D0082F10E0AE
:107EA000102F00270E291F29000F111F8ED06801E7
:107EB0006FC0863521F484E090D080E0DECF843638
:107EC00009F040C070D06FD0082F6DD080E0C81688
:107ED00080E7D80618F4F601B7BEE895C0E0D1E017
:107EE00062D089930C17E1F7F0E0CF16F0E7DF06D8
:107EF00018F0F601B7BEE89568D007B600FCFDCFD4
:107F0000A601A0E0B1E02C9130E011968C91119780
:107F100090E0982F8827822B932B1296FA010C0160
:107F200087BEE89511244E5F5F4FF1E0A038BF0790
:107F300051F7F601A7BEE89507B600FCFDCF97BE46
:107F4000E89526C08437B1F42ED02DD0F82E2BD052
:107F50003CD0F601EF2C8F010F5F1F4F84911BD097
:107F6000EA94F801C1F70894C11CD11CFA94CF0C13
:107F7000D11C0EC0853739F428D08EE10CD085E9AC
:107F80000AD08FE07ACF813511F488E018D01DD067
:107F900080E101D065CF982F8091C00085FFFCCF94
:107FA0009093C60008958091C00087FFFCCF809118
:107FB000C00084FD01C0A8958091C6000895E0E648
:107FC000F0E098E1908380830895EDDF803219F02E
:107FD00088E0F5DFFFCF84E1DECF1F93182FE3DFCA
:107FE0001150E9F7F2DF1F91089580E0E8DFEE27F6
:047FF000FF270994CA
:027FFE00040479
:0400000300007E007B
:00000001FF
