:100000000C943B030C9463030C9463030C94831BC8
:100010000C94A71B0C94CB1B0C9463030C946303EC
:100020000C9463030C9463030C9463030C946303B8
:100030000C94F81C0C94EE1C0C9463030C94630356
:100040000C94AD210C9463030C94A1240C94D32440
:100050000C9463030C9463030C9463030C94630388
:100060000C94181E0C94630329142F1436143D1499
:1000700044144B1452145914601467146E147514FC
:100080007C1483148A149014627574746F6E2068E3
:10009000656C643F3D0053657467656E6520746FE1
:1000A0003A00456666656374203D20006D61737497
:1000B0006572206D6F646520616374697661746533
:1000C00064004E65772067656E65206C6561726EB1
:1000D0006564203D2000203A200043757272656EF1
:1000E000742053686F7747656E65203D200042613C
:1000F00073652067656E652073657420746F3A00C0
:1001000049207365652067656E653A00416C7265CC
:1001100061647920686176652067656E653A0020C4
:1001200067656E657320746F20454550524F4D00D2
:10013000436F706965642000577269746520454596
:1001400050524F4D2043524331363A0042414420F1
:100150004352433A00435243204F4B3A00424144FA
:10016000204352433A00203A2000454550524F4D1B
:1001700047656E65733A00454550524F4D4E756D5B
:1001800047656E6573203D200052586672616D654B
:100190002074696D6564206F75740042414420438A
:1001A0005243005258206672616D6520737461720B
:1001B00074005374617274696E672050524F5041DD
:1001C00047414E442D455945206B65726E656C3A2A
:1001D000004E756D47656E6573203D20002E004C06
:1001E0006F6164696E6700496E76616C6964206353
:1001F0006F6C6F7273657420230046696C6C206DA0
:100200006F64652E2020456E746572206120636FD7
:100210006C6F7273657420746F20636F70792074D3
:100220006F20616C6C2067656E65733A0020746F97
:10023000200053657474696E672067656E652023BE
:1002400000456E746572206120636F6C6F72736518
:1002500074202300456E74657220616E20656666A9
:1002600065637420230050726F6772616D206D6F3B
:1002700064652E2020456E74657220612067656E6E
:10028000652023006D203A2066616C6C6F757420C8
:10029000340062203A207265626F6F74204172648C
:1002A00075696E6F0066203A2066696C6C20726119
:1002B0006D2D67656E6573207769746820616C6C5D
:1002C00020656666656374730077203A20776970ED
:1002D000652067656E65732028726576657273693F
:1002E000626C65290072203A20726561642067653E
:1002F0006E65730070203A2070726F6772616D00D6
:1003000053657269616C20636F6D6D616E64206806
:10031000656C703A00756E6B6E6F776E20636F6DF3
:100320006D616E640072656164206572726F723A0D
:10033000204E756D47656E65733D00434D443A2010
:1003400000010101010101010101010101010000A0
:100350000000000101010101010101010101010190
:10036000010101010101010101010101010101017D
:10037000010101010101010101010000010101016F
:100380000101010000000000010101010000000066
:100390000000010101010000000000010101010154
:1003A0000100000000010101010101010000010143
:1003B0000101000100010001010101010000000034
:1003C0000001010101010000000100010101010122
:1003D0000001000000010101000000010001000017
:1003E00000000102030405060708090005040302D2
:1003F00001000908070605020400060807090501AF
:1004000003020301040005090608070906000501A7
:100410000402030104000509060807FFFF08070995
:1004200006000501040203FFFF0502070409060197
:10043000080300000102FF070605FF000908FF038B
:100440000405FF030804090500FFFF020701060079
:1004500005FFFF0000000000000000000000000099
:10046000000000000000000000000000000000008C
:1004700000000000FF0000FF000000FF00FF000080
:10048000FFFF007F007F00007F7F00007F00007F74
:1004900000000000FF0000FF00FF000000FF00FF61
:1004A000FF000000007F007F7F0000007F00007FD2
:1004B000007F0000FFFF000000FF00FF000000FFC2
:1004C000FF00007F0000007F7F0000007F7F0000B2
:1004D000007F0000FF000000FF650000FF7F0000BC
:1004E000FFFF00FF008F00FF00FF00FF000800FF7C
:1004F000000000FF008F00FF00FF00FF000800FF6A
:1005000000000000FF000000FF650000FF7F00000A
:10051000FFFF0000FF000000FFFF00FF00FF00FFE3
:100520007F000000FF7F000000FF00FF000000FFD1
:10053000FF000000FF7F000000FF00FF000000FF41
:10054000FF000000FF000000FFFF00FF00FF00FFB2
:100550007F0000007FFF00FF00FF00FF7F0000FF23
:10056000FF00007F3F00007F7F0000003F7F007F93
:10057000007F00FF770000FF7F00007C9C0000FFF1
:10058000FF00007F7F0000202000007F3F00002050
:1005900020000000FF7F0000EE550000CC3300007B
:1005A000AA2200FF000000B00000009000000066DA
:1005B0000066007733FF00339911004400220044A5
:1005C000008800220011002200440033117700113E
:1005D0004400007733FF00339911004400220044A7
:1005E00000880011000800113300001108110008F4
:1005F0002200001D763800751C35003891E600A0F9
:100600007BC2002200110022004400331177001148
:10061000440000000000080002010000030407007D
:1006200000000000000000010204081020408001CA
:100630000204081020010204081020040404040429
:100640000404040202020202020303030303030080
:1006500000000023002600290000000000250028DB
:10066000002B0000000000240027002A0000961440
:10067000EB1D0325AF1411241FBECFEFD8E0DEBF62
:10068000CDBF11E0A0E0B1E0EEEDF6E502C00590CF
:100690000D92AA37B107D9F725E0AAE7B1E001C06A
:1006A0001D92A039B207E1F716E0C4E7D6E004C016
:1006B0002297FE010E946C29CE36D107C9F70E940D
:1006C00029270C94622B0C9400000C944C2B0C9456
:1006D000542B90917503937028E0829FF0011124B0
:1006E000E90FF11DEE0FFF1FEE0FFF1FED5AFB4F3D
:1006F00065917591859194910895E0917603E370E9
:10070000F0E0349698E0899FE00DF11D1124EE0F82
:10071000FF1FEE0FFF1FED5AFB4F659175918591FD
:1007200094910895FF920F931F93CF93DF93FC0151
:10073000862F6AE00E94E728C92FD0E0DA01C901BC
:1007400061E1B695A795979587956A95D1F7682F3A
:100750006F77F62EEC0FFD1F648B62ABDF01A655A1
:10076000BF4F6C93DA01C90179E0B695A7959795CB
:1007700087957A95D1F7682F6F77628760A7DF0139
:10078000A056BF4F6C93DA01C901B695A79597950E
:100790008795482F4F77468F44AFEC54FF4F4083E7
:1007A0008F2D0E9463219B01AC01BE01C8010E94F4
:1007B000FE20DF91CF911F910F91FF900895CF926E
:1007C000DF92EF92FF920F931F93CF93DF937C0101
:1007D000862F6AE00E94E728C92ED12CDA01C901D0
:1007E00061E1B695A795979587956A95D1F7682F9A
:1007F0006F77E701CC0DDD1D6AABDA01C90179E045
:10080000B695A795979587957A95D1F78F7788A70D
:1008100056954795379527952F772CAFFE01E056D3
:10082000FF4F30813A873A9640814C8B3A969081BF
:100830009E8FE456F109641B60833A97831B808383
:100840007496291B20830E94F721F6017E96EE0FF5
:10085000FF1FEE0FFF1FEE0DFF1D6083718382836C
:100860009383F601F296EE0FFF1FEE0DFF1D11832D
:10087000008380E28883DF91CF911F910F91FF90D9
:10088000EF90DF90CF900895CF92DF92EF92FF929A
:10089000CF9380911401882349F182E00E94332391
:1008A000C1E0892B09F4C0E0809116018C17E1F0BA
:1008B0008091510390915203A0915303B09154033E
:1008C00080934D0390934E03A0934F03B093500336
:1008D000109214010E9403226093510370935203FB
:1008E0008093530390935403C09316018091140195
:1008F00081113BC00E9403226B017C018091510356
:1009000090915203A0915303B0915403A701960113
:10091000281B390B4A0B5B0BDA01C9018037974161
:10092000A105B10510F182E00E94332321E0892B5B
:1009300009F420E0209315012223A1F080914D03BA
:1009400090914E03A0914F03B0915003C81AD90A59
:10095000EA0AFB0AC0924903D0924A03E0924B0391
:10096000F0924C0381E080931401CF91FF90EF90BF
:10097000DF90CF9008952F923F924F925F926F92A7
:100980007F928F929F92AF92BF92CF92DF92EF921F
:10099000FF920F931F93CF93DF93CDB7DEB72C97C2
:1009A0000FB6F894DEBF0FBECDBF5C018B011A01FC
:1009B0000E94F721980117FF02C020E030E0790182
:1009C0000027F7FC0095102FE60EF71E081F191FD1
:1009D000EB82FC820D831E838501C12CD12C80EE1D
:1009E000F82ED8018C91803129F0803299F4D80109
:1009F000FC9210C0F8011082F501EC0DFD1D44AD14
:100A000060A582A90E9463219B01AC01B601C101CE
:100A10000E94FE20BFEFCB1ADB0A0F5F1F4FEAE0F8
:100A2000CE16D104F1F6C1010E94DD1F0E94F7210C
:100A3000EB80FC800D811E816E157F05800791077C
:100A400008F0C8C0C5010E944404BA86A986BC86C5
:100A5000AB86B886AF82812C912C0E94F721EF8162
:100A6000F885E858FF4FC080D180E280F380AB85E5
:100A7000BC852C91203E09F092C02B013C014C1802
:100A80005D086E087F08E985FA85EC59FF4FC08044
:100A9000D180E12CF12C8501080D191DA056BF4F06
:100AA000BA83A9834C145D046E047F040CF048C023
:100AB000EB85FC85EA5BFF4FA081BB27A7FDB095C6
:100AC000A30192010E947B29A70196010E944B2954
:100AD000F8018285820FA981BA818C93EB85FC8510
:100AE000E05BFF4FA081BB27A7FDB095A30192015A
:100AF0000E947B29A70196010E944B29F801848955
:100B0000820FEB85FC85E655FF4F8083EB85FC85E6
:100B1000E65AFF4FA081BB27A7FDB095A301920124
:100B20000E947B29A70196010E944B29D8015E965D
:100B30008C91820FEB85FC85EC54FF4F808318C0AD
:100B4000F80180A58287A981BA818C9382A9848BC0
:100B5000EB85FC85E655FF4F8083F80184AD868FD9
:100B6000EB85FC85EC54FF4F8083AB85BC851C92E4
:100B7000EB85FC85EC54FF4F4081EB85FC85E0560E
:100B8000FF4F6081EB85FC85E655FF4F80810E9419
:100B900063219B01AC01B401C1010E94FE20BFEFA3
:100BA0008B1A9B0A0F8118850C5F1F4F18870F83C4
:100BB0000B851C850F5F1F4F1C870B8709851A85C6
:100BC0000E5F1F4F1A8709871AE08116910409F0FA
:100BD00044CF29CF2C960FB6F894DEBF0FBECDBF01
:100BE000DF91CF911F910F91FF90EF90DF90CF9009
:100BF000BF90AF909F908F907F906F905F904F903D
:100C00003F902F90089560E073E08FEE94E00E9493
:100C1000B22564EF72E08FEE94E00E94B22565EE9B
:100C200072E08FEE94E00E94B22569EC72E08FEEE4
:100C300094E00E94B22565EA72E08FEE94E00E9493
:100C4000B22562E972E08FEE94E00E94B22564E87A
:100C500072E08FEE94E00C94B225FC0180E05CE839
:100C6000615088F0419198E0742F7827282F30E068
:100C700035952795822F70FF02C0852F82274695D4
:100C8000915091F7EDCF0895FC0120E030E080E035
:100C900090E077FD1BC0DF01A20FB31F4D915C9167
:100CA00084279527A8E0AC015695479580FF06C09C
:100CB000CA01B1E08B27B0EA9B2701C0CA01A1504D
:100CC00091F7615071092E5F3F4FE3CF08958F3F39
:100CD000E1F090917A018A3011F08D3021F4109278
:100CE0007A01892F0895292F30E0415051092417A6
:100CF00035075CF49F5F90937A01FB01E20FF31FCD
:100D00008083FB01E90FF11D10828FEF0895CF92D0
:100D1000DF92EF92FF920F931F93CF93DF93D82E22
:100D2000EA01C0904A028C2D877887FF03C081506A
:100D3000886F8F5FE82EF12C8701000F111F0D5B6C
:100D40001B4FF8018491EE0CFF1C8F3F09F450C03B
:100D50008D2D0E9469039B01AC01F80164918E0105
:100D600086E792E00E94DF038D2D0E9469039B01BC
:100D7000AC01F701EC5BFB4F64918E0186E792E0DA
:100D80000E94DF038C2D992787FD9095019768E0DD
:100D900070E00E9415297C01FF24EE0CFF1C8701E6
:100DA0000D5B1B4FF80180818F3FD1F08D2D0E948C
:100DB0007D039B01AC01F80164918E0186E792E00E
:100DC0000E94DF038D2D0E947D039B01AC01F70182
:100DD000EC5BFB4F64918E0186E792E00E94DF039B
:100DE00044E353E0BE0186E792E00E94BB0425C0C5
:100DF000CC0FDD1FCC0FDD1FF12C80E00E947D03A6
:100E00009B01AC018E016F2D86E792E00E94DF030B
:100E1000F394FAE0FF12F1CF44E353E0BE0186E71A
:100E200092E00E94BB04809175038F5F80937503ED
:100E3000809176038F5F8093760380914A028F5F63
:100E400080934A02DF91CF911F910F91FF90EF9015
:100E5000DF90CF900895DF92EF92FF920F931F9350
:100E6000CF93DF93E82EEA0180914A02803114F09B
:100E700010924A02D0904A028D2D8F78F82E87FF6B
:100E800005C0FA94EF2DE06FFE2EF3940F2D10E0C5
:100E90000D5C1B4FF80184918F3F09F436C08E2DF5
:100EA0000E9469039B01AC01F80164918E0186E701
:100EB00092E00E94DF038D2D992787FD9095019781
:100EC00060E170E00E9415298C0111270D5C1B4F19
:100ED000F80184918F3F61F08E2D0E947D039B016C
:100EE000AC01F80164918E0186E792E00E94DF0375
:100EF000F1101FC0809175038F5F809375038091FF
:100F000076038F5F8093760314C0CC0FDD1FCC0F68
:100F1000DD1FF12C80E00E947D039B01AC018E015E
:100F20006F2D86E792E00E94DF03F394FAE0FF1250
:100F3000F1CF44E353E0BE0186E792E00E94BB0498
:100F400080914A028F5F80934A02DF91CF911F9177
:100F50000F91FF90EF90DF9008959F92AF92BF9214
:100F6000CF92DF92EF92FF920F931F93CF93DF9375
:100F7000F82EEA0180914A028A3014F010924A0257
:100F800090904A028F2D0E9469039B01AC01892D2C
:100F90006AE00E94F328A92EB12CF501E75DFB4F12
:100FA00064918E0186E792E00E94DF038F2D0E94FC
:100FB0007D036B017C01892D992787FD9095019711
:100FC0006AE070E00E9415299927875D9B4FFC011C
:100FD00064918E0115950795A701960186E792E029
:100FE0000E94DF0344E353E0BE0186E792E00E94E3
:100FF000BB04F501E75DFB4F808181110AC0809140
:1010000075038F5F80937503809176038F5F809364
:10101000760380914A028F5F80934A02DF91CF91DD
:101020001F910F91FF90EF90DF90CF90BF90AF9006
:101030009F9008957F928F929F92AF92BF92CF928E
:10104000DF92EF92FF920F931F93CF93DF93782E4F
:10105000EA0180914A028A3014F010924A0290907C
:101060004A02872D0E9469039B01AC01892D6AE029
:101070000E94F328A92EB12CC501875D9B4F5C010E
:10108000FC0164918E0186E792E00E94DF0380E01C
:101090000E947D036B017C01892D992787FD909526
:1010A00001976AE070E00E9415294C019924C4015F
:1010B000875D9B4F4C01FC0164918E01F4E0000FB1
:1010C000111FFA95E1F7A701960186E792E00E94C9
:1010D000DF0344E353E0BE0186E792E00E94BB04D5
:1010E0006AE070E080E090E00E94E826161617069D
:1010F000180619060CF5872D0E947D039B01AC0193
:10110000F50164918E0186E792E00E94DF0380E0A2
:101110000E9469039B01AC01F40164918E01159555
:10112000079586E792E00E94DF0344E353E0BE01A7
:1011300086E792E00E94BB0480914A028F5F809311
:101140004A02809175038F5F8093750380917603C7
:101150008F5F80937603DF91CF911F910F91FF9066
:10116000EF90DF90CF90BF90AF909F908F907F9047
:101170000895CF92DF92EF92FF920F931F93CF9338
:10118000DF93D82EEA01622F84E393E00E946C2162
:1011900080914A028C3014F010924A02C0904A02A8
:1011A0008C2D6CE00E94F328E92EF12C8701000FB2
:1011B000111F0F5E1B4FF8018491EE0CFF1C8F3F37
:1011C00009F452C08D2D0E9469039B01AC01F80106
:1011D00064918E0186E792E00E94DF038D2D0E94CC
:1011E00069039B01AC01F701EE5EFB4F64918E0138
:1011F00086E792E00E94DF038C2D992787FD90956A
:1012000001976CE070E00E94152999278C01000F6E
:10121000111F0F5E1B4FF80124917C01EE0CFF1C87
:101220002F3FD1F08D2D0E947D039B01AC01F80171
:1012300064918E0186E792E00E94DF038D2D0E946B
:101240007D039B01AC01F701EE5EFB4F64918E01C3
:1012500086E792E00E94DF0344E353E0BE0186E7A5
:1012600092E00E94BB0437C0CC0FDD1FCC0FDD1F06
:10127000F12C80E00E947D039B01AC018E016F2D5B
:1012800086E792E00E94DF03F394FAE0FF12F1CFC9
:1012900044E353E0BE0186E792E00E94BB0462E0B3
:1012A00070E080E090E00E94E82620917503620FD4
:1012B000711D811D911D6093750362E070E080E0F7
:1012C00090E00E94E82620917603620F711D811D37
:1012D000911D6093760380914A028F5F80934A024A
:1012E000DF91CF911F910F91FF90EF90DF90CF9002
:1012F00008957F928F929F92AF92BF92CF92DF928A
:10130000EF92FF920F931F93CF93DF93782EEA0112
:10131000622F84E393E00E946C2180914A0288301E
:1013200014F010924A02B0904A028B2D8778982EC2
:1013300087FF05C09A94892D886F982E9394872DE6
:101340000E9469039B01AC01E92CF12CF701EE0F1F
:10135000FF1FEF5FFB4F64918E0186E792E00E94D2
:10136000DF03872D0E9469039B01AC01F701EE0F9B
:10137000FF1FEE5FFB4F64918E0186E792E00E94B3
:10138000DF03872D0E947D036B017C018B2D992744
:1013900087FD9095019768E070E00E9415295C0137
:1013A000BB24F501EE0FFF1FEF5FFB4F64918E0131
:1013B000A701960186E792E00E94DF03872D0E9435
:1013C0007D039B01AC01F501EE0FFF1FEE5FFB4FAC
:1013D00064918E0186E792E00E94DF0344E353E0CC
:1013E000BE0186E792E00E94BB04992019F085E0D7
:1013F00098120DC0809175038F5F8093750385E00F
:10140000981205C0809176038F5F80937603809158
:101410004A028F5F80934A02DF91CF911F910F9113
:10142000FF90EF90DF90CF90BF90AF909F908F9004
:101430007F900895AF92BF92CF92DF92EF92FF928A
:101440000F931F93CF93DF93F82EEA01622F84E36B
:1014500093E00E946C2180914A028A3014F010922D
:101460004A02A0904A028A2D6AE00E94F328B92E0F
:101470008F2D0E9469039B01AC01EB2DF0E0E95038
:10148000FC4F64918E0186E792E00E94DF038F2D6E
:101490000E947D036B017C018A2D992787FD909521
:1014A00001976AE070E00E941529992789509C4FA6
:1014B000FC0164918E01000F111FA701960186E7C0
:1014C00092E00E94DF0344E353E0BE0186E792E02E
:1014D0000E94BB04B1100AC0809175038F5F809396
:1014E0007503809176038F5F8093760380914A0223
:1014F0008F5F80934A02DF91CF911F910F91FF90F0
:10150000EF90DF90CF90BF90AF900895AF92BF92D1
:10151000CF92DF92EF92FF920F931F93CF93DF93BF
:10152000F82EEA01622F84E393E00E946C218091FF
:101530004A02863114F010924A02A0904A028A2D83
:1015400066E10E94F328B92E8F2D0E9469039B014A
:10155000AC01EB2DF0E0EF51FC4F64918E0186E77A
:1015600092E00E94DF038F2D0E947D036B017C01BE
:101570008A2D992787FD9095019766E170E00E947A
:10158000152999278F519C4FFC0164918E01000F02
:10159000111FA701960186E792E00E94DF0344E352
:1015A00053E0BE0186E792E00E94BB04B1100AC07E
:1015B000809175038F5F80937503809176038F5FB1
:1015C0008093760380914A028F5F80934A02DF9175
:1015D000CF911F910F91FF90EF90DF90CF90BF9030
:1015E000AF9008957F928F929F92AF92BF92CF92C9
:1015F000DF92EF92FF920F931F93CF93DF93882E8A
:101600007A01622F84E393E00E946C2160E071E034
:1016100080E090E00E94E826613F98F0633F48F444
:101620006FEF7FEFCB010E94E8266F5F6093480267
:1016300025C080914802813009F181E08093480201
:101640001DC080914802811110924802643050F40C
:1016500062E070E080E090E00E94E826675F6093BF
:1016600049020CC0603851F4809175038F5F8093FC
:101670007503809176038F5F809376036EE184E338
:1016800093E00E946C21670124E0D594C7942A95C9
:10169000E1F7C0E0D0E03AE0A32EB12C4AE0742E8E
:1016A000809149029E01280F311DC901B5010E9498
:1016B0001529982E80914802FE01789EE00DF11DBB
:1016C0001124E155FC4FE491EE2339F0882D0E945E
:1016D00069039B01AC01860106C080E00E947D0386
:1016E0009B01AC018701692D86E792E00E94DF0330
:1016F0002196CA30D105A1F644E353E0B70186E74D
:1017000092E00E94BB0480914A028F5F80934A025C
:10171000DF91CF911F910F91FF90EF90DF90CF90CD
:10172000BF90AF909F908F907F9008958F929F92DF
:10173000AF92BF92CF92DF92EF92FF920F931F93DF
:10174000CF93DF93A82E7A01622F84E393E00E9467
:101750006C2180914A02893014F010924A0260E0B4
:1017600071E080E090E00E94E826611103C01092D1
:1017700047020CC0603851F4909175039F5F9093BD
:101780007503909176039F5F90937603C0E0D0E05D
:101790006AE0C62ED12C79E0872E28E0A29E500167
:1017A0001124809147029E01280F311DC901B60105
:1017B0000E941529982E80914A02682D0E94F328D4
:1017C0003AE0292F2303F0011124EC0FFD1FEB5AFF
:1017D000FC4FE491EE23A1F080917503F0E0E80F57
:1017E000F11DE370FF27EA0DFB1DEE0FFF1FEE0F4B
:1017F000FF1FED5AFB4F259135914591549105C03E
:1018000080E00E947D039B01AC0104E313E0692D9D
:1018100086E792E00E9492032196CA30D10509F032
:10182000C0CF84E393E00E94DD1F44E353E0B7019F
:1018300086E792E00E94BB0480914A028F5F80930A
:101840004A02DF91CF911F910F91FF90EF90DF90AF
:10185000CF90BF90AF909F908F900895BF92CF92FE
:10186000DF92EF92FF920F931F93CF93DF93D82EC7
:101870007A01622F84E393E00E946C216EE170E0B4
:1018800080E090E00E94E826611107C081E080932B
:10189000460283E08093450217C080914502811182
:1018A00007C0613019F4609346020EC010924602E0
:1018B000623051F4809175038F5F8093750380913E
:1018C00076038F5F8093760380914502882351F0E1
:1018D000E82FF0E0E05FFE4F908190934602815048
:1018E00080934502C0E0D0E0EAE0CE2EBC2E80918D
:1018F0004602FE01C89EE00DF11D1124EF5BFC4F76
:10190000E491EE2379F0882321F08D2D0E947D0350
:1019100003C08D2D0E9469039B01AC0104E313E019
:101920006B2D08C080E00E947D039B01AC0104E3A5
:1019300013E06C2F86E792E00E9492032196CA3052
:10194000D105A1F684E393E00E94DD1F44E353E058
:10195000B70186E792E00E94BB0480914A028F5F44
:1019600080934A02DF91CF911F910F91FF90EF90EA
:10197000DF90CF90BF900895DF92EF92FF920F9388
:101980001F93CF93DF93E82EEA016091170184E360
:1019900093E00E946C2180914A028A3014F01092E8
:1019A0004A0280914A0287FF03C08AE080934A027C
:1019B00020914A02822F6AE00E94F328F92E3327F1
:1019C00027FD309580911001281B310987FD339543
:1019D000C9016AE070E00E941529D82E8E2D0E9460
:1019E00069039B01AC018E016F2D86E792E00E9496
:1019F000DF038E2D0E947D039B01AC01000F111FA0
:101A0000000F111F6D2D86E792E00E94DF0344E373
:101A100053E0BE0186E792E00E94BB04F1100AC0C9
:101A2000809175038F5F80937503809176038F5F3C
:101A30008093760360E071E080E090E00E94E82609
:101A4000672B682B692B29F4809110018195809375
:101A5000100180914A0290911001890F80934A02EF
:101A6000DF91CF911F910F91FF90EF90DF9008953C
:101A70006FED71E08FEE94E00E94B2256EE070E0B1
:101A800080E090E00E94E826C62F48EC50E065E731
:101A900072E08C2F0E94BC0C6DED71E08FEE94E033
:101AA0000E94842564EF71E080E090E00E94E826C7
:101AB0000E942622EACF2F923F924F925F926F921E
:101AC0007F928F929F92AF92BF92CF92DF92EF92CE
:101AD000FF920F931F93CF93DF93CDB7DEB760973D
:101AE0000FB6F894DEBF0FBECDBF8A875C834B83F1
:101AF0002D83622F84E393E00E946C219091CC01AE
:101B000081E0892726E0929F2001112466E0869FCC
:101B1000A00111245A834983612C712C0FEF1FEF10
:101B200043535E4F5C874B87A82FB0E0BE87AD87DD
:101B300081E0800F6AE00E94E728292FC8016AE04F
:101B400070E00E9415293CE0389F6001399FD00C5D
:101B50001124C40CD51CA60143535E4F6A01C80171
:101B600002966AE070E00E941529389F7001399F43
:101B7000F00C1124E40CF51CB70163537E4F7B017C
:101B800012017CE0279F200C311C1124C1018353DA
:101B90009E4F1C01AB85BC85A60DB71DB987A887D4
:101BA000188A1F86EF85F889EC0DFD1D80819181D3
:101BB000BC0180E090E00E94CE272AE939E949E99A
:101BC0005EE30E9484284B015C01EF85F889EE0DED
:101BD000FF1D80819181BC0180E090E00E94CE27B2
:101BE0002AE939E949E95EE30E9484289B01AC01B6
:101BF000C501B4010E943A274B015C01EF85F889C9
:101C0000E20DF31D80819181BC0180E090E00E9493
:101C1000CE279B01AC01C501B4010E943A270E9466
:101C2000A22780E090E00E94CE272DEC3CEC4CE017
:101C30005FE30E948428A884B984EF85F889AE0EFA
:101C4000BF1E0E94A227D5016D937C93EF85F88972
:101C50003296F88BEF87369709F0A4CF0F5F1F4FAE
:101C6000FCE06F0E711C0930110509F061CF65E0D1
:101C700070E080E090E00E94E826672B682B692BDB
:101C800059F56AE070E080E090E00E94E826162FA7
:101C90008A850E94690326E04D855E85249FF001B8
:101CA000259FF00D11245CE0159FE00DF11D11241E
:101CB000E353FE4F072F182F292F332700271183B7
:101CC00000839B01222733832283148265838091C2
:101CD00075038F5F8093750369817A8163537E4FAB
:101CE0007B01A12CB12CD12CF701EA0DFB1D8581C4
:101CF00071817F831E82AE81BF819D0140E050E0F3
:101D0000280F311D411D511D838190E0A0E0B0E0FE
:101D1000DC0199278827280F391F4A1F5B1F0B8179
:101D20001C816D2D86E792E00E94DF03D394BCE016
:101D3000AB0EB11CEAE0DE12D7CF6D8184E393E0F5
:101D40000E946C2144E353E06B817C8186E792E042
:101D50000E94BB048091CC0191E089278093CC0143
:101D600060960FB6F894DEBF0FBECDBFDF91CF9166
:101D70001F910F91FF90EF90DF90CF90BF90AF90A9
:101D80009F908F907F906F905F904F903F902F909B
:101D900008953F924F925F926F927F928F929F929F
:101DA000AF92BF92CF92DF92EF92FF920F931F9369
:101DB000CF93DF932B013C01EA016091170184E38B
:101DC00093E00E946C2100E2802E03E0902E86E1D9
:101DD000A82E83E0B82E9AE2C92E93E0D92E24EAE9
:101DE000E22E21E0F22E312CF40131914F01F50168
:101DF00081915F01F60121916F0190E0A0E0B0E0D8
:101E0000BA2FA92F982F8827A32B822BF701819314
:101E10009193A193B1937F0104E313E0A301920195
:101E2000632D86E792E00E9492033394FAE03F121A
:101E3000DBCFC8010E94DD1FB4EAEB2EB1E0FB2E20
:101E4000D12CF70121913191419151917F018E0166
:101E50006D2D86E792E00E94DF03D394FAE0DF1253
:101E6000F0CF44E353E0BE0186E792E0DF91CF91EB
:101E70001F910F91FF90EF90DF90CF90BF90AF90A8
:101E80009F908F907F906F905F904F903F900C94B9
:101E9000BB044F925F926F927F928F929F92AF920C
:101EA000BF92CF92DF92EF92FF920F931F93CF9347
:101EB000DF93B82E7A016091170184E393E00E94CA
:101EC0006C21C0904A028C2D6AE00E94F328A92E52
:101ED000DD24C7FCD0948B2D0E9469039B01AC01CB
:101EE00087016A2D86E792E00E94DF034701880C94
:101EF000991C880C991C8B2D0E947D032B013C01A1
:101F0000C6010197CAE0D0E0BE010E9415298401F4
:101F1000A3019201682F86E792E00E94DF038B2DD8
:101F20000E9469032B013C01C60180959095BE017A
:101F30000E9415298701A3019201682F86E792E08C
:101F40000E94DF038B2D0E947D032B013C0188271B
:101F500099278C199D09BE010E9415298401A301AE
:101F60009201682F86E792E00E94DF0344E353E08A
:101F7000B70186E792E00E94BB04A11049C080919E
:101F800075038F5F80937503809176038F5F8093D5
:101F900076036AE070E080E090E00E94E826672B1C
:101FA000682B692BA9F124EF31E040E050E06AEFA3
:101FB00070E080E090E00E940C276B017C018B2D8B
:101FC0000E946903A6010E94C90E809175038F5F6C
:101FD0008093750320ED37E040E050E068EE73E059
:101FE00080E090E00E940C276B017C018B2D0E9409
:101FF0006903A6010E94C90E809175038F5F8093CB
:1020000075038B2D0E9469034CED55E00E94C90EAB
:1020100080914A028F5F80934A02DF91CF911F9196
:102020000F91FF90EF90DF90CF90BF90AF909F9077
:102030008F907F906F905F904F9008950F931F93B4
:102040008C0180910D0191E0892780930D01909181
:10205000A3012FEF290F223060F4882329F02FEFFE
:102060003FEF4FEF50E003C020E030E0A90164E013
:102070000FC0933089F4882329F02FEF30E840E82F
:1020800050E004C02FEF30E040E050E060910E01DE
:1020900086E792E00E94DF031F910F910895FF925F
:1020A0000F931F93CF93DF93F82EEB018B0120E06A
:1020B00030E0A90160910F0186E792E00E94DF0302
:1020C00020910F018F2D992787FD9095820F911DEB
:1020D00027FD9A956AE070E00E94152987FD89E046
:1020E00080930F018E0120E03FEF4FEF50E06091B1
:1020F0000F0186E792E00E94DF03DF91CF911F91ED
:102100000F91FF900895BF92CF92DF92EF92FF92CE
:102110000F931F93CF93DF93B82E6A017B01E901E0
:10212000890120E030E0A90160910E0186E792E08C
:102130000E94DF0320910E018B2D992787FD90953A
:10214000820F911D27FD9A956AE070E00E94152983
:1021500087FD89E080930E018E01A70196016091B1
:102160000E0186E792E00E94DF03DF91CF911F917D
:102170000F91FF90EF90DF90CF90BF900895DF9286
:10218000EF92FF920F931F93CF93DF93EA01622F99
:1021900084E393E00E946C218091A301823009F4D2
:1021A0004EC028F4882351F08130B1F188C08330CB
:1021B00009F458C0843009F477C081C085E0809369
:1021C0000F017E01EE0CFF1CEE0CFF1CD12C8701D1
:1021D0002FEF3FEF4FEF50E06D2D86E792E00E942A
:1021E000DF03D394D3948AE0D812F1CF20E03FEFFD
:1021F0004FEF50E060910F0186E792E00E94DF030D
:10220000BE01660F771F6C0F7D1F44E353E086E726
:1022100092E00E94BB040DC060E070E081E00E948B
:102220004F1080910F01883009F049C085E08093FC
:102230000E018091A3018F5F8093A30140C060E0F5
:1022400070E081E00E944F1020E030E040E05FEF5E
:1022500060E070E081E00E94831080910F01843083
:1022600071F5E7CF60E070E08FEF0E944F1020E043
:1022700030E04FEF50E060E070E08FEF0E9483109D
:1022800080910E018430D9F48091A3018F5F8093F7
:10229000A30100E010E020E030E0A90164E086E75F
:1022A00092E00E94DF030BC060E070E08FEF0E94BD
:1022B0004F1080910F01853011F41092A30180E03E
:1022C00090E00E941E10D595C79544E353E0BE01EF
:1022D00086E792E00E94BB0480E090E00E941E101E
:1022E00044E353E0BE0186E792E0DF91CF911F9176
:1022F0000F91FF90EF90DF900C94BB04BF92CF92B0
:10230000DF92EF92FF920F931F93CF93DF93C82E2C
:10231000EA016091170184E393E00E946C218091AF
:102320004A02823014F010924A0280914A02D12C63
:1023300080FF21C0F12CB3E0CC0CDD1CBA95E1F795
:10234000809175038370F601E80FF11DEE0FFF1FFA
:10235000EE0FFF1FED5AFB4F25913591459154919A
:102360008E016F2D86E792E00E94DF03F3948AE0EE
:10237000F812E6CF2EC07E01EE0CFF1CB12CF3E06C
:10238000CC0CDD1CFA95E1F7E0917603E370F0E008
:102390003496EC0DFD1DEE0FFF1FEE0FFF1FED5AE3
:1023A000FB4F259135914591549187016B2D86E71F
:1023B00092E00E94DF03B3948AE0B812E5CF8091E7
:1023C00075038F5F80937503809176038F5F809391
:1023D000760344E353E0BE0186E792E00E94BB042B
:1023E00080914A028F5F80934A02DF91CF911F91C3
:1023F0000F91FF90EF90DF90CF90BF9008950F93D3
:102400001F93CF93DF9380E090E00E946503182F25
:1024100067E771E08FEE94E00E9484254AE050E087
:10242000612F8FEE94E00E94A3266AE671E08FEEA2
:1024300094E00E94B225143138F181E090E00E94CE
:102440006503C82F82E090E00E946503D0E0DC2F96
:10245000CC27C82B612F70E0615071098DE492E0A8
:102460000E944406C817D90759F16DE571E08FEE57
:1024700094E00E94842540E150E0BE018FEE94E09C
:102480000E94BA2680E02AC0CDE4D2E000E0011725
:10249000A1F240E150E0602F8FEE94E00E949C2674
:1024A00066E671E08FEE94E00E948425699179914F
:1024B00040E150E08FEE94E00E94BA260F5FE7CF34
:1024C00065E571E08FEE94E00E94842540E150E0E4
:1024D000BE018FEE94E00E94BA2681E0DF91CF9199
:1024E0001F910F910895BF92CF92DF92EF92FF92CA
:1024F0000F931F93CF93DF9380E090E00E946503DA
:10250000C82FD0E0C431D1050CF043C03DE4E32E28
:1025100032E0F32E00E010E00C171D07B0F4680164
:10252000CC0CDD1CC6010B960E946503B82EC601BB
:102530000A960E9465032B2D30E0382BF70121937A
:1025400031937F010F5F1F4FE7CF81E090E00E9442
:102550006503082F82E090E00E94650310E0102FD1
:102560000027082BBE01615071098DE492E00E94A2
:1025700044060817190781F06CE471E08FEE94E0CF
:102580000E94842540E150E0B8018FEE94E00E9463
:10259000BA2680E090E001C0CE01DF91CF911F917B
:1025A0000F91FF90EF90DF90CF90BF900895CF9361
:1025B000DF9384E393E00E94591F6EE184E393E08C
:1025C0000E946C21C0E0D0E020E030E0A901BE0113
:1025D00084E393E00E94FE202196CA30D105A1F742
:1025E00084E393E00E94DD1F26E040E052EC61E0CE
:1025F00070E08FEE94E00E943F244AE050E060E0FB
:1026000070E08FEE94E00E94E2264CE251E060E040
:1026100070E085E593E00E94721C85E593E00E94DE
:10262000D81A60E089E00E94FD2262E088E00E9402
:10263000C42262E082E00E94C4220E94731280934E
:102640004C021092490310924A0310924B031092CD
:102650004C0361ED71E08FEE94E00E94842560915F
:102660004C02772767FD70954AE050E08FEE94E0CA
:102670000E94772662EB71E08FEE94E00E94B22513
:1026800061E083E10E94C422C3E0D0E061E083E125
:102690000E94FD2264E670E080E090E00E94262225
:1026A00060E083E10E94FD2264E670E080E090E05B
:1026B0000E942622219751F7DF91CF9108956F92C2
:1026C0007F928F929F92AF92BF92CF92DF92EF92C2
:1026D000FF920F931F93CF93DF933C01C62E80E0B0
:1026E00090E00E9465038C1529F06C2D80E090E04D
:1026F0000E946703C62DD72D00E010E0D12C0C15E9
:102700001D0530F55801AA0CBB1C45018AE0880E56
:10271000911CC4010E946503E980F12C90E08E15A4
:102720009F0521F06E2DC4010E9467038BE0A80E67
:10273000B11CC5010E9465036991799190E08617EB
:10274000970719F0C5010E9467030F5F1F4FD7CF8E
:10275000B60161507109C3010E944406EC016D2F5E
:1027600081E090E00E9467036C2F82E090E00E947D
:10277000670368E371E08FEE94E00E94842540E1F6
:1027800050E0BE018FEE94E0DF91CF911F910F9149
:10279000FF90EF90DF90CF90BF90AF909F908F9081
:1027A0007F906F900C94BA26CF93DF93D82FC92FC8
:1027B000E82FF92F20E030E050E0261748F4B22F40
:1027C000AA27A42BB52BA193B1932F5F3F4FF5CF31
:1027D00060934C0260E371E08FEE94E00E948425E8
:1027E00060914C02772767FD70954AE050E08FEECC
:1027F00094E00E946F266FE171E08FEE94E00E94FA
:10280000B22560914C028D2F9C2FDF91CF910C94BB
:102810005F138AE090E00E946503682F60958AE06C
:1028200090E00E9467030E94731248EE53E060E05C
:1028300070E08FEF90E00C94C90E482F862F50E087
:102840004031510508F071C0FA01EC5CFF4F0C9467
:102850006A2948EC50E065E772E00C94BC0C2EE16C
:1028600044E650E065E772E00C94AD072EE142E3E8
:1028700050E065E772E00C941A082EE148EC50E055
:1028800065E772E00C94B9082EE148EC50E065E78A
:1028900072E00C9479092EE14EE551E065E772E0B3
:1028A0000C941A0A2EE144E650E065E772E00C94BD
:1028B000860A2EE148EC50E065E772E00C9487064A
:1028C0002EE146E950E065E772E00C942B072EE11B
:1028D0004CE251E065E772E00C94F20A26E944E626
:1028E00050E065E772E00C945B0D2EE148EC50E09F
:1028F00065E772E00C942E0C2EE148E250E065E7AB
:1029000072E00C94960B2EE144EF51E065E772E023
:102910000C94BF1046E450E065E772E00C94490F58
:102920004CE251E060E00E947E110895EF92FF9228
:102930000F93E12CF12C01E020E049E068E085E50F
:1029400093E00E94361C22E530E047E06AE070E048
:1029500084E393E00F91FF90EF900C94D62084E3F2
:1029600093E00E94451F85E593E00C94E71CFF92DD
:102970000F931F93CF93DF9366E672E08FEE94E0A0
:102980000E94B2258FEE94E00E94752346E050E04D
:1029900061E871E00E94670687FDF4CF81E891E06D
:1029A0000E94162BF82E83E18F1508F46AC064E5A7
:1029B00072E08FEE94E00E94B2258FEE94E00E94C8
:1029C000752346E050E061E871E00E94670687FDEC
:1029D000F4CF81E891E00E94162B182F803108F087
:1029E00050C061E472E08FEE94E00E94B2258FEE59
:1029F00094E00E94752346E050E061E871E00E9497
:102A0000670687FDF4CF81E891E00E94162B8E3097
:102A1000B8F5D12F90E0C92FC82B62E372E08FEE9A
:102A200094E00E9484250F2D112707FD10954AE0A0
:102A300050E0B8018FEE94E00E946F266DE272E0E4
:102A40008FEE94E00E94842540E150E0BE018FEEBD
:102A500094E00E94BA26F801EE0FFF1FE35BFD4FE2
:102A6000D183C08361E06F0D60934C028DE492E0EE
:102A70000E945F1320914C02332727FD309503C03D
:102A800003C02FEF3FEFC901DF91CF911F910F914D
:102A9000FF9008956AEF71E08FEE94E00E94B225F6
:102AA0008FEE94E00E94752346E050E06BE771E002
:102AB0000E94670687FDF4CF8BE791E00E94162BFA
:102AC0008E3048F4482F60E18DE492E00E94D413E8
:102AD0000C940000089567EE71E08FEE94E00E9480
:102AE000B2258FEF9FEF08958FEE94E00E9475233B
:102AF00044E050E067E871E00E9467068F3F09F408
:102B000074C06BE373E08FEE94E00E94842567E865
:102B100071E08FEE94E00E94C42568E171E087E8DF
:102B200091E00E943B2B892B11F40C94B71462E7BF
:102B300071E087E891E00E943B2B892B11F40C9403
:102B40004A156AE171E087E891E00E943B2B892BEE
:102B500011F40E94380D6CE171E087E891E00E9469
:102B60003B2B892B19F40E9403063FC06EE171E0F4
:102B700087E891E00E943B2B892BD9F480E090E01C
:102B80000E946503853118F40E94FF112EC065E292
:102B900073E08FEE94E00E94842560914C027727C9
:102BA00067FD70954AE050E08FEE94E00E94772632
:102BB0001CC060E271E087E891E00E943B2B892B0A
:102BC00019F40E94091411C062E271E087E891E0F3
:102BD0000E943B2B892B19F40C94000006C065E180
:102BE00073E08FEE94E00E94B2258FEF9FEF08957F
:102BF0000F931F93CF93DF93D1E085E593E00E947D
:102C0000B11A892B09F45DC085E593E00E94C119D2
:102C1000C82F40E150E0682F8FEE94E00E94A32679
:102C2000CF3F51F410920C01D0939C0163EA71E004
:102C30008FEE94E00E94B22580910C01853040F522
:102C4000E82FF0E0E256FE4FC0838F5F80930C01C7
:102C5000853099F664E08EE991E00E942D06C81354
:102C600014C081E080939D010E94F72168577C4E3B
:102C70008F4F9F4F609398017093990180939A01B1
:102C800090939B0180919F011DC06BE971E014C07E
:102C90000E94F721009198011091990120919A01C9
:102CA00030919B01061717072807390708F0A5CFB1
:102CB00010929D0169E871E08FEE94E00E94B225C8
:102CC0009CCF80E0DF91CF911F910F910895CF931A
:102CD000DF932FEF2093940120E1209395019093AF
:102CE000960180939701C4E9D1E0688185E593E07E
:102CF0000E94FC19892BC9F344E353E062E070E0C1
:102D000086E792E00E94BB04219681E0C839D8078B
:102D100061F764E084E991E00E942D06682F85E563
:102D200093E00E94FC19892BA1F3DF91CF910895C4
:102D3000CF93DF932FEF2093940127E22093950107
:102D40009093960180939701C4E9D1E0688185E56D
:102D500093E00E94FC19892BC9F344E353E062E03D
:102D600070E086E792E00E94BB04219681E0C839BA
:102D7000D80761F764E084E991E00E942D06682F8E
:102D800085E593E00E94FC19892BA1F3DF91CF9197
:102D90000895CF92DF92EF92FF926CEA70E08FEE8F
:102DA00094E00E94B2251092490310924A031092B7
:102DB0004B0310924C0380910A01882309F4DBC075
:102DC00060910B0180918F010E941D140E94F815E3
:102DD000C0908B01D0908C01E0908D01F0908E011D
:102DE0000E94F721C616D706E806F906B0F444E6B5
:102DF00050E06FEF7FEF8FEF90E00E94C90E0E94CE
:102E0000F72168517C4F8F4F9F4F60938B017093D8
:102E10008C0180938D0190938E0160914903709194
:102E20004A0380914B0390914C0361157105810514
:102E3000910509F20E94CE276B017C0120E034E26B
:102E400044E759E40E949E2787FF1FC080918F01AD
:102E500090E001968F70992780938F016EE070E06B
:102E600080E090E00E94E82660930B0162EA70E047
:102E70008FEE94E00E9484254AE050E060918F013B
:102E80008FEE94E00E94A3268ECF20E034E244E748
:102E900059E4C701B6010E94802887FD40C020E8A0
:102EA00036E948E95AE4C701B6010E949E2787FF28
:102EB00036C0E0908F01F12CFE2CEE2480910B01A6
:102EC000E82A1092490310924A0310924B03109281
:102ED0004C034091490350914A0360914B03709118
:102EE0004C03452B462B472B09F05DCFC7010E94B1
:102EF000981666E970E08FEE94E00E94842540E128
:102F000050E0B7018FEE94E00E94BA2644EF51E002
:102F100060E07FEF80E090E00E94C90EDACF20E809
:102F200036E948E15BE4C701B6010E94802887FDCD
:102F30000DC020EC31EE44EE5BE4C701B6010E9407
:102F40009E2787FF03C010920A012DCF68E870E02A
:102F50008FEE94E00E9484254091490350914A03EA
:102F600060914B0370914C032AE030E08FEE94E0C7
:102F70000E94D02618CFFF90EF90DF90CF90089559
:102F8000CF9364E271E08FEE94E00E94C425C431D7
:102F900008F56FEF85E593E00E94FC19892BC9F3D2
:102FA00044E353E06AE070E086E792E00E94BB04ED
:102FB00080919C01882361F010929C0144EF51E0C4
:102FC00060E07FEF80E090E00E94C90ECF5FDFCF2E
:102FD000CF5FE6CFCF910895CF92DF92EF92FF922D
:102FE0000F931F9380914C021816ECF50E94F72165
:102FF00000919001109191012091920130919301E3
:10300000061717072807390710F580914D02909190
:103010004E020E9467160E94F7216B017C0168EE48
:1030200073E080E090E00E94E8269701860100535B
:10303000184F2F4F3F4F060F171F281F391F0093A0
:103040009001109391012093920130939301E091AC
:103050004B02F0E0EE0FFF1FE35BFD4F60818181CB
:103060000E941D1437C06FEF7FEF8FEF90E00E943A
:10307000E82620E1209376028B019C0141E1369500
:103080002795179507954A95D1F70F7700938A02F0
:103090000093A802009320038B019C0159E0369510
:1030A0002795179507955A95D1F70F7700938002CA
:1030B00000939E0200931603DC01CB01B695A79501
:1030C00097958795682F6F77609394026093B2020B
:1030D00060932A030E94F815882309F479C00091AF
:1030E000A00110E0102F00279091A101092B803141
:1030F00009F048C080914C02992787FD909540E0E7
:10310000E42FF0E0E817F9071CF5EE0FFF1FE35B73
:10311000FD4F2081318120173107C1F410929D01AC
:103120006CE071E08FEE94E00E94842540E150E075
:10313000B8018FEE94E00E94BA2644EF51E06FEFA1
:1031400070E080E090E00E94C90E02C04F5FD8CFCF
:1031500080919D018823E1F148EE53E06FEF7FEF0E
:103160008FEF90E00E94C90E60E071E08FEE94E076
:103170000E94842540E150E0B8018FEE94E00E9467
:10318000BA2626C0873221F548EE53E06FEF70E093
:1031900080E090E00E94C90E81E080934C02109381
:1031A0004E0200934D026EEE70E08FEE94E00E94AE
:1031B000842540E150E0B8018FEE94E00E94BA26E9
:1031C00060914C028DE492E00E945F1310924B02DA
:1031D00044E353E060E070E086E792E00E94BB04C5
:1031E0006091490370914A0380914B0390914C0385
:1031F000611571058105910509F4B5C00E94CE27BE
:103200006B017C0120E034E244E759E40E949E27F0
:1032100087FF75C080919D01811131C080914B0263
:1032200090E0019660914C02772767FD70950E94AF
:10323000152980934B026AED70E08FEE94E00E94B6
:1032400084254AE050E060914B028FEE94E00E94AA
:103250009C2666ED70E08FEE94E00E948425E0915C
:103260004B02F0E0EE0FFF1FE35BFD4F60817181C9
:1032700040E150E08FEE94E00E94BA266CC080914D
:103280009F018031E1F520914C02E22FEE0FFF0B00
:10329000E35BFD4F8091A00190E0982F882730914B
:1032A000A101832B9183808320934B0262EC70E019
:1032B0008FEE94E00E948425E0914C02EE0FFF0B0C
:1032C000E35BFD4F6081718140E150E08FEE94E05F
:1032D0000E94BA2660914C026F5F60934C028DE4AD
:1032E00092E00E945F1380914C0285311CF084E1D2
:1032F00080934C0210929D010E94C0172CC020E8C0
:1033000036E948E15BE4C701B6010E94802887FDE9
:103310000DC020EC31EE44EE5BE4C701B6010E9423
:103320009E2787FF03C00E94C91615C020EC31EE0E
:1033300044EE5BE4C701B6010E94802887FD0BC004
:1033400020EC31EE44EE5CE4C701B6010E949E27FA
:1033500087FD0E9409141092490310924A031092AB
:103360004B0310924C030E9474151816190614F49E
:1033700080934C021F910F91FF90EF90DF90CF90C0
:103380000895209125043091260428173907B9F4AF
:103390009091E3038091E403981789F0E091E303AF
:1033A000F0E0EB51FC4F80812091E30330E02F5F90
:1033B0003F4F2F7333272093E30390E008958FEF5F
:1033C0009FEF08952091250430912604281739078E
:1033D00081F49091E3038091E403981751F0E09118
:1033E000E303F0E0EB51FC4F8081992787FD909536
:1033F00008958FEF9FEF089580919A03811173C014
:103400001092970388EC80938A0382E38093890368
:1034100080E190E039E122E346E9DC01A858BC4FA5
:10342000EFEFE80F67FF02C04C9301C03C93F0E060
:10343000E858FC4F2083660F029779F782E180936A
:103440007703809180008093940380918100809322
:1034500093038091840090918500909392038093D0
:1034600091038091880090918900909390038093BC
:103470008F03809186009091870090938E038093B4
:103480008D0380916F0080938C03809180008873FE
:1034900082688093800080918100807E8961809322
:1034A0008100109285001092840082ED90E090934C
:1034B00089008093880085EA91E09093870080934B
:1034C0008600609396036093950389E08093970349
:1034D00081E080939A0380916F00846080936F00F5
:1034E00081E090E0089580E090E008952091250427
:1034F000309126048217930789F53091A10320911A
:10350000A203321759F12091A2034091E30330E066
:103510002F5F3F4F2F73332750E024173507B9F043
:10352000E091A203F0E0ED55FC4F60832091A203EF
:1035300030E02F5F3F4F2F7333272093A203DC012E
:10354000ED91FC910484F585E02D099504C0FC0102
:10355000258D2260258F80E090E008958FEF9FEF0A
:10356000089520912504309126042817390771F415
:103570008091E4032091E30390E0805C9F4F821BE5
:10358000910960E470E00E941529089580E090E0C0
:10359000089520912504309126042817390739F41D
:1035A0008FB7F8941092E4031092E3038FBF08954D
:1035B000209125043091260428173907B1F0FC0129
:1035C000258D2E7F2D7F258F2FB7F8941092E40341
:1035D0001092E3031092A2031092A1039093260489
:1035E000809325042FBF81E0089580E008950F9314
:1035F0001F93CF93DF93EC010E94032200919D0360
:1036000010919E0320919F033091A00340919A0353
:10361000442319F010929B0368C0EE85FF8540811A
:103620005D85452309F459C09B01201B310B409156
:103630009B03411111C0273931050CF44EC028E21B
:103640003AE0309399032093980310929C0328E06A
:1036500020939B031E8E41C040919C03440F4093D6
:103660009C0340919B03415040939B0340919803DE
:10367000509199034217530728F420919C0321602D
:1036800020939C0320919B03211127C020919C0330
:103690002F8F21E02E8F2091E4034091E30330E04F
:1036A0002F5F3F4F2F73332750E02417350791F0DA
:1036B000E091E40320919C03F0E0EB51FC4F208368
:1036C0002091E40330E02F5F3F4F2F733327209387
:1036D000E40303C02D8D21602D8F60939D037093B3
:1036E0009E0380939F039093A003DF91CF911F913E
:1036F0000F9108958091250490912604009711F070
:103700000C94F71A08951F920F920FB60F9211247E
:103710002F933F934F935F936F937F938F939F93D9
:10372000AF93BF93EF93FF930E947A1BFF91EF91AA
:10373000BF91AF919F918F917F916F915F914F91C9
:103740003F912F910F900FBE0F901F9018951F92D1
:103750000F920FB60F9211242F933F934F935F93C5
:103760006F937F938F939F93AF93BF93EF93FF9349
:103770000E947A1BFF91EF91BF91AF919F918F9122
:103780007F916F915F914F913F912F910F900FBE5D
:103790000F901F9018951F920F920FB60F92112441
:1037A0002F933F934F935F936F937F938F939F9349
:1037B000AF93BF93EF93FF930E947A1BFF91EF911A
:1037C000BF91AF919F918F917F916F915F914F9139
:1037D0003F912F910F900FBE0F901F9018951F9340
:1037E000CF93DF93EC01162F61E0812F0E94C4225A
:1037F00061E0812F0E94FD22812F90E0FC01E95DB4
:10380000F94FE491E88BFC01E55CF94FE491F0E0BD
:10381000EE0FFF1FE75AF94F859194919A8B898B90
:10382000DF91CF911F9108951F93CF93DF93EC0108
:10383000162F60E0812F0E94C4221C87612F70E048
:10384000FB01E95DF94FE491ED87FB01E55CF94F80
:10385000E491F0E0EE0FFF1FE15BF94F8591949149
:103860009F878E87DF91CF911F910895CF92DF922E
:10387000EF92FF920F931F93CF93DF93EC01162FDC
:10388000C7011B821A8238EEC32E33E0D32EE12CFF
:10389000F12CCC82DD82EE82FF82EBE3F1E0F98352
:1038A000E8831C8A1B8A1E8A1D8A188E1F8A1A8E1C
:1038B000198E9C8F8B8F8D8D8C7F20FB82F900FB66
:1038C00083F98D8F642FCE010E94EF1B612FCE01F3
:1038D000DF91CF911F910F91FF90EF90DF90CF90EC
:1038E0000C94141CFC012485263108F03FC0409143
:1038F0006800283050F031E02E3008F430E021E04C
:1039000001C0220F3A95EAF701C024E0242B20934E
:103910006800FC014485483038F04E3040F04631B4
:1039200048F0E0E0F0E008C0EDE6F0E005C0EBE6CE
:10393000F0E002C0ECE6F0E05081483030F421E0E5
:1039400001C0220F4A95EAF70FC0242F30E04E3015
:1039500018F42850310902C02E50310931E001C05D
:10396000330F2A95EAF7232F252B20830C94D81A9E
:10397000FC014485463150F5483028F04E3030F493
:10398000EBE6F0E005C0EDE6F0E002C0ECE6F0E0CA
:103990005081483040F481E090E0042E01C0880F4F
:1039A0000A94EAF710C0242F30E04E3018F4285063
:1039B000310902C02E50310981E090E0022E01C091
:1039C000880F0A94EAF780958523808308952BE376
:1039D00031E0FC01318320830C94B81C1F920F92BC
:1039E0000FB60F9211240F900FBE0F901F901895D5
:1039F0001F920F920FB60F9211248F939F93EF9304
:103A0000FF93F894809177038823D9F0E0917703AE
:103A1000F0E0E858FC4F808181508083E09177038B
:103A2000F0E0E858FC4F8081811135C08091800022
:103A30008058809380008091770381508093770332
:103A40002AC080919A03882331F180918C0380935E
:103A50006F00809194038093800080919303809302
:103A600081008091910390919203909385008093BF
:103A7000840080918F0390919003909389008093AC
:103A8000880080918D0390918E039093870080939E
:103A9000860010929A03FF91EF919F918F910F9062
:103AA0000FBE0F901F9018958091560490E02091C2
:103AB0005704821B91090895209157048091560460
:103AC000281750F4E22FF0E0E85AFB4F808190E095
:103AD0002F5F2093570408958FEF9FEF0895E09193
:103AE000570480915604E81730F4F0E0E85AFB4F91
:103AF000808190E008958FEF9FEF08950895CF9211
:103B0000DF92EF92FF920F931F93CF93DF937C018D
:103B1000CB018A0120913304222389F0EB016B0150
:103B2000C40ED51ECC15DD0569F06991D701ED9164
:103B3000FC910190F081E02DC7010995F3CF642F2E
:103B40000E94EF1DC801DF91CF911F910F91FF904F
:103B5000EF90DF90CF900895CF93DF931F92CDB772
:103B6000DEB76983209133042223D1F020913404FD
:103B7000203240F021E030E0FC013383228380E0FA
:103B800090E015C080913504E82FF0E0EA5CFB4F2F
:103B9000998190838F5F809335048093340405C0AE
:103BA00061E0CE0101960E94EF1D81E090E00F9050
:103BB000DF91CF910895FC011382128248EE53E009
:103BC00060E070E044835583668377838DE491E001
:103BD00091838083089587E294E00C94DB1D613229
:103BE00098F42091E504243089F460939A04FC0150
:103BF0008CE994E0DC012A2F281B261718F4219168
:103C00002D93F9CF80E0089581E0089582E0089532
:103C100085ED8093BC008091BC0084FDFCCF1092A8
:103C2000E504089585EC8093BC001092E5040895A6
:103C30001F920F920FB60F9211242F933F934F9321
:103C40005F936F937F938F939F93AF93BF93EF9304
:103C5000FF938091B900887F803609F49EC078F583
:103C6000883209F45DC090F4803109F456C038F40C
:103C7000882309F4F5C0883009F44FC0F5C08831B5
:103C800009F44EC0803209F45FC0EEC0803409F4FC
:103C90006AC058F4803309F457C0883309F0E4C08F
:103CA000809378040E94121EDFC0803509F44FC053
:103CB000883509F45DC0883409F0D6C0D3C088398E
:103CC00009F4C4C0A8F4883709F467C038F488360A
:103CD00009F463C0803709F460C0C6C0883809F4AD
:103CE000B5C0803909F45FC0803809F0BDC05BC041
:103CF000803B09F483C038F4803A09F466C0883AFE
:103D000009F47CC0B1C0803C09F4A4C0883C09F42B
:103D1000A1C0883B09F487C0A7C08091E40410C00B
:103D20009091BD048091BC04981770F5E091BD049A
:103D300081E08E0F8093BD04F0E0E254FB4F808160
:103D40008093BB0085EC83C0809378048BC0E091A6
:103D5000BD0481E08E0F8093BD048091BB00F0E034
:103D6000E254FB4F80839091BD048091BC046BC0F2
:103D7000E091BD0481E08E0F8093BD048091BB0073
:103D8000F0E0E254FB4F80838091E30481116AC02C
:103D900081E08093E20484EA5EC083E08093E504DE
:103DA00010927904CFCF80917904803208F04EC010
:103DB000E091790481E08E0F809379048091BB00BB
:103DC000F0E0E658FB4F8083BDCF0E94121E809129
:103DD0007904803230F4E0917904F0E0E658FB4F4A
:103DE00010826091790470E0E091DE04F091DF04CC
:103DF0008AE794E009951092790436C084E08093B4
:103E0000E50410929B0410929A04E091E004F09172
:103E1000E104099580919A04811105C081E08093A5
:103E20009A0410929C04E0919B0481E08E0F809391
:103E30009B04F0E0E456FB4F80818093BB0090919F
:103E40009B0480919A04981708F47CCF85E88093AE
:103E5000BC000AC085EC8093BC001092E50404C04D
:103E6000109278040E94081EFF91EF91BF91AF91CC
:103E70009F918F917F916F915F914F913F912F9182
:103E80000F900FBE0F901F901895CF93DF93EC010A
:103E900088859985009711F00E942A2A8E8187FDD6
:103EA00005C060E0DF91CF910C94C422DF91CF91E7
:103EB0000895CF93DF93EC018E8187FD07C061E009
:103EC0000E94C42260E08E810E94FD2281E08983ED
:103ED000DF91CF910895EF92FF920F931F93CF93AD
:103EE000DF93EC017B0188859985009711F00E9492
:103EF0002A2A9D858A85981303C083E090E002C03A
:103F000084E090E08E9D80018F9D100D9E9D100D90
:103F100011241D830C83C8010E94922999878887E8
:103F2000009741F0A80160E070E00E94342BFB8212
:103F3000EA8204C01D821C821B821A82DF91CF910B
:103F40001F910F91FF90EF900895FC0121E095855E
:103F50008285981320E0CB0136E0969587953A95B7
:103F6000E1F7482F43704587CB0154E0969587953C
:103F70005A95E1F7382F33703287CB0196958795A4
:103F80009695879583708387862F8370848781E0D9
:103F90006F3F710511F008F080E080838085918586
:103FA000892B51F091E0431390E0921729F0628140
:103FB0007381CF010C946B1F0895CF92DF92EF9223
:103FC000FF920F931F93CF93DF93CDB7DEB729975F
:103FD0000FB6F894DEBF0FBECDBF8C01DC01189682
:103FE0008D919C911997892B09F49FC00E940322FF
:103FF000F801C684D784E088F1886C197D098E09A0
:104000009F096C3271408105910580F3F894D801C5
:1040100014968D919C9115979A83898318960D908B
:10402000BC91A02D7D01EFEFEE1AFE0A8C918987DD
:10403000D8019C9152960D90BC91A02DF8018489D5
:10404000992309F42EC09C91982B98879C91809578
:1040500089238F838F818E8388E08D8358856F813C
:1040600049853D812E8189819A81F7015C9347FDC5
:10407000252F3A952C93262F39F0441F00C00000BD
:104080006C93000000C0F2CF38E041916C930000C7
:10409000019761F7F801B38BA28B49873D832E838B
:1040A00038C09C91982B98879C91809589238F8309
:1040B0008F818C8388E08B8358856F8149853B8114
:1040C0002C8189819A81F7015C9347FD252F00C0DF
:1040D00000C02C9300C000C000C000C000C06C93A2
:1040E0000000262F3A9541F0441F000000C000C098
:1040F00000C000C000C0E8CF38E0419100C06C9320
:1041000000C0019709F7F801B38BA28B49873B8365
:104110002C839A83898378940E940322D8011E9667
:104120006D937D938D939C93519729960FB6F89438
:10413000DEBF0FBECDBFDF91CF911F910F91FF90DA
:10414000EF90DF90CF9008951F93CF93DF93EC0112
:10415000162F8981882331F08E8187FD03C060E0AE
:104160000E94C4221E838981882341F061E0812F4F
:104170000E94C42260E0812F0E94FD22812F90E0E6
:10418000FC01E55CF94FE491F0E0EE0FFF1FE75A08
:10419000F94F259134913B8B2A8BFC01E95DF94F56
:1041A00084918C8BDF91CF911F910895EF92FF92B4
:1041B0000F931F93CF93DF931F92CDB7DEB77C0190
:1041C0008B01FC01118217821186108616861786D4
:1041D000108A118AB90149830E94A51FB801C7013D
:1041E0000E946B1F4981642FC7010F90DF91CF910F
:1041F0001F910F91FF90EF900C94A420CF92DF922B
:10420000EF92FF920F931F93CF93DF93FC01828174
:1042100093816817790708F04DC0CA01AA27BB2708
:10422000182FC32ED42EE52EFF24DC2DC22F07819C
:10423000002361F0809FC0011124192FC09E6001EE
:104240001124DD2D209FC0011124C92FF584828502
:10425000A085B185F81208C0CB01880F991F860F81
:10426000971F8A0F9B1F17C0CB01880F991F880FBC
:10427000991F8A0F9B1F452F552766277727DC013B
:10428000AF0DB11D002329F0409F90011124232F71
:1042900001C0242F2C932285DC01A20FB11D1C9399
:1042A0002385DC01A20FB11DDC932485FC01E20F04
:1042B000F11DC083DF91CF911F910F91FF90EF907F
:1042C000DF90CF900895962F50E060E070E0592B7A
:1042D000682BCB01BA010895FF920F931F93CF93E0
:1042E000DF93EC01FF24F394F60E2F81F21679F19F
:1042F000088519852150B9F06F3F59F430E040E04E
:1043000050E06FEF7FEF80E090E00E944B29B90111
:104310000CC08F2D90E0982F88270197622F70E0B6
:104320000E94012902C060E070E0F8018C819D814B
:10433000AF01401B510B4817590740F44081469F7D
:10434000C001479F900D11249193F0CFFF82DF9120
:10435000CF911F910F91FF9008951F920F920FB66A
:104360000F9211242F933F938F939F93AF93BF93FB
:104370008091E7049091E804A091E904B091EA04E7
:104380003091E60423E0230F2D3720F40196A11D80
:10439000B11D05C026E8230F0296A11DB11D209373
:1043A000E6048093E7049093E804A093E904B093B3
:1043B000EA048091EB049091EC04A091ED04B0919B
:1043C000EE040196A11DB11D8093EB049093EC04C3
:1043D000A093ED04B093EE04BF91AF919F918F91A4
:1043E0003F912F910F900FBE0F901F9018952FB7F0
:1043F000F8946091E7047091E8048091E904909149
:10440000EA042FBF08953FB7F8948091EB04909190
:10441000EC04A091ED04B091EE0426B5A89B05C074
:104420002F3F19F00196A11DB11D3FBF6627782FC0
:10443000892F9A2F620F711D811D911D42E0660F19
:10444000771F881F991F4A95D1F708958F929F92E1
:10445000AF92BF92CF92DF92EF92FF926B017C01FD
:104460000E9403224B015C01C114D104E104F10458
:10447000F1F00E9438270E940322681979098A09FD
:104480009B09683E73408105910570F321E0C21AD3
:10449000D108E108F10888EE880E83E0981EA11C7F
:1044A000B11CC114D104E104F10429F7DDCFFF9060
:1044B000EF90DF90CF90BF90AF909F908F90089536
:1044C000789484B5826084BD84B5816084BD85B5EF
:1044D000826085BD85B5816085BDEEE6F0E08081B6
:1044E00081608083E1E8F0E01082808182608083D7
:1044F000808181608083E0E8F0E08081816080835A
:10450000E1EBF0E0808184608083E0EBF0E080818B
:1045100081608083EAE7F0E080818460808380812D
:1045200082608083808181608083808180688083D5
:104530001092C1000895833081F028F4813099F001
:104540008230A1F008958730A9F08830B9F0843026
:10455000D1F4809180008F7D03C0809180008F779F
:1045600080938000089584B58F7702C084B58F7DD5
:1045700084BD08958091B0008F7703C08091B00012
:104580008F7D8093B0000895CF93DF9390E0FC017E
:10459000E95DF94F2491FC01E55CF94F8491882392
:1045A00049F190E0880F991FFC01ED59F94FA59151
:1045B000B491875A994FFC01C591D4919FB761116D
:1045C00008C0F8948C91209582238C938881822353
:1045D0000AC0623051F4F8948C91322F30958323C5
:1045E0008C938881822B888304C0F8948C91822BD1
:1045F0008C939FBFDF91CF9108950F931F93CF931B
:10460000DF931F92CDB7DEB7282F30E0F901ED5EC2
:10461000F94F8491F901E95DF94F1491F901E55CD5
:10462000F94F04910023C9F0882321F069830E9487
:104630009B226981E02FF0E0EE0FFF1FE75AF94F50
:10464000A591B4919FB7F8948C91611103C0109516
:10465000812301C0812B8C939FBF0F90DF91CF915D
:104660001F910F910895CF93DF93282F30E0F90128
:10467000ED5EF94F8491F901E95DF94FD491F901AB
:10468000E55CF94FC491CC2391F081110E949B22EB
:10469000EC2FF0E0EE0FFF1FE15BF94FA591B49115
:1046A0002C912D2381E090E021F480E002C080E095
:1046B00090E0DF91CF910895FC01818D228D90E0F3
:1046C000805C9F4F821B91098F7399270895FC018D
:1046D000918D828D981731F0828DE80FF11D858DB7
:1046E00090E008958FEF9FEF0895FC01918D828DEA
:1046F000981761F0828DDF01A80FB11D5D968C9136
:10470000928D9F5F9F73928F90E008958FEF9FEF40
:10471000089589EF94E2892B49F080E090E0892B9D
:1047200029F00E94F92481110C9400000895FC01E5
:10473000848DDF01A80FB11DA35ABF4F2C91848D2A
:1047400090E001968F739927848FA689B7892C935F
:10475000A089B1898C9180648C93938D848D9813FA
:1047600006C00288F389E02D80818F7D80830895C3
:10477000CF93DF93EC01888D8823C9F0EA89FB8908
:10478000808185FD05C0A889B9898C9186FD0FC0FF
:104790000FB607FCF5CF808185FFF2CFA889B989D4
:1047A0008C9185FFEDCFCE010E949723E7CFDF915B
:1047B000CF910895CF92DF92FF920F931F93CF93E3
:1047C000DF931F92CDB7DEB76C0181E0D60158961A
:1047D0008C9358975B969C915B975C968C915C97B9
:1047E000981307C05096ED91FC915197808185FDFB
:1047F0002EC0F601038D10E00F5F1F4F0F731127BE
:10480000F02EF601848DF81211C00FB607FCF9CF17
:10481000D6015096ED91FC915197808185FFF1CFA3
:10482000C60169830E9497236981EBCF838DE80FCE
:10483000F11DE35AFF4F6083D6015B960C935B97A3
:104840005296ED91FC915397808180620CC0D60105
:104850005696ED91FC91579760835096ED91FC919F
:10486000519780818064808381E090E00F90DF9198
:10487000CF911F910F91FF90DF90CF900895BF923D
:10488000CF92DF92EF92FF92CF93DF93EC016A0118
:104890007B01B22EE889F98982E08083411581EE9F
:1048A000580761057105A1F060E079E08DE390E0C3
:1048B000A70196010E942929215031094109510976
:1048C0005695479537952795211580E1380798F03B
:1048D000E889F989108260E874E88EE190E0A70128
:1048E00096010E9429292150310941095109569503
:1048F000479537952795EC85FD853083EE85FF85B7
:104900002083188EEC89FD89B082EA89FB89808139
:1049100080618083EA89FB89808188608083EA895D
:10492000FB89808180688083EA89FB8980818F7D13
:104930008083DF91CF91FF90EF90DF90CF90BF9079
:1049400008951F920F920FB60F9211242F938F93F9
:104950009F93EF93FF93E091FF04F0910005808116
:10496000E0910505F091060582FD12C090818091CD
:1049700008058F5F8F7320910905821751F0E09130
:104980000805F0E0E151FB4F958F8093080501C0C9
:104990008081FF91EF919F918F912F910F900FBE8A
:1049A0000F901F9018951F920F920FB60F9211241F
:1049B0002F933F934F935F936F937F938F939F9327
:1049C000AF93BF93EF93FF938FEE94E00E949723F2
:1049D000FF91EF91BF91AF919F918F917F916F91D7
:1049E0005F914F913F912F910F900FBE0F901F90AD
:1049F00018958FEE94E00E945C2321E0892B09F446
:104A000020E0822F08951092F2041092F10488EEB3
:104A100093E0A0E0B0E08093F3049093F404A093BB
:104A2000F504B093F6048DE591E09093F004809343
:104A3000EF0485EC90E09093FC048093FB0484ECFD
:104A400090E09093FE048093FD0480EC90E09093BE
:104A500000058093FF0481EC90E090930205809321
:104A6000010582EC90E0909304058093030586ECA9
:104A700090E090930605809305051092080510922A
:104A8000090510920A0510920B050895CF92DF9246
:104A9000EF92FF920F931F93CF93DF937C016A01F4
:104AA000EB0100E010E00C151D0571F06991D701D4
:104AB000ED91FC910190F081E02DC7010995892BC2
:104AC00019F00F5F1F4FEFCFC801DF91CF911F91FA
:104AD0000F91FF90EF90DF90CF90089561157105D1
:104AE00081F0DB010D900020E9F7AD014150510943
:104AF000461B570BDC01ED91FC910280F381E02D08
:104B0000099480E090E00895EF92FF920F931F9335
:104B1000CF93DF938C017B01C0E0D0E0F701EC0F75
:104B2000FD1F6491662359F0F801A081B181ED91D8
:104B3000FC91C8010995892B11F02196EFCFCE0188
:104B4000DF91CF911F910F91FF90EF900895DC01BD
:104B5000ED91FC910190F081E02D099469E671E0FE
:104B60000C946E250F931F93CF93DF93EC010E945B
:104B700084258C01CE010E94AE25800F911FDF910C
:104B8000CF911F910F9108950F931F93CF93DF93B0
:104B9000EC010E946E258C01CE010E94AE25800F93
:104BA000911FDF91CF911F910F9108958F929F9246
:104BB000AF92BF92DF92EF92FF920F931F93CF932A
:104BC000DF93CDB7DEB7A1970FB6F894DEBF0FBE67
:104BD000CDBF7C01F42FD52ECB0119A2223008F4D1
:104BE0002AE08E010F5D1F4F822E912CA12CB12C3B
:104BF0006F2F7D2DA50194010E942929F22FD32E1C
:104C0000CA01015011096A3014F4E0E301C0E7E37E
:104C1000E60FD801EC93232B242B252B49F7B80161
:104C2000C7010E946E25A1960FB6F894DEBF0FBE95
:104C3000CDBFDF91CF911F910F91FF90EF90DF904B
:104C4000BF90AF909F908F900895CF92DF92EF9298
:104C5000FF920F931F93CF93DF93EC016A017B01C7
:104C60002115310579F4E881F9810190F081E02D79
:104C7000642FDF91CF911F910F91FF90EF90DF9004
:104C8000CF9009942A303105E9F477FF1AC06DE21C
:104C90000E94A7258C0144275527BA014C195D09AC
:104CA0006E097F092AE0CE010E94D625800F911F50
:104CB000DF91CF911F910F91FF90EF90DF90CF90F8
:104CC00008952AE0B701A601CE01DF91CF911F918F
:104CD0000F91FF90EF90DF90CF900C94D6259A0122
:104CE000AB01662757FD6095762F0C9425260F9310
:104CF0001F93CF93DF93EC019A01AB01662757FD19
:104D00006095762F0E9425268C01CE010E94AE254B
:104D1000800F911FDF91CF911F910F910895211561
:104D2000310541F4DC01ED91FC910190F081E02D21
:104D3000642F09940C94D6259A01462F50E060E028
:104D400070E00C948F260F931F93CF93DF93EC01A9
:104D50009A01462F50E060E070E00E948F268C019F
:104D6000CE010E94AE25800F911FDF91CF911F9140
:104D70000F9108950F931F93CF93DF93EC019A0146
:104D8000AB0160E070E00E948F268C01CE010E9492
:104D9000AE25800F911FDF91CF911F910F91089544
:104DA0000F931F93CF93DF93EC010E948F268C010A
:104DB000CE010E94AE25800F911FDF91CF911F91F0
:104DC0000F910895FC01448355836683778308958A
:104DD000CF93DF9300D000D0CDB7DEB79B01AC01FD
:104DE000611571058105910569F069833A834B83EB
:104DF0005C830E94082B29813A814B815C810E944F
:104E00004B2903C060E070E0CB010F900F900F9032
:104E10000F90DF91CF910895CF92DF92EF92FF92A2
:104E20006B017C01621773078407950764F4CA015C
:104E3000B9016C197D098E099F090E94E8266C0D45
:104E40007D1D8E1D9F1DFF90EF90DF90CF900895E8
:104E500008950E9460220E9428270E94D712C9E864
:104E6000D3E20E94EC172097E1F30E948923F9CF47
:104E700008955058BB27AA270ED008C1F9D030F0AA
:104E8000FED020F031F49F3F11F41EF4EEC00EF47A
:104E9000E095E7FBE4C0E92F0AD180F3BA17620777
:104EA00073078407950718F071F49EF522C10EF47C
:104EB000E0950B2EBA2FA02D0B01B90190010C012A
:104EC000CA01A0011124FF27591B99F0593F50F442
:104ED000503E68F11A16F040A22F232F342F44279A
:104EE000585FF3CF469537952795A795F040539592
:104EF000C9F77EF41F16BA0B620B730B840BBAF062
:104F00009150A1F0FF0FBB1F661F771F881FC2F7CC
:104F10000EC0BA0F621F731F841F48F487957795E0
:104F20006795B795F7959E3F08F0B3CF9395880F97
:104F300008F09927EE0F9795879508956CD008F49F
:104F400081E00895BCD088F09F5790F0B92F992741
:104F5000B751A0F0D1F0660F771F881F991F1AF084
:104F6000BA95C9F712C0B13081F0C3D0B1E008954D
:104F7000C0C0672F782F8827B85F39F0B93FCCF3CE
:104F8000869577956795B395D9F73EF4909580957A
:104F9000709561957F4F8F4F9F4F0895E89409C09A
:104FA00097FB3EF490958095709561957F4F8F4F5C
:104FB0009F4F9923A9F0F92F96E9BB279395F69572
:104FC000879577956795B795F111F8CFFAF4BB0FF0
:104FD00011F460FF1BC06F5F7F4F8F4F9F4F16C054
:104FE000882311F096E911C0772321F09EE8872FDE
:104FF000762F05C0662371F096E8862F70E060E09A
:105000002AF09A95660F771F881FDAF7880F969512
:10501000879597F90895990F0008550FAA0BE0E8B6
:10502000FEEF16161706E807F907C0F0121613066A
:10503000E407F50798F0621B730B840B950B39F4AA
:105040000A2661F0232B242B252B21F408950A2610
:1050500009F4A140A6958FEF811D811D089597F950
:105060009F6780E870E060E008959FEF80EC08950E
:1050700000240A9416161706180609060895002437
:105080000A9412161306140605060895092E0394B1
:10509000000C11F4882352F0BB0F40F4BF2B11F425
:1050A00060FF04C06F5F7F4F8F4F9F4F089557FD84
:1050B0009058440F551F59F05F3F71F04795880F86
:1050C00097FB991F61F09F3F79F08795089512161D
:1050D00013061406551FF2CF4695F1DF08C01616C9
:1050E00017061806991FF1CF86957105610508947A
:1050F0000895E894BB2766277727CB0197F9089591
:105100008ADF08F48FEF08950BD0C0CFB1DF28F00D
:10511000B6DF18F0952309F0A2CFA7CF1124EACF6C
:10512000C6DFA0F3959FD1F3950F50E0551F629F06
:10513000F001729FBB27F00DB11D639FAA27F00DF0
:10514000B11DAA1F649F6627B00DA11D661F829F17
:105150002227B00DA11D621F739FB00DA11D621FFC
:10516000839FA00D611D221F749F3327A00D611D19
:10517000231F849F600D211D822F762F6A2F1124FB
:105180009F5750408AF0E1F088234AF0EE0FFF1F4E
:10519000BB1F661F771F881F91505040A9F79E3F85
:1051A000510570F05CCFA6CF5F3FECF3983EDCF387
:1051B000869577956795B795F795E7959F5FC1F7C2
:1051C000FE2B880F911D9695879597F90895991B49
:1051D00079E004C0991F961708F0961B881F7A95EE
:1051E000C9F78095089587FB082E062687FD8195CF
:1051F00067FD61950E94E7280EF4919507FC819563
:105200000895AA1BBB1B51E107C0AA1FBB1FA6170D
:10521000B70710F0A61BB70B881F991F5A95A9F75F
:1052200080959095BC01CD01089597FB072E16F44B
:10523000009407D077FD09D00E94012907FC05D012
:105240003EF4909581959F4F0895709561957F4F9D
:105250000895A1E21A2EAA1BBB1BFD010DC0AA1FB7
:10526000BB1FEE1FFF1FA217B307E407F50720F0CF
:10527000A21BB30BE40BF50B661F771F881F991F4A
:105280001A9469F760957095809590959B01AC0193
:10529000BD01CF010895052E97FB1EF400940E94D6
:1052A000622957FD07D00E94292907FC03D04EF43C
:1052B0000C94622950954095309521953F4F4F4F62
:1052C0005F4F089590958095709561957F4F8F4FB2
:1052D0009F4F0895EE0FFF1F0590F491E02D099464
:1052E0000E948329A59F900DB49F900DA49F800DCF
:1052F000911D11240895B7FF0C9470290E94702904
:10530000821B930B0895A29FB001B39FC001A39F7E
:10531000700D811D1124911DB29F700D811D1124EE
:10532000911D0895CF93DF938230910510F482E0B0
:1053300090E0E0918E05F0918F0520E030E0A0E054
:10534000B0E0309739F14081518148175907B8F0E2
:105350004817590771F482819381109729F01396A9
:105360009C938E9312972CC090938F0580938E05FB
:1053700027C02115310531F04217530718F0A90154
:10538000DB0101C0EF019A01BD01DF010280F38161
:10539000E02DD7CF21153105F9F0281B390B24302A
:1053A000310580F48A819B816115710521F0FB0133
:1053B0009383828304C090938F0580938E05FE01B2
:1053C000329644C0FE01E20FF31F81939193225065
:1053D0003109398328833AC020918C0530918D059D
:1053E000232B41F4209102013091030130938D056C
:1053F00020938C0520910001309101012115310588
:1054000041F42DB73EB74091040150910501241B92
:10541000350BE0918C05F0918D05E217F307A0F4B0
:105420002E1B3F0B2817390778F0AC014E5F5F4FFA
:105430002417350748F04E0F5F1F50938D0540939A
:105440008C058193919302C0E0E0F0E0CF01DF9101
:10545000CF910895CF93DF93009709F487C0FC01A3
:10546000329713821282C0918E05D0918F052097BA
:1054700081F420813181280F391F80918C05909112
:105480008D058217930779F5F0938D05E0938C05D0
:105490006DC0DE0120E030E0AE17BF0750F4129679
:1054A0004D915C9113979D014115510509F1DA0168
:1054B000F3CFB383A28340815181840F951F8A1754
:1054C0009B0771F48D919C911197840F951F029603
:1054D0009183808312968D919C91139793838283FD
:1054E0002115310529F4F0938F05E0938E053EC018
:1054F000D9011396FC93EE9312974D915D91A40FF1
:10550000B51FEA17FB0779F480819181840F951FFD
:105510000296D90111969C938E9382819381139662
:105520009C938E931297E0E0F0E08A819B81009734
:1055300019F0FE01EC01F9CFCE01029628813981E4
:10554000820F931F20918C0530918D052817390704
:1055500069F4309729F410928F0510928E0502C0DD
:1055600013821282D0938D05C0938C05DF91CF9169
:1055700008958F929F92AF92BF92CF92DF92EF9257
:10558000FF92CF93DF93EC01688179818A819B81BF
:10559000611571058105910521F464E279ED8BE5D2
:1055A00097E02DE133EF41E050E00E944B294901A3
:1055B0005A019B01AC01A7EAB1E40E9470296B017A
:1055C0007C01ACEEB4EFA50194010E947E29C60EC9
:1055D000D71EE81EF91EF7FE06C081E0C81AD108E2
:1055E000E10880E8F80AC882D982EA82FB82C70112
:1055F000B6019F77DF91CF91FF90EF90DF90CF9032
:10560000BF90AF909F908F9008950E94B92A0895FF
:1056100086E091E00E94B92A089560930601709394
:10562000070180930801909309010895FC018827E0
:105630009927E89421912032E9F3293010F02E3097
:10564000C8F32B3241F02D3239F4689404C00E9423
:10565000442B820F911D219120532A30C0F31EF458
:10566000909581959F4F0895DC0101C06D93415045
:105670005040E0F70895FB01DC018D910190801905
:105680000110D9F3990B08957AE0979F902D879F89
:10569000802D910D11240895F999FECF92BD81BD01
:1056A000F89A992780B50895262FF999FECF1FBA49
:1056B00092BD81BD20BD0FB6F894FA9AF99A0FBE3B
:1056C0000196089516E0C4E7D6E004C0FE010E94EA
:0E56D0006C292296C637D107C9F7F894FFCF90
:1056DE00000090058000010000000106050105058F
:1056EE00FF0100010101011970006D003F00720001
:1056FE00770062004D6174696E672064616E636548
:10570E002073746172740000000000761A4625B191
:10571E001AC119E219C91AFC1900000000AC1D7F4C
:10572E001D541D5C1D6F1D7E1D00000000DA2346FA
:10573E00255C2375236723B8230D0A006E616E0066
:0A574E00696E66006F7666002E009B
:107E0000112484B714BE81FFF0D085E080938100F7
:107E100082E08093C00088E18093C10086E0809377
:107E2000C20080E18093C4008EE0C9D0259A86E02C
:107E300020E33CEF91E0309385002093840096BBD3
:107E4000B09BFECF1D9AA8958150A9F7CC24DD24C4
:107E500088248394B5E0AB2EA1E19A2EF3E0BF2EE7
:107E6000A2D0813461F49FD0082FAFD0023811F036
:107E7000013811F484E001C083E08DD089C08234E0
:107E800011F484E103C0853419F485E0A6D080C0E4
:107E9000853579F488D0E82EFF2485D0082F10E0AE
:107EA000102F00270E291F29000F111F8ED06801E7
:107EB0006FC0863521F484E090D080E0DECF843638
:107EC00009F040C070D06FD0082F6DD080E0C81688
:107ED00080E7D80618F4F601B7BEE895C0E0D1E017
:107EE00062D089930C17E1F7F0E0CF16F0E7DF06D8
:107EF00018F0F601B7BEE89568D007B600FCFDCFD4
:107F0000A601A0E0B1E02C9130E011968C91119780
:107F100090E0982F8827822B932B1296FA010C0160
:107F200087BEE89511244E5F5F4FF1E0A038BF0790
:107F300051F7F601A7BEE89507B600FCFDCF97BE46
:107F4000E89526C08437B1F42ED02DD0F82E2BD052
:107F50003CD0F601EF2C8F010F5F1F4F84911BD097
:107F6000EA94F801C1F70894C11CD11CFA94CF0C13
:107F7000D11C0EC0853739F428D08EE10CD085E9AC
:107F80000AD08FE07ACF813511F488E018D01DD067
:107F900080E101D065CF982F8091C00085FFFCCF94
:107FA0009093C60008958091C00087FFFCCF809118
:107FB000C00084FD01C0A8958091C6000895E0E648
:107FC000F0E098E1908380830895EDDF803219F02E
:107FD00088E0F5DFFFCF84E1DECF1F93182FE3DFCA
:107FE0001150E9F7F2DF1F91089580E0E8DFEE27F6
:047FF000FF270994CA
:027FFE00040479
:0400000300007E007B
:00000001FF
