:100000000C9470020C9498020C9498020C94E017D3
:100010000C9404180C9428180C9498020C949802D0
:100020000C9498020C9498020C9498020C949802E8
:100030000C945A190C9450190C9498020C94980230
:100040000C940A1E0C9498020C94C4200C94F62074
:100050000C9498020C9498020C9498020C949802B8
:100060000C947A1A0C949802BF10C510CC10D310BF
:10007000DA10E110E810EF10F610FD1004110B116A
:1000800012111911627574746F6E2068656C643F8B
:100090003D0053657467656E6520746F3A00456670
:1000A00066656374203D20006D6173746572206D18
:1000B0006F646520616374697661746564004E6580
:1000C000772067656E65206C6561726E6564203DA2
:1000D0002000203A200043757272656E74205368C8
:1000E0006F7747656E65203D20004261736520672C
:1000F000656E652073657420746F3A00416C72659B
:1001000061647920686176652067656E653A00579D
:100110007269746520454550524F4D20435243311A
:10012000363A00435243204F4B3A00424144204369
:1001300052433A00203A2000454550524F4D476502
:100140006E65733A00454550524F4D4E756D47658B
:100150006E6573203D200050554668617368203DF0
:1001600020002E004C6F6164696E6700496E7661F5
:100170006C696420636F6C6F727365742023004632
:10018000696C6C206D6F64652E2020456E746572FD
:10019000206120636F6C6F7273657420746F2063CD
:1001A0006F707920746F20616C6C2067656E657369
:1001B0003A0020746F200053657474696E6720677D
:1001C000656E65202300456E746572206120636F43
:1001D0006C6F72736574202300456E7465722061C4
:1001E0006E2065666665637420230050726F6772C7
:1001F000616D206D6F64652E2020456E74657220E0
:10020000612067656E652023006D203A2066616C71
:100210006C6F757420340066203A2066696C6C201F
:1002200072616D2D67656E657320776974682061F2
:100230006C6C20656666656374730077203A20777E
:100240006970652067656E657320287265766572D2
:100250007369626C65290072203A2064756D7020A4
:10026000656570726F6D0070203A2070726F6772F2
:10027000616D0053657269616C20636F6D6D616EB5
:10028000642068656C703A00756E6B6E6F776E20D7
:10029000636F6D6D616E640072656164206572727A
:1002A0006F723A204E756D47656E65733D00434D24
:1002B000443A200001010101010101010101010194
:1002C0000100000000000101010101010201010122
:1002D000010101010101020101010101010101010D
:1002E00002010101010101010101020101000001FE
:1002F00001010101020100000000000101010200F2
:1003000000000000000101010200000000000101E6
:1003100001010201000000000101010102010100D0
:1003200000010101010001000100010101010100C2
:1003300000000000010101010100000001000101B5
:1003400001010100010000000101010000000100A5
:10035000010000000502070409060108030000016E
:1003600002FF070605FF000908FF030405FF030855
:1003700004090500FFFF020701060005FFFF00005A
:10038000FF0000FF0000FF000000FFFF0000000072
:1003900000000000000000000000000000007733B3
:1003A000FF0033991100440022004400880022001D
:1003B000110022004400331177001144000077330C
:1003C000FF0033991100440022004400880011000E
:1003D000080011330000110811000822000000FF7E
:1003E000000000FF000000FF000000FF000000020E
:1003F00000000002000000020000000200001D7664
:100400003800751C35003891E600A07BC200220040
:10041000110022004400331177001144000000FF56
:10042000FF0000FF000000FFFF0000FF000000FFD2
:10043000000000FFFF0000FF000000FFFF0000774A
:10044000FF000077000000FFFF0000FF770077004B
:100450000000770000007700000077000000FF999F
:10046000000000FF770000FFFF000000FF00D47FC6
:10047000FF00A7007B00BA0D98006F006D00000020
:100480000008000201000003040700000000000053
:10049000000001020408102040800102040810201E
:1004A00001020408102004040404040404040202E9
:1004B00002020202030303030303000000002300FF
:1004C0002600290000000000250028002B00000065
:1004D0000000240027002A0021114D1A26213A117C
:1004E00011241FBECFEFD8E0DEBFCDBF11E0A0E0EA
:1004F000B1E0E2EDFEE402C005900D92AC3CB10724
:10050000D9F725E0ACECB1E001C01D92A03EB207E6
:10051000E1F714E0CEEDD4E004C02297FE010E9482
:100520006625C83DD107C9F70E9432230C945C2789
:100530000C9400000C9446270C944E279091C6030F
:10054000937028E0829FF0011124E90FF11DEE0F56
:10055000FF1FEE0FFF1FE258FC4F659175918591CB
:1005600094910895E091C703E370F0E0349698E029
:10057000899FE00DF11D1124EE0FFF1FEE0FFF1FED
:10058000E258FC4F65917591859194910895FF9281
:100590000F931F93CF93DF93FC01862F6AE00E9495
:1005A000EF24C92FD0E0DA01C90161E1B695A79522
:1005B000979587956A95D1F7682F6F77F62EEC0F90
:1005C000FD1F648B62ABDF01A655BF4F6C93DA0150
:1005D000C90179E0B695A795979587957A95D1F752
:1005E000682F6F77628760A7DF01A056BF4F6C93BB
:1005F000DA01C901B695A79597958795482F4F774A
:10060000468F44AFEC54FF4F40838F2D0E94C01D96
:100610009B01AC01BE01C8010E945B1DDF91CF911F
:100620001F910F91FF900895CF92DF92EF92FF926A
:100630000F931F93CF93DF937C01862F6AE00E9474
:10064000EF24C92ED12CDA01C90161E1B695A79535
:10065000979587956A95D1F7682F6F77E701CC0D4D
:10066000DD1D6AABDA01C90179E0B695A7959795CA
:1006700087957A95D1F78F7788A7569547953795BF
:1006800027952F772CAFFE01E056FF4F30813A8738
:100690003A9640814C8B3A9690819E8FE456F109B0
:1006A000641B60833A97831B80837496291B208385
:1006B0000E94541EF6017E96EE0FFF1FEE0FFF1FE5
:1006C000EE0DFF1D6083718382839383F601F296A2
:1006D000EE0FFF1FEE0DFF1D1183008380E2888364
:1006E000DF91CF911F910F91FF90EF90DF90CF900E
:1006F0000895CF92DF92EF92FF92CF9380911401F1
:10070000882349F182E00E94561FC1E0892B09F439
:10071000C0E0809116018C17E1F08091A2039091C6
:10072000A303A091A403B091A50380939E0390938B
:100730009F03A093A003B093A103109214010E9401
:10074000601E6093A2037093A3038093A40390930D
:10075000A503C09316018091140181113BC00E9432
:10076000601E6B017C018091A2039091A303A09174
:10077000A403B091A503A7019601281B390B4A0BCE
:100780005B0BDA01C90180379741A105B10510F172
:1007900082E00E94561F21E0892B09F420E020937B
:1007A00015012223A1F080919E0390919F03A091B7
:1007B000A003B091A103C81AD90AEA0AFB0AC092A1
:1007C0009A03D0929B03E0929C03F0929D0381E0F8
:1007D00080931401CF91FF90EF90DF90CF90089518
:1007E0002F923F924F925F926F927F928F929F9241
:1007F000AF92BF92CF92DF92EF92FF920F931F932F
:10080000CF93DF93CDB7DEB72C970FB6F894DEBF4A
:100810000FBECDBF5C018B011A010E94541E9801CE
:1008200017FF02C020E030E079010027F7FC0095B7
:10083000102FE60EF71E081F191FEB82FC820D8396
:100840001E838501C12CD12C80EEF82ED8018C910D
:10085000803129F0803299F4D801FC9210C0F8015F
:100860001082F501EC0DFD1D44AD60A582A90E942A
:10087000C01D9B01AC01B601C1010E945B1DBFEF11
:10088000CB1ADB0A0F5F1F4FEAE0CE16D104F1F658
:10089000C1010E943F1C0E94541EEB80FC800D8110
:1008A0001E816E157F058007910708F0C8C0C5013D
:1008B0000E947903BA86A986BC86AB86B886AF82C9
:1008C000812C912C0E94541EEF81F885E858FF4F2F
:1008D000C080D180E280F380AB85BC852C91203E26
:1008E00009F092C02B013C014C185D086E087F088E
:1008F000E985FA85EC59FF4FC080D180E12CF12CBD
:100900008501080D191DA056BF4FBA83A9834C1449
:100910005D046E047F040CF048C0EB85FC85EA5B47
:10092000FF4FA081BB27A7FDB095A30192010E94B4
:100930007525A70196010E944525F8018285820F41
:10094000A981BA818C93EB85FC85E05BFF4FA08188
:10095000BB27A7FDB095A30192010E947525A701B1
:1009600096010E944525F8018489820FEB85FC855C
:10097000E655FF4F8083EB85FC85E65AFF4FA0814B
:10098000BB27A7FDB095A30192010E947525A70181
:1009900096010E944525D8015E968C91820FEB85C9
:1009A000FC85EC54FF4F808318C0F80180A5828736
:1009B000A981BA818C9382A9848BEB85FC85E6554D
:1009C000FF4F8083F80184AD868FEB85FC85EC5466
:1009D000FF4F8083AB85BC851C92EB85FC85EC5476
:1009E000FF4F4081EB85FC85E056FF4F6081EB8532
:1009F000FC85E655FF4F80810E94C01D9B01AC0124
:100A0000B401C1010E945B1DBFEF8B1A9B0A0F81CD
:100A100018850C5F1F4F18870F830B851C850F5F90
:100A20001F4F1C870B8709851A850E5F1F4F1A877A
:100A300009871AE08116910409F044CF29CF2C963A
:100A40000FB6F894DEBF0FBECDBFDF91CF911F91DF
:100A50000F91FF90EF90DF90CF90BF90AF909F905D
:100A60008F907F906F905F904F903F902F90089560
:100A700063E772E08FE395E00E94D72167E672E0BA
:100A80008FE395E00E94D72167E572E08FE395E060
:100A90000E94D7216BE372E08FE395E00E94D7219B
:100AA00067E172E08FE395E00E94D72169E072E090
:100AB0008FE395E00C94D721E1E0F0E860E080E07E
:100AC000DF0111979C918927908169273296E13047
:100AD00092E8F907A9F770E0762F6627680F711D75
:100AE00080E090E00895FC0180E05CE8615088F0CF
:100AF000419198E0742F7827282F30E0359527957D
:100B0000822F70FF02C0852F82274695915091F762
:100B1000EDCF0895FC0120E030E080E090E077FD2B
:100B20001BC0DF01A20FB31F4D915C918427952755
:100B3000A8E0AC015695479580FF06C0CA01B1E018
:100B40008B27B0EA9B2701C0CA01A15091F76150E1
:100B500071092E5F3F4FE3CF08958F3FE1F09091F1
:100B6000CC018A3011F08D3021F41092CC01892F04
:100B70000895292F30E041505109241735075CF4BE
:100B80009F5F9093CC01FB01E20FF31F8083FB0179
:100B9000E90FF11D10828FEF0895CF92DF92EF924F
:100BA000FF920F931F93CF93DF93D82EEA01C0904B
:100BB0009B028C2D8770E82EF12C8701000F111FEE
:100BC00002591C4FF8018491EE0CFF1C8F3F09F471
:100BD0004EC08D2D0E949E029B01AC01F8016491D4
:100BE0008E0187EC92E00E9414038D2D0E949E02DC
:100BF0009B01AC01F701E159FC4F64918E0187EC38
:100C000092E00E9414038C2D90E0019768E070E060
:100C10000E940F257C01FF24EE0CFF1C8701025966
:100C20001C4FF80180818F3FD1F08D2D0E94B202C0
:100C30009B01AC01F80164918E0187EC92E00E9467
:100C400014038D2D0E94B2029B01AC01F701E15902
:100C5000FC4F64918E0187EC92E00E94140345E8FA
:100C600053E0BE0187EC92E00E94F00325C0CC0F58
:100C7000DD1FCC0FDD1FF12C80E00E94B2029B0132
:100C8000AC018E016F2D87EC92E00E941403F39467
:100C9000FAE0FF12F1CF45E853E0BE0187EC92E0A5
:100CA0000E94F0038091C6038F5F8093C6038091FA
:100CB000C7038F5F8093C70380919B028F5F8093F0
:100CC0009B02DF91CF911F910F91FF90EF90DF90EA
:100CD000CF900895DF92EF92FF920F931F93CF93DF
:100CE000DF93E82EEA01D0909B028D2D8F70F82EB5
:100CF000082F10E0025A1C4FF80184918F3FA1F198
:100D00008E2D0E949E029B01AC01F80164918E0120
:100D100087EC92E00E9414038D2D90E0019760E132
:100D200070E00E940F258C011127025A1C4FF80118
:100D300084918F3F61F08E2D0E94B2029B01AC0125
:100D4000F80164918E0187EC92E00E941403F11087
:100D50001FC08091C6038F5F8093C6038091C70335
:100D60008F5F8093C70314C0CC0FDD1FCC0FDD1F36
:100D7000F12C80E00E94B2029B01AC018E016F2D2C
:100D800087EC92E00E941403F394FAE0FF12F1CF93
:100D900045E853E0BE0187EC92E00E94F0038091A9
:100DA0009B028F5F80939B02DF91CF911F910F91E8
:100DB000FF90EF90DF9008959F92AF92BF92CF92F5
:100DC000DF92EF92FF920F931F93CF93DF93F82E52
:100DD000EA0190909B020E949E029B01AC01892D2A
:100DE0006BE00E94EF24A92EB12CF501EC5AFC4FC8
:100DF00064918E0187EC92E00E9414038F2D0E9473
:100E0000B2026B017C01892D90E001976BE070E0EC
:100E10000E940F2599278C5A9C4FFC0164918E01EA
:100E200015950795A701960187EC92E00E9414039F
:100E300045E853E0BE0187EC92E00E94F003F50123
:100E4000EC5AFC4F808181110AC08091C6038F5FEC
:100E50008093C6038091C7038F5F8093C7038091FF
:100E60009B028F5F80939B02DF91CF911F910F9127
:100E7000FF90EF90DF90CF90BF90AF909F9008953C
:100E80009F92AF92BF92CF92DF92EF92FF920F9319
:100E90001F93CF93DF935A0190909B02EA01CC0FEE
:100EA000DD1F0E949E029B01AC01892D6BE00E9418
:100EB000EF24E92FF0E0EC5AFC4F64918E0187ECAF
:100EC00092E00E94140380E00E94B2026B017C0158
:100ED000892D90E001976BE070E00E940F25992723
:100EE0008C5A9C4FFC0164918501A701960187EC07
:100EF00092E00E94140345E853E0BE0187EC92E0C3
:100F00000E94F00380919B028F5F80939B028091EF
:100F1000C6038F5F8093C6038091C7038F5F809362
:100F2000C703DF91CF911F910F91FF90EF90DF905A
:100F3000CF90BF90AF909F900895BF92CF92DF92D5
:100F4000EF92FF920F931F93CF93DF93D82E7A01E6
:100F5000C0909B028C2D6CE00E94EF24C92FD0E042
:100F6000CC0FDD1FCF58DE4FB8808FEFB81609F4D5
:100F700042C08D2D0E949E029B01AC0187016B2D0A
:100F800087EC92E00E9414038D2D0E949E029B012B
:100F9000AC01698187EC92E00E9414038C2D90E0F3
:100FA00001976CE070E00E940F25EC01DD27CC0F6B
:100FB000DD1FCF58DE4FC8808FEFC816A1F08D2DF2
:100FC0000E94B2029B01AC016C2D87EC92E00E9462
:100FD00014038D2D0E94B2029B01AC01698187EC44
:100FE00092E00E94140345E853E0B70187EC92E0D9
:100FF0000E94F00324C0EE0CFF1CEE0CFF1CC0E0AE
:1010000080E00E94B2029B01AC0187016C2F87EC4B
:1010100092E00E941403CF5FCA3091F745E853E095
:10102000B70187EC92E00E94F0038091C6038F5FC6
:101030008093C6038091C7038F5F8093C70380911D
:101040009B028F5F80939B02DF91CF911F910F9145
:10105000FF90EF90DF90CF90BF9008957F928F9296
:101060009F92AF92BF92CF92DF92EF92FF920F9337
:101070001F93CF93DF93882E5A0170909B02872D88
:101080008770982E882D0E949E029B01AC01C92D6D
:10109000D0E0CC0FDD1FCF59DE4F8501688187EC92
:1010A00092E00E941403882D0E949E029B01AC01D5
:1010B000698187EC92E00E941403882D0E94B2029D
:1010C0006B017C01872D90E0019768E070E00E9441
:1010D0000F25EC01DD27CC0FDD1FCF59DE4FA70117
:1010E0009601688187EC92E00E941403882D0E948B
:1010F000B2029B01AC01698187EC92E00E9414036B
:1011000045E853E0B50187EC92E00E94F003992096
:1011100019F085E098120DC08091C6038F5F80930F
:10112000C60385E0981205C08091C7038F5F809346
:10113000C70380919B028F5F80939B02DF91CF91C9
:101140001F910F91FF90EF90DF90CF90BF90AF90E5
:101150009F908F907F900895AF92BF92CF92DF9231
:10116000EF92FF920F931F93CF93DF93F82EEA0134
:10117000A0909B028A2D6AE00E94EF24B92E8F2D49
:101180000E949E029B01AC01EB2DF0E0E95AFE4F5C
:101190008E01608187EC92E00E9414038F2D0E94E3
:1011A000B2026B017C01000F111F8A2D90E00197A4
:1011B0006AE070E00E940F259927895A9E4FA70187
:1011C0009601FC01608187EC92E00E94140345E8DF
:1011D00053E0BE0187EC92E00E94F003B1100AC018
:1011E0008091C6038F5F8093C6038091C7038F5F92
:1011F0008093C70380919B028F5F80939B02DF9156
:10120000CF911F910F91FF90EF90DF90CF90BF9003
:10121000AF900895AF92BF92CF92DF92EF92FF927C
:101220000F931F93CF93DF93F82EEA01A0909B02B8
:101230008A2D66E10E94EF24B92E8F2D0E949E0216
:101240009B01AC01EB2DF0E0EF5BFE4F8E01608166
:1012500087EC92E00E9414038F2D0E94B2026B0172
:101260007C01000F111F8A2D90E0019766E170E06C
:101270000E940F2599278F5B9E4FA7019601FC01C5
:10128000608187EC92E00E94140345E853E0BE01C0
:1012900087EC92E00E94F003B1100AC08091C6036F
:1012A0008F5F8093C6038091C7038F5F8093C703CE
:1012B00080919B028F5F80939B02DF91CF911F9162
:1012C0000F91FF90EF90DF90CF90BF90AF90089577
:1012D0007F928F929F92AF92BF92CF92DF92EF92C6
:1012E000FF920F931F93CF93DF93882E7A0160E0D4
:1012F00071E080E090E00E940D23613F98F0633F31
:1013000048F46FEF7FEFCB010E940D236F5F609376
:10131000990229C080919902813041F181E0809346
:10132000990222C080919902882329F01092990293
:1013300081E080931301643050F462E070E080E05B
:1013400090E00E940D23675F60939A020CC06038A2
:1013500069F48091C6038F5F8093C6038091C703B1
:101360008F5F8093C70381E0809313016EE185E86E
:1013700093E00E94C91D809113018823D9F1670170
:1013800034E0D594C7943A95E1F7C0E0D0E04AE064
:10139000A42EB12C5AE0752E80919A029E01280F3E
:1013A000311DC901B5010E940F25982E8091990227
:1013B000FE01789EE00DF11D1124EE5DFC4FE491DD
:1013C000EE2339F0882D0E949E029B01AC0186011C
:1013D00006C080E00E94B2029B01AC018701692D2A
:1013E00087EC92E00E9414032196CA30D105A1F641
:1013F0001092130145E853E0B70187EC92E00E9498
:10140000F00380919B028F5F80939B02DF91CF91CD
:101410001F910F91FF90EF90DF90CF90BF90AF9012
:101420009F908F907F9008957F928F929F92AF921E
:10143000BF92CF92DF92EF92FF920F931F93CF93C1
:10144000DF93A82E7A0160E071E080E090E00E94D6
:101450000D23611103C0109298020CC0603851F442
:101460009091C6039F5F9093C6039091C7039F5FBF
:101470009093C703C0E0D0E07AE0C72ED12CE9E01A
:101480008E2EFAE07F2E28E0A29E5001112480913A
:1014900098029E01280F311DC901B6010E940F2537
:1014A000982E80919B02682D0E94EF24FE01799E68
:1014B000E00DF11D1124E853FD4FE491EE23A1F05E
:1014C0008091C603F0E0E80FF11DE370FF27EA0DFD
:1014D000FB1DEE0FFF1FEE0FFF1FE258FC4F259183
:1014E00035914591549105C080E00E94B2029B0164
:1014F000AC0105E813E0692D87EC92E00E94C70279
:101500002196CA30D10509F0C2CF85E893E00E9448
:101510003F1C45E853E0B70187EC92E00E94F003DE
:1015200080919B028F5F80939B02DF91CF911F91EF
:101530000F91FF90EF90DF90CF90BF90AF909F9072
:101540008F907F900895BF92CF92DF92EF92FF929B
:101550000F931F93CF93DF93C82E7A0169E170E058
:1015600080E090E00E940D23262F862F65E00E94E8
:10157000EF24992339F081E08093970283E08093F0
:10158000960206C080919602811102C010929702C5
:10159000909196029923C1F0E92FF0E0E15FFE4FB0
:1015A00080818093970291509093960291110CC084
:1015B00021110AC09091C6039F5F9093C60390913A
:1015C000C7039F5F9093C703C0E0D0E0BAE0BB2E93
:1015D00088E0C89E6001112480919702FE01B89EA8
:1015E000E00DF11D1124EC54FD4FE491EE23A9F020
:1015F0009091C603E80FF0E0E90FF11DE370FF27BB
:10160000EC0DFD1DEE0FFF1FEE0FFF1FE258FC4F0C
:10161000259135914591549105C080E00E94B20218
:101620009B01AC0105E813E06C2F87EC92E00E946F
:10163000C7022196CA30D10579F685E893E00E9469
:101640003F1C45E853E0B70187EC92E00E94F003AD
:1016500080919B028F5F80939B02DF91CF911F91BE
:101660000F91FF90EF90DF90CF90BF900895AF92D1
:10167000BF92CF92DF92EF92FF920F931F93CF937F
:10168000DF93F82EEA01A0909B028A2D6AE00E9467
:10169000EF24B92E8F2D0E949E029B01AC018E017A
:1016A0006B2D87EC92E00E9414038F2D0E94B202F2
:1016B0006B017C01000F111F000F111F8A2D90E09C
:1016C00001976AE070E00E940F25A7019601682F3C
:1016D00087EC92E00E94140345E853E0BE0187ECDA
:1016E00092E00E94F003B1100AC08091C6038F5FA0
:1016F0008093C6038091C7038F5F8093C703609177
:10170000170185E893E00E94C91D80919B028F5FBD
:1017100080939B02DF91CF911F910F91FF90EF90EB
:10172000DF90CF90BF90AF90089564E671E08FE3B3
:1017300095E00E94D72168E070E080E090E00E9490
:101740000D23C62F48EC50E066EC72E08C2F0E940F
:10175000370B62E671E08FE395E00E94A721F2CF9C
:101760002F923F924F925F926F927F928F929F92B1
:10177000AF92BF92CF92DF92EF92FF920F931F939F
:10178000CF93DF93CDB7DEB760970FB6F894DEBF87
:101790000FBECDBF89875C834B832A8790911D0242
:1017A00081E0892726E0929F2001112466E0869F30
:1017B000A00111245A834983612C712C0FEF1FEF74
:1017C000425E5D4F5C874B87A82FB0E0BE87AD8738
:1017D00081E0800F6AE00E94EF24292FC8016AE0AF
:1017E00070E00E940F253CE0389F6001399FD00CCB
:1017F0001124C40CD51CA601425E5D4F6A01C801CC
:1018000002966AE070E00E940F25389F7001399FB0
:10181000F00C1124E40CF51CB701625E7D4F7B01D6
:1018200012017CE0279F200C311C1124C101825E33
:101830009D4F1C01AB85BC85A60DB71DB887AF8336
:10184000188A1F86EF85F889EC0DFD1D8081918136
:10185000BC0180E090E00E94D6232AE939E949E9F9
:101860005EE30E948C244B015C01EF85F889EE0D4C
:10187000FF1D80819181BC0180E090E00E94D62311
:101880002AE939E949E95EE30E948C249B01AC0115
:10189000C501B4010E9442234B015C01EF85F88928
:1018A000E20DF31D80819181BC0180E090E00E94F7
:1018B000D6239B01AC01C501B4010E9442230E94C2
:1018C000AA2380E090E00E94D6232DEC3CEC4CE073
:1018D0005FE30E948C24AF80B884EF85F889AE0E58
:1018E000BF1E0E94AA23D5016D937C93EF85F889D2
:1018F0003296F88BEF87369709F0A4CF0F5F1F4F12
:10190000FCE06F0E711C0930110509F061CF65E034
:1019100070E080E090E00E940D23672B682B692B1C
:1019200059F56AE070E080E090E00E940D23162FE8
:1019300089850E949E0226E04D855E85249FF001E8
:10194000259FF00D11245CE0159FE00DF11D112481
:10195000E25EFD4F072F182F292F33270027118311
:1019600000839B0122273383228314826583809125
:10197000C6038F5F8093C60369817A81625E7D4F63
:101980007B01A12CB12CD12CF701EA0DFB1D858127
:1019900071817E831D82AD81BE819D0140E050E05A
:1019A000280F311D411D511D838190E0A0E0B0E062
:1019B000DC0199278827280F391F4A1F5B1F0B81DD
:1019C0001C816D2D87EC92E00E941403D394BCE03F
:1019D000AB0EB11CEAE0DE12D7CF6A8585E893E052
:1019E0000E94C91D45E853E06B817C8187EC92E041
:1019F0000E94F00380911D0291E0892780931D02CF
:101A000060960FB6F894DEBF0FBECDBFDF91CF91C9
:101A10001F910F91FF90EF90DF90CF90BF90AF900C
:101A20009F908F907F906F905F904F903F902F90FE
:101A300008953F924F925F926F927F928F929F9202
:101A4000AF92BF92CF92DF92EF92FF920F931F93CC
:101A5000CF93DF932B013C01EA0101E7802E03E0E5
:101A6000902E87E6A82E83E0B82E9BE7C92E93E040
:101A7000D92E25EFE22E21E0F22E312CF401319106
:101A80004F01F50181915F01F60121916F0190E015
:101A9000A0E0B0E0BA2FA92F982F8827A32B822B84
:101AA000F70181939193A193B1937F0105E813E02E
:101AB000A3019201632D87EC92E00E94C702339448
:101AC000FAE03F12DBCFC8010E943F1CB5EFEB2EBE
:101AD000B1E0FB2ED12CF70121913191419151912F
:101AE0007F018E016D2D87EC92E00E941403D39448
:101AF000FAE0DF12F0CF45E853E0BE0187EC92E058
:101B0000DF91CF911F910F91FF90EF90DF90CF90D9
:101B1000BF90AF909F908F907F906F905F904F900D
:101B20003F900C94F0030F931F938C0180910D0153
:101B300091E0892780930D019091F40191509230AA
:101B400078F4882329F02FEF3FEF4FEF50E003C0E8
:101B500020E030E0A90164E087EC92E00E941403E9
:101B60001F910F910895FF920F931F93CF93DF93CF
:101B7000F82EEB018B0120E030E0A90160910F010C
:101B800087EC92E00E94140320910F018F2D99277A
:101B900087FD9095820F911D27FD9A956AE070E070
:101BA0000E940F2587FD89E080930F018E0120E0C0
:101BB0003FEF4FEF50E060910F0187EC92E00E9401
:101BC0001403DF91CF911F910F91FF900895BF9261
:101BD000CF92DF92EF92FF920F931F93CF93DF93F9
:101BE000B82E6A017B01E901890120E030E0A901FA
:101BF00060910E0187EC92E00E94140320910E0187
:101C00008B2D992787FD9095820F911D27FD9A9521
:101C10006AE070E00E940F2587FD89E080930E0145
:101C20008E01A701960160910E0187EC92E00E945F
:101C30001403DF91CF911F910F91FF90EF90DF90F0
:101C4000CF90BF900895DF92EF92FF920F931F9372
:101C5000CF93DF93EA01622F85E893E00E94C91DCC
:101C60008091F401823009F44EC028F4882351F0A9
:101C70008130B1F188C0833009F458C0843009F450
:101C800077C081C085E080930F017E01EE0CFF1CC0
:101C9000EE0CFF1CD12C87012FEF3FEF4FEF50E0F0
:101CA0006D2D87EC92E00E941403D394D3948AE0C4
:101CB000D812F1CF20E03FEF4FEF50E060910F01DD
:101CC00087EC92E00E941403BE01660F771F6C0F31
:101CD0007D1F45E853E087EC92E00E94F0030DC0C1
:101CE00060E070E081E00E94B30D80910F018830C8
:101CF00009F049C085E080930E018091F4018F5F67
:101D00008093F40140C060E070E081E00E94B30D78
:101D100020E030E040E05FEF60E070E081E00E94B2
:101D2000E70D80910F01843071F5E7CF60E070E03E
:101D30008FEF0E94B30D20E030E04FEF50E060E005
:101D400070E08FEF0E94E70D80910E018430D9F48E
:101D50008091F4018F5F8093F40100E010E020E0B7
:101D600030E0A90164E087EC92E00E9414030BC00C
:101D700060E070E08FEF0E94B30D80910F0185301D
:101D800011F41092F40180E090E00E94930DD5953B
:101D9000C79545E853E0BE0187EC92E00E94F0034E
:101DA00080E090E00E94930D45E853E0BE0187EC8F
:101DB00092E0DF91CF911F910F91FF90EF90DF9014
:101DC0000C94F0030F931F93CF93DF9380E090E088
:101DD0000E949A02182F65E471E08FE395E00E945B
:101DE000A7214AE050E0612F8FE395E00E94C822CE
:101DF00068E371E08FE395E00E94D721143138F158
:101E000081E090E00E949A02C82F82E090E00E9458
:101E10009A02D0E0DC2FCC27C82B612F70E06150F4
:101E200071098EE992E00E948A05C817D90759F115
:101E30006BE271E08FE395E00E94A72140E150E062
:101E4000BE018FE395E00E94DF2280E02AC0CEE948
:101E5000D2E000E00117A1F240E150E0602F8FE3F3
:101E600095E00E94C12264E371E08FE395E00E9457
:101E7000A7216991799140E150E08FE395E00E94BC
:101E8000DF220F5FE7CF63E271E08FE395E00E940E
:101E9000A72140E150E0BE018FE395E00E94DF22E0
:101EA00081E0DF91CF911F910F910895BF92CF9262
:101EB000DF92EF92FF920F931F93CF93DF9380E017
:101EC00090E00E949A02C82FD0E0C431D105FCF402
:101ED000EEE9EE2EE2E0FE2E00E010E00C171D070A
:101EE000C0F46801CC0CDD1CC6010B960E949A025E
:101EF000B82EC6010A960E949A022B2D30E0382B8C
:101F0000F701219331937F010F5F1F4FE7CFC0E0AF
:101F1000D0E0CE01DF91CF911F910F91FF90EF9014
:101F2000DF90CF90BF900895CF92DF92EF92FF9213
:101F3000CF93DF930E945C056B017C0185E893E001
:101F40000E94BB1B6EE185E893E00E94C91DC0E0C2
:101F5000D0E020E030E0A901BE0185E893E00E94D6
:101F60005B1D2196CA30D105A1F785E893E00E9458
:101F70003F1C26E040E052EC61E070E08FE395E02A
:101F80000E9462204AE050E060E070E08FE395E05C
:101F90000E9407236CEB71E08FE395E00E94CA2159
:101FA00067E571E08FE395E00E94A721A70166270E
:101FB000772720E130E08FE395E00E94B422B7015B
:101FC000A6016627772720E130E08FE395E00E94A5
:101FD000F5224CE251E060E070E086EA93E00E9476
:101FE000CF1886EA93E00E94341760E089E00E94EF
:101FF000201F62E088E00E94E71E62E082E00E940B
:10200000E71E0E94560F80939D0210929A03109231
:102010009B0310929C0310929D0368E171E08FE393
:1020200095E0DF91CF91FF90EF90DF90CF900C94EF
:10203000E9216F927F928F929F92AF92BF92CF923F
:10204000DF92EF92FF920F931F93CF93DF933C01A8
:10205000C62E80E090E00E949A028C1529F06C2D2B
:1020600080E090E00E949C02C62DD72D00E010E099
:10207000D12C0C151D0530F55801AA0CBB1C4501CF
:102080008AE0880E911CC4010E949A02E980F12C1A
:1020900090E08E159F0521F06E2DC4010E949C02D8
:1020A0008BE0A80EB11CC5010E949A02699179913A
:1020B00090E08617970719F0C5010E949C020F5FF8
:1020C0001F4FD7CFB60161507109C3010E948A0525
:1020D000EC016D2F81E090E00E949C026C2F82E069
:1020E00090E00E949C026FE071E08FE395E00E9417
:1020F000A72140E150E0BE018FE395E0DF91CF9151
:102100001F910F91FF90EF90DF90CF90BF90AF9015
:102110009F908F907F906F900C94DF2220E030E0B2
:1021200050E0261758F4F22FEE27E42BF52BDC01B4
:10213000ED93FD93CD012F5F3F4FF3CF08958AE0DC
:1021400090E00E949A02682F60958AE090E00E94D9
:102150009C020E94560F48EE53E060E070E08FEF63
:1021600090E00C94190D482F862F50E04E30510509
:1021700008F066C0FA01EC5CFF4F0C94642548EC53
:1021800050E066EC72E00C94370B2EE144E650E030
:1021900066EC72E00C94DC062EE14AE050E066EC5E
:1021A00072E00C9440072EE148EC50E066EC72E0DF
:1021B0000C949D072EE148EC50E066EC72E00C9424
:1021C0002E082EE14EE551E066EC72E00C94AC086E
:1021D0002EE144E650E066EC72E00C940A092EE130
:1021E00048EC50E066EC72E00C94CD052EE146E937
:1021F00050E066EC72E00C946A062EE14CE251E08D
:1022000066EC72E00C94680926E944E650E066EC5E
:1022100072E00C94B00B2EE148EC50E066EC72E0FA
:102220000C94A30A2EE148E250E066EC72E00C94B4
:10223000140A2EE144EF51E066EC72E00C94230E98
:102240000895EF92FF920F93E12CF12C01E020E032
:1022500049E068E086EA93E00E94931822E530E0C6
:1022600047E06AE070E085E893E00F91FF90EF901F
:102270000C94331D85E893E00E94A71B86EA93E047
:102280000C944919FF920F931F93CF93DF936BEE3A
:1022900071E08FE395E00E94D7218FE395E00E94E3
:1022A000981F46E050E063ED71E00E94AD0587FDA8
:1022B000F4CF83ED91E00E941027F82E83E18F1573
:1022C00008F46AC069ED71E08FE395E00E94D721C0
:1022D0008FE395E00E94981F46E050E063ED71E0C7
:1022E0000E94AD0587FDF4CF83ED91E00E94102799
:1022F000182F8E3008F050C066EC71E08FE395E047
:102300000E94D7218FE395E00E94981F46E050E09D
:1023100063ED71E00E94AD0587FDF4CF83ED91E0A0
:102320000E9410278830B8F5D12F90E0C92FC82B14
:1023300067EB71E08FE395E00E94A7210F2D112735
:1023400007FD10954AE050E0B8018FE395E00E9448
:10235000942262EB71E08FE395E00E94A72140E1B7
:1023600050E0BE018FE395E00E94DF22F801EE0FFE
:10237000FF1FE256FD4FD183C08361E06F0D609374
:102380009D028EE992E00E94191020919D02332750
:1023900027FD309503C003C02FEF3FEFC901DF9148
:1023A000CF911F910F91FF9008956FE771E08FE338
:1023B00095E00E94D7218FE395E00E94981F46E0A8
:1023C00050E06DEC71E00E94AD0587FDF4CF8DEC1F
:1023D00091E00E941027883088F4EEE9F2E020E0D6
:1023E00030E09927522F4427482B592B4193519382
:1023F0002F5F3F4F2E303105A9F709C06CE671E021
:102400008FE395E00E94D7218FEF9FEF08958EE034
:1024100090E008958FE395E00E94981F44E050E01B
:1024200069ED71E00E94AD058F3F09F469C06EEA65
:1024300072E08FE395E00E94A72169ED71E08FE3E0
:1024400095E00E94E92167E371E089ED91E00E9447
:102450003527892B11F40C94421164EC71E089ED5D
:1024600091E00E943527892B11F40C94D51169E372
:1024700071E089ED91E00E943527892B11F40E94CB
:10248000950B6BE371E089ED91E00E943527892B74
:1024900019F40E94380534C06DE371E089ED91E0D4
:1024A0000E943527892BD9F480E090E00E949A029F
:1024B000853118F40E94E20E23C068E972E08FE3D0
:1024C00095E00E94A72160919D02772767FD709596
:1024D0004AE050E08FE395E00E949C2211C06FE338
:1024E00071E089ED91E00E943527892B19F40E9453
:1024F0009F1006C068E872E08FE395E00E94D72144
:102500008FEF9FEF08950F931F93CF9386EA93E089
:102510000E940617892B09F449C086EA93E00E94BD
:102520001616C82F8091EE0181112DC0CF3F11F4F6
:1025300010920C0180910C01853040F7E82FF0E0FB
:10254000E151FE4FC0838F5F80930C018530F1F61F
:1025500064E08FEE91E00E947305C813D7CF81E04D
:102560008093EE010E94541E68577C4E8F4F9F4F00
:102570006093EA017093EB018093EC019093ED017D
:102580008091F00114C00E94541E0091EA01109144
:10259000EB012091EC013091ED0106171707280798
:1025A000390708F0B3CF1092EE01B0CF80E0CF91A1
:1025B0001F910F910895CF93DF932FEF2093E601A2
:1025C00020E12093E7019093E8018093E901C6EEB2
:1025D000D1E0688186EA93E00E945116892BC9F305
:1025E00045E853E061E070E087EC92E00E94F00380
:1025F000219681E0CA3ED80761F764E086EE91E05B
:102600000E947305682F86EA93E00E945116892B79
:10261000A1F3DF91CF910895CF93DF932FEF209314
:10262000E60127E22093E7019093E8018093E90116
:10263000C6EED1E0688186EA93E00E945116892BAC
:10264000C9F345E853E061E070E087EC92E00E9456
:10265000F003219681E0CA3ED80761F764E086EE78
:1026600091E00E947305682F86EA93E00E9451165C
:10267000892BA1F3DF91CF910895CF92DF92EF9252
:10268000FF92CF93DF9368EA70E08FE395E00E94BA
:10269000D72110929A0310929B0310929C031092E0
:1026A0009D03CEE0D0E080910A01882309F4E4C0C4
:1026B00060910B018091E1010E94B3100E9483128E
:1026C000C090DD01D090DE01E090DF01F090E001EC
:1026D0000E94541EC616D706E806F906B0F444E672
:1026E00050E06FEF7FEF8FEF90E00E94190D0E9496
:1026F000541E68517C4F8F4F9F4F6093DD01709344
:10270000DE018093DF019093E00160919A03709164
:102710009B0380919C0390919D0361157105810538
:10272000910509F20E94D6236B017C0120E034E27E
:1027300044E759E40E94A62387FF20C08091E1016D
:1027400090E00196BE010E940F258093E10168E0B0
:1027500070E080E090E00E940D2360930B016EE931
:1027600070E08FE395E00E94A7214AE050E060917D
:10277000E1018FE395E00E94C82275C020E034E2B9
:1027800044E759E4C701B6010E94882487FD40C090
:1027900020E836E948E95AE4C701B6010E94A623B9
:1027A00087FF36C0E090E101F12CFE2CEE248091F1
:1027B0000B01E82A10929A0310929B0310929C033B
:1027C00010929D0340919A0350919B0360919C034A
:1027D00070919D03452B462B472B09F044C0C70140
:1027E0000E940C1362E970E08FE395E00E94A7213C
:1027F00040E150E0B7018FE395E00E94DF2244EF13
:1028000051E060E07FEF80E090E00E94190DDACFA8
:1028100020E836E948E15BE4C701B6010E9488245C
:1028200087FD0DC020EC31EE44EE5BE4C701B6013C
:102830000E94A62387FF03C010920A0114C064E817
:1028400070E08FE395E00E94A72140919A03509198
:102850009B0360919C0370919D032AE030E08FE31D
:1028600095E00E94F52210929A0310929B03109219
:102870009C0310929D0317CFDF91CF91FF90EF90B3
:10288000DF90CF900895CF92DF92EF92FF920F9357
:102890001F9380919D021816ECF50E94541E009122
:1028A000E2011091E3012091E4013091E501061766
:1028B00017072807390710F580919E0290919F0213
:1028C0000E94DB120E94541E6B017C0168EE73E0D3
:1028D00080E090E00E940D239701860108511C4F73
:1028E0002F4F3F4F060F171F281F391F0093E2017C
:1028F0001093E3012093E4013093E501E0919C0201
:10290000F0E0EE0FFF1FE256FD4F608181810E94D3
:10291000B31037C06FEF7FEF8FEF90E00E940D2371
:1029200020E12093C7028B019C0141E13695279558
:10293000179507954A95D1F70F770093DB0200931F
:10294000F902009371038B019C0159E0369527959C
:10295000179507955A95D1F70F770093D1020093F9
:10296000EF0200936703DC01CB01B695A79597951D
:102970008795682F6F776093E502609303036093F8
:102980007B030E948312882309F46BC00091F1013C
:1029900010E0102F00279091F201092B8031D9F51A
:1029A00080919D02992787FD909540E0E42FF0E00B
:1029B000E817F9071CF5EE0FFF1FE256FD4F2081C7
:1029C000318120173107C1F41092EE016CEF70E0F5
:1029D0008FE395E00E94A72140E150E0B8018FE32A
:1029E00095E00E94DF2244EF51E060E07FEF80E05D
:1029F00090E00E94190D02C04F5FD8CF8091EE0188
:102A0000882379F148EE53E06FEF7FEF8FEF90E08E
:102A10000E94190D26C0873221F548EE53E060E090
:102A20007FEF80E090E00E94190D81E080939D028D
:102A300010939F0200939E026AEE70E08FE395E090
:102A40000E94A72140E150E0B8018FE395E00E9489
:102A5000DF2260919D028EE992E00E94191010928F
:102A60009C0245E853E06AE070E087EC92E00E9447
:102A7000F00360919A0370919B0380919C03909165
:102A80009D03611571058105910509F4C1C00E947E
:102A9000D6236B017C0120E034E244E759E40E9434
:102AA000A62387FF81C08091EE0181113FC08091F4
:102AB0009C0290E0019660919D02772767FD7095DA
:102AC0000E940F2580939C0266ED70E08FE395E0F5
:102AD0000E94A7214AE050E060919C028FE395E0BC
:102AE0000E94C12262ED70E08FE395E00E94A72171
:102AF000E0919C02F0E0EE0FFF1FE256FD4F608177
:102B0000718140E150E08FE395E00E94DF228091E7
:102B10009D02811175C040910B016EE08EE992E03B
:102B20000E948E108EE080939D026AC08091F00119
:102B30008031D1F520919D02E22FEE0FFF0BE2567E
:102B4000FD4F8091F10190E0982F88273091F2019C
:102B5000832B9183808320939C026EEB70E08FE344
:102B600095E00E94A721E0919D02EE0FFF0BE25637
:102B7000FD4F6081718140E150E08FE395E00E945C
:102B8000DF2260919D026F5F60939D028EE992E06B
:102B90000E94191080919D0285311CF084E1809380
:102BA0009D021092EE012CC020E836E948E15BE47A
:102BB000C701B6010E94882487FD0DC020EC31EECC
:102BC00044EE5BE4C701B6010E94A62387FF03C061
:102BD0000E943D1315C020EC31EE44EE5BE4C701CA
:102BE000B6010E94882487FD0BC020EC31EE44EE34
:102BF0005CE4C701B6010E94A62387FD0E949F10D6
:102C000010929A0310929B0310929C0310929D03C2
:102C10000E940A121816190614F480939D021F913F
:102C20000F91FF90EF90DF90CF9008952091750461
:102C30003091760428173907B9F4909133048091C4
:102C40003404981789F0E0913304F0E0EB5CFB4F1B
:102C500080812091330430E02F5F3F4F2F73332763
:102C60002093330490E008958FEF9FEF0895209113
:102C70007504309176042817390781F49091330454
:102C800080913404981751F0E0913304F0E0EB5C4C
:102C9000FB4F8081992787FD909508958FEF9FEFD7
:102CA00008958091EA03811173C01092E70380E8D0
:102CB0008093DB0380E28093DA0380E190E030E1EF
:102CC00020E240E6DC01A753BC4FEFEFE80F67FFBF
:102CD00002C04C9301C03C93F0E0E753FC4F2083CB
:102CE000660F029779F782E18093C8038091800094
:102CF0008093E403809181008093E30380918400BA
:102D0000909185009093E2038093E1038091880085
:102D1000909189009093E0038093DF038091860077
:102D2000909187009093DE038093DD0380916F0084
:102D30008093DC0380918000887382688093800098
:102D400080918100807E896180938100109285004E
:102D50001092840082ED90E0909389008093880027
:102D600085EA91E090938700809386006093E60364
:102D70006093E50389E08093E70381E08093EA03B1
:102D800080916F00846080936F0081E090E00895EF
:102D900080E090E0089520917504309176048217C8
:102DA000930789F53091F1032091F203321759F11D
:102DB0002091F2034091330430E02F5F3F4F2F7397
:102DC000332750E024173507B9F0E091F203F0E023
:102DD000ED50FC4F60832091F20330E02F5F3F4FB6
:102DE0002F7333272093F203DC01ED91FC910484CF
:102DF000F585E02D099504C0FC01258D2260258F05
:102E000080E090E008958FEF9FEF08952091750482
:102E1000309176042817390771F480913404209199
:102E2000330490E0805C9F4F821B910960E470E066
:102E30000E940F25089580E090E008952091750488
:102E4000309176042817390739F48FB7F894109227
:102E50003404109233048FBF089520E001972FEFC0
:102E60008F3F9207D9F70895209175043091760429
:102E700028173907B1F0FC01258D2E7F2D7F258F76
:102E80002FB7F89410923404109233041092F20386
:102E90001092F10390937604809375042FBF81E024
:102EA000089580E008950F931F93CF93DF93EC0173
:102EB0000E94601E0091ED031091EE032091EF033C
:102EC0003091F0034091EA03442319F01092EB0390
:102ED00069C0EE85FF8540815D85452309F45AC0B0
:102EE0009B01201B310B4091EB03411112C0253F88
:102EF00041E034070CF44EC0359527953093E90333
:102F00002093E8031092EC0328E02093EB031E8E3D
:102F100041C04091EC03440F4093EC034091EB031C
:102F200041504093EB034091E8035091E90342176D
:102F3000530728F42091EC0321602093EC032091A7
:102F4000EB03211127C02091EC032F8F21E02E8F5E
:102F5000209134044091330430E02F5F3F4F2F73B2
:102F6000332750E02417350791F0E0913404209185
:102F7000EC03F0E0EB5CFB4F20832091340430E065
:102F80002F5F3F4F2F7333272093340403C02D8DC1
:102F900021602D8F6093ED037093EE038093EF0318
:102FA0009093F003DF91CF911F910F91089580913D
:102FB000750490917604009711F00C9453170895BE
:102FC0001F920F920FB60F9211242F933F934F939E
:102FD0005F936F937F938F939F93AF93BF93EF9381
:102FE000FF930E94D717FF91EF91BF91AF919F91EF
:102FF0008F917F916F915F914F913F912F910F90A2
:103000000FBE0F901F9018951F920F920FB60F9240
:1030100011242F933F934F935F936F937F938F93DD
:103020009F93AF93BF93EF93FF930E94D717FF91A6
:10303000EF91BF91AF919F918F917F916F915F9130
:103040004F913F912F910F900FBE0F901F901895A9
:103050001F920F920FB60F9211242F933F934F930D
:103060005F936F937F938F939F93AF93BF93EF93F0
:10307000FF930E94D717FF91EF91BF91AF919F915E
:103080008F917F916F915F914F913F912F910F9011
:103090000FBE0F901F9018951F93CF93DF93EC01F5
:1030A000162F61E0812F0E94E71E61E0812F0E94B0
:1030B000201F812F90E0FC01EE56FB4FE491E88B3E
:1030C000FC01EA55FB4FE491F0E0EE0FFF1FEC53DB
:1030D000FB4F859194919A8B898BDF91CF911F91B2
:1030E00008951F93CF93DF93EC01162F60E0812F9B
:1030F0000E94E71E1C87612F70E0FB01EE56FB4F1C
:10310000E491ED87FB01EA55FB4FE491F0E0EE0F0F
:10311000FF1FE654FB4F859194919F878E87DF9127
:10312000CF911F910895CF92DF92EF92FF920F936C
:103130001F93CF93DF93EC01162FC7011B821A82D6
:1031400078EEC72E73E0D72EE12CF12CCC82DD82F5
:10315000EE82FF82EDE8F1E0F983E8831C8A1B8AA6
:103160001E8A1D8A188E1F8A1A8E198E9C8F8B8F2D
:103170008D8D8C7F20FB82F900FB83F98D8F642F6E
:10318000CE010E944C18612FCE01DF91CF911F918B
:103190000F91FF90EF90DF90CF900C947118CF9328
:1031A000DF93EC018C858631E0F520916800883052
:1031B00050F091E08E3008F490E081E001C0880F7B
:1031C0009A95EAF701C084E0822B809368002C85F1
:1031D000283038F02E3040F0263148F0E0E0F0E0C2
:1031E00008C0EDE6F0E005C0EBE6F0E002C0ECE67A
:1031F000F0E03081283030F481E001C0880F2A955A
:10320000EAF70DC0822F90E02E3010F4089701C02D
:103210000E9791E001C0990F8A95EAF7892F832BC9
:103220008083898D9A8D0E942D17CE01DF91CF91D9
:103230000C943417FC014485463150F5483028F091
:103240004E3030F4EBE6F0E005C0EDE6F0E002C011
:10325000ECE6F0E05081483040F481E090E0042E4C
:1032600001C0880F0A94EAF710C0242F30E04E30D6
:1032700018F42850310902C02E50310981E090E045
:10328000022E01C0880F0A94EAF780958523808377
:1032900008952DE831E0FC01318320830C941A1944
:1032A0001F920F920FB60F9211240F900FBE0F9026
:1032B0001F9018951F920F920FB60F9211248F93A3
:1032C0009F93EF93FF93F8948091C8038823D9F0DC
:1032D000E091C803F0E0E753FC4F80818150808388
:1032E000E091C803F0E0E753FC4F8081811135C0C5
:1032F000809180008058809380008091C803815025
:103300008093C8032AC08091EA03882331F1809119
:10331000DC0380936F008091E403809380008091B0
:10332000E303809381008091E1039091E203909305
:103330008500809384008091DF039091E003909357
:103340008900809388008091DD039091DE03909343
:103350008700809386001092EA03FF91EF919F917E
:103360008F910F900FBE0F901F9018958091A6041B
:1033700090E02091A704821B910908952091A70451
:103380008091A604281750F4E22FF0E0E855FB4F97
:10339000808190E02F5F2093A70408958FEF9FEF27
:1033A0000895E091A7048091A604E81730F4F0E0B6
:1033B000E855FB4F808190E008958FEF9FEF0895CF
:1033C0000895CF92DF92EF92FF920F931F93CF93C6
:1033D000DF937C01CB018A0120918304222389F0B1
:1033E000EB016B01C40ED51ECC15DD0569F06991AA
:1033F000D701ED91FC910190F081E02DC701099575
:10340000F3CF642F0E94511AC801DF91CF911F9111
:103410000F91FF90EF90DF90CF900895CF93DF93BF
:103420001F92CDB7DEB76983209183042223D1F0A8
:1034300020918404203240F021E030E0FC0133830D
:10344000228380E090E015C080918504E82FF0E0B1
:10345000EA57FB4F998190838F5F80938504809317
:10346000840405C061E0CE0101960E94511A81E0FA
:1034700090E00F90DF91CF910895FC0113821282AA
:1034800048EE53E060E070E04483558366837783C1
:103490008FE991E091838083089587E794E00C940D
:1034A0003D1A613298F420913505243089F46093F7
:1034B000EA04FC018CEE94E0DC012A2F281B26177D
:1034C00018F421912D93F9CF80E0089581E00895BB
:1034D00082E0089585ED8093BC008091BC0084FD5E
:1034E000FCCF10923505089585EC8093BC001092B6
:1034F000350508951F920F920FB60F9211242F9346
:103500003F934F935F936F937F938F939F93AF936B
:10351000BF93EF93FF938091B900887F803609F4C1
:103520009EC078F5883209F45DC090F4803109F4CA
:1035300056C038F4882309F4F5C0883009F44FC028
:10354000F5C0883109F44EC0803209F45FC0EEC086
:10355000803409F46AC058F4803309F457C08833C2
:1035600009F0E4C08093C8040E94741ADFC080355B
:1035700009F44FC0883509F45DC0883409F0D6C01D
:10358000D3C0883909F4C4C0A8F4883709F467C0E7
:1035900038F4883609F463C0803709F460C0C6C0C7
:1035A000883809F4B5C0803909F45FC0803809F063
:1035B000BDC05BC0803B09F483C038F4803A09F495
:1035C00066C0883A09F47CC0B1C0803C09F4A4C04C
:1035D000883C09F4A1C0883B09F487C0A7C080914A
:1035E000340510C090910D0580910C05981770F569
:1035F000E0910D0581E08E0F80930D05F0E0E25F14
:10360000FA4F80818093BB0085EC83C08093C8040F
:103610008BC0E0910D0581E08E0F80930D058091A8
:10362000BB00F0E0E25FFA4F808390910D0580913E
:103630000C056BC0E0910D0581E08E0F80930D05A8
:103640008091BB00F0E0E25FFA4F80838091330508
:1036500081116AC081E08093320584EA5EC083E014
:10366000809335051092C904CFCF8091C904803270
:1036700008F04EC0E091C90481E08E0F8093C90428
:103680008091BB00F0E0E653FB4F8083BDCF0E94EA
:10369000741A8091C904803230F4E091C904F0E0DA
:1036A000E653FB4F10826091C90470E0E0912E0553
:1036B000F0912F058AEC94E009951092C90436C068
:1036C00084E0809335051092EB041092EA04E091B7
:1036D0003005F091310509958091EA04811105C00A
:1036E00081E08093EA041092EC04E091EB0481E025
:1036F0008E0F8093EB04F0E0E451FB4F80818093C8
:10370000BB009091EB048091EA04981708F47CCFF9
:1037100085E88093BC000AC085EC8093BC001092C1
:10372000350504C01092C8040E946A1AFF91EF91F7
:10373000BF91AF919F918F917F916F915F914F91C9
:103740003F912F910F900FBE0F901F901895CF9320
:10375000DF93EC0188859985009711F00E9424265B
:103760008E8187FD05C060E0DF91CF910C94E71E4C
:10377000DF91CF910895CF93DF93EC018E8187FD88
:1037800007C061E00E94E71E60E08E810E94201F5A
:1037900081E08983DF91CF910895EF92FF920F939B
:1037A0001F93CF93DF93EC017B0188859985009768
:1037B00011F00E9424269D858A85981303C083E01A
:1037C00090E002C084E090E08E9D80018F9D100DFE
:1037D0009E9D100D11241D830C83C8010E948C2511
:1037E00099878887009741F0A80160E070E00E9407
:1037F0002E27FB82EA8204C01D821C821B821A8251
:10380000DF91CF911F910F91FF90EF900895FC01F0
:1038100021E095858285981320E0CB0136E09695CE
:1038200087953A95E1F7482F43704587CB0154E0DF
:10383000969587955A95E1F7382F33703287CB01EB
:10384000969587959695879583708387862F837045
:10385000848781E06F3F710511F008F080E080837C
:1038600080859185892B51F091E0431390E0921768
:1038700029F062817381CF010C94CD1B0895CF9202
:10388000DF92EF92FF920F931F93CF93DF93CDB709
:10389000DEB729970FB6F894DEBF0FBECDBF8C01FF
:1038A000DC0118968D919C911997892B09F49AC087
:1038B0000E94601EF801C684D784E088F1886C19E4
:1038C0007D098E099F09623371058105910580F399
:1038D000F894848195819A838983A085B1857D013F
:1038E000EFEFEE1AFE0A8C918987D8019C915296CF
:1038F0000D90BC91A02DF8018489992309F42EC064
:103900009C91982B98879C91809589238F838F8198
:103910008E8388E08D8358856F8149853D812E8116
:1039200089819A81F7015C9347FD252F3A952C9365
:10393000262F39F0441F00C000006C93000000C027
:10394000F2CF38E041916C930000019761F7F801E4
:10395000B38BA28B49873D832E8338C09C91982BD3
:1039600098879C91809589238F838F818C8388E0B1
:103970008B8358856F8149853B812C8189819A8110
:10398000F7015C9347FD252F00C000C02C9300C0B9
:1039900000C000C000C000C06C930000262F3A9504
:1039A00041F0441F000000C000C000C000C000C0C3
:1039B000E8CF38E0419100C06C9300C0019709F74F
:1039C000F801B38BA28B49873B832C839A8389832D
:1039D00078940E94601ED8011E966D937D938D93FE
:1039E0009C93519729960FB6F894DEBF0FBECDBFBA
:1039F000DF91CF911F910F91FF90EF90DF90CF90CB
:103A000008951F93CF93DF93EC01162F89818823AC
:103A100031F08E8187FD03C060E00E94E71E1E83A7
:103A20008981882341F061E0812F0E94E71E60E0D8
:103A3000812F0E94201F812F90E0FC01EA55FB4F4F
:103A4000E491F0E0EE0FFF1FEC53FB4F2591349112
:103A50003B8B2A8BFC01EE56FB4F84918C8BDF91C4
:103A6000CF911F910895EF92FF920F931F93CF93E1
:103A7000DF931F92CDB7DEB77C018B01FC01118271
:103A800017821186108616861786108A118AB90148
:103A900049830E94071CB801C7010E94CD1B4981C0
:103AA000642FC7010F90DF91CF911F910F91FF906D
:103AB000EF900C94011DCF92DF92EF92FF920F9343
:103AC0001F93CF93DF93FC0182819381681779075D
:103AD00008F04DC0CA01AA27BB27182FC32ED42E29
:103AE000E52EFF24DC2DC22F0781002361F0809F8B
:103AF000C0011124192FC09E60011124DD2D209FCB
:103B0000C0011124C92FF5848285A085B185F812E2
:103B100008C0CB01880F991F860F971F8A0F9B1F24
:103B200017C0CB01880F991F880F991F8A0F9B1F01
:103B3000452F552766277727DC01AF0DB11D0023E0
:103B400029F0409F90011124232F01C0242F2C9392
:103B50002285DC01A20FB11D1C932385DC01A20F7D
:103B6000B11DDC932485FC01E20FF11DC083DF91C0
:103B7000CF911F910F91FF90EF90DF90CF9008951C
:103B8000962F50E060E070E0592B682BCB01BA0112
:103B90000895FF920F931F93CF93DF93EC01FF24BF
:103BA000F394F60E2F81F21679F1088519852150CC
:103BB000B9F06F3F59F430E040E050E06FEF7FEF35
:103BC00080E090E00E944525B9010CC08F2D90E067
:103BD000982F88270197622F70E00E94FB2402C073
:103BE00060E070E0F8018C819D81AF01401B510BBA
:103BF0004817590740F44081469FC001479F900DE8
:103C000011249193F0CFFF82DF91CF911F910F91FB
:103C1000FF9008951F920F920FB60F9211242F93C9
:103C20003F938F939F93AF93BF938091370590916C
:103C30003805A0913905B0913A053091360523E059
:103C4000230F2D3720F40196A11DB11D05C026E8D4
:103C5000230F0296A11DB11D2093360580933705D1
:103C600090933805A0933905B0933A0580913B05B0
:103C700090913C05A0913D05B0913E050196A11D96
:103C8000B11D80933B0590933C05A0933D05B093F7
:103C90003E05BF91AF919F918F913F912F910F90D2
:103CA0000FBE0F901F9018952FB7F89460913705AD
:103CB000709138058091390590913A052FBF08958C
:103CC0003FB7F89480913B0590913C05A0913D054C
:103CD000B0913E0526B5A89B05C02F3F19F001966F
:103CE000A11DB11D3FBF6627782F892F9A2F620F24
:103CF000711D811D911D42E0660F771F881F991F5E
:103D00004A95D1F70895789484B5826084BD84B5CE
:103D1000816084BD85B5826085BD85B5816085BDC6
:103D2000EEE6F0E0808181608083E1E8F0E01082DF
:103D3000808182608083808181608083E0E8F0E020
:103D4000808181608083E1EBF0E08081846080830A
:103D5000E0EBF0E0808181608083EAE7F0E0808141
:103D600084608083808182608083808181608083A1
:103D70008081806880831092C1000895833081F033
:103D800028F4813099F08230A1F008958730A9F0AD
:103D90008830B9F08430D1F4809180008F7D03C0E9
:103DA000809180008F7780938000089584B58F770D
:103DB00002C084B58F7D84BD08958091B0008F7757
:103DC00003C08091B0008F7D8093B0000895CF93A1
:103DD000DF9390E0FC01EE56FB4F2491FC01EA5585
:103DE000FB4F8491882349F190E0880F991FFC01D3
:103DF000E253FB4FA591B4918C539B4FFC01C591AD
:103E0000D4919FB7611108C0F8948C9120958223BA
:103E10008C93888182230AC0623051F4F8948C918B
:103E2000322F309583238C938881822B888304C022
:103E3000F8948C91822B8C939FBFDF91CF91089542
:103E40000F931F93CF93DF931F92CDB7DEB7282F29
:103E500030E0F901E258FB4F8491F901EE56FB4F37
:103E60001491F901EA55FB4F04910023C9F088230E
:103E700021F069830E94BE1E6981E02FF0E0EE0F01
:103E8000FF1FEC53FB4FA591B4919FB7F8948C9111
:103E9000611103C01095812301C0812B8C939FBFBA
:103EA0000F90DF91CF911F910F910895CF93DF93E2
:103EB000282F30E0F901E258FB4F8491F901EE56CA
:103EC000FB4FD491F901EA55FB4FC491CC2391F0FB
:103ED00081110E94BE1EEC2FF0E0EE0FFF1FE65492
:103EE000FB4FA591B4912C912D2381E090E021F41A
:103EF00080E002C080E090E0DF91CF910895FC0166
:103F0000818D228D90E0805C9F4F821B91098F7381
:103F100099270895FC01918D828D981731F0828D3B
:103F2000E80FF11D858D90E008958FEF9FEF0895C4
:103F3000FC01918D828D981761F0828DDF01A80FB1
:103F4000B11D5D968C91928D9F5F9F73928F90E0D3
:103F500008958FEF9FEF08958CE191E2892B49F04E
:103F600080E090E0892B29F00E941C2181110C94A3
:103F700000000895FC01848DDF01A80FB11DA35A34
:103F8000BF4F2C91848D90E001968F739927848F79
:103F9000A689B7892C93A089B1898C9180648C9370
:103FA000938D848D981306C00288F389E02D80815B
:103FB0008F7D80830895CF93DF93EC01888D8823D4
:103FC000C9F0EA89FB89808185FD05C0A889B98986
:103FD0008C9186FD0FC00FB607FCF5CF808185FF61
:103FE000F2CFA889B9898C9185FFEDCFCE010E94CF
:103FF000BA1FE7CFDF91CF910895CF92DF92FF9262
:104000000F931F93CF93DF931F92CDB7DEB76C0151
:1040100081E0D60158968C9358975B969C915B975C
:104020005C968C915C97981307C05096ED91FC912B
:104030005197808185FD2EC0F601038D10E00F5F42
:104040001F4F0F731127F02EF601848DF81211C047
:104050000FB607FCF9CFD6015096ED91FC91519720
:10406000808185FFF1CFC60169830E94BA1F6981F3
:10407000EBCF838DE80FF11DE35AFF4F6083D6012C
:104080005B960C935B975296ED91FC9153978081D0
:1040900080620CC0D6015696ED91FC9157976083D3
:1040A0005096ED91FC91519780818064808381E0EE
:1040B00090E00F90DF91CF911F910F91FF90DF90D3
:1040C000CF900895BF92CF92DF92EF92FF92CF935D
:1040D000DF93EC016A017B01B22EE889F98982E065
:1040E0008083411581EE580761057105A1F060E0FC
:1040F00079E08DE390E0A70196010E9423252150ED
:10410000310941095109569547953795279521154C
:1041100080E1380798F0E889F989108260E874E84E
:104120008EE190E0A70196010E94232521503109DC
:10413000410951095695479537952795EC85FD8599
:104140003083EE85FF852083188EEC89FD89B0824F
:10415000EA89FB89808180618083EA89FB8980818B
:1041600088608083EA89FB89808180688083EA890E
:10417000FB8980818F7D8083DF91CF91FF90EF90CD
:10418000DF90CF90BF9008951F920F920FB60F92BD
:1041900011242F938F939F93EF93FF93E0914F05FB
:1041A000F09150058081E0915505F091560582FD12
:1041B00012C09081809158058F5F8F7320915905AF
:1041C000821751F0E0915805F0E0E15CFA4F958FCD
:1041D0008093580501C08081FF91EF919F918F914D
:1041E0002F910F900FBE0F901F9018951F920F9256
:1041F0000FB60F9211242F933F934F935F936F93BA
:104200007F938F939F93AF93BF93EF93FF938FE32E
:1042100095E00E94BA1FFF91EF91BF91AF919F91DE
:104220008F917F916F915F914F913F912F910F905F
:104230000FBE0F901F9018958FE395E00E947F1F8F
:1042400021E0892B09F420E0822F08951092420585
:104250001092410588EE93E0A0E0B0E08093430522
:1042600090934405A0934505B09346058FEA91E0ED
:104270009093400580933F0585EC90E090934C052A
:1042800080934B0584EC90E090934E0580934D0510
:1042900080EC90E09093500580934F0581EC90E086
:1042A000909352058093510582EC90E090935405D1
:1042B0008093530586EC90E09093560580935505C6
:1042C000109258051092590510925A0510925B05EC
:1042D0000895CF92DF92EF92FF920F931F93CF93A7
:1042E000DF937C016A01EB0100E010E00C151D0575
:1042F00071F06991D701ED91FC910190F081E02D71
:10430000C7010995892B19F00F5F1F4FEFCFC80127
:10431000DF91CF911F910F91FF90EF90DF90CF90A1
:1043200008956115710581F0DB010D900020E9F71A
:10433000AD0141505109461B570BDC01ED91FC9139
:104340000280F381E02D099480E090E00895EF92DF
:10435000FF920F931F93CF93DF938C017B01C0E0FB
:10436000D0E0F701EC0FFD1F6491662359F0F801CE
:10437000A081B181ED91FC91C8010995892B11F0C3
:104380002196EFCFCE01DF91CF911F910F91FF903A
:10439000EF9008950C949121DC01ED91FC91019036
:1043A000F081E02D09946BEB71E00C9491210F9357
:1043B0001F93CF93DF93EC010E94A7218C01CE01C4
:1043C0000E94D321800F911FDF91CF911F910F91F8
:1043D00008950F931F93CF93DF93EC010E949121D7
:1043E0008C01CE010E94D321800F911FDF91CF91CC
:1043F0001F910F9108958F929F92AF92BF92DF927B
:10440000EF92FF920F931F93CF93DF93CDB7DEB759
:10441000A1970FB6F894DEBF0FBECDBF7C01F42F7D
:10442000D52ECB0119A2223008F42AE08E010F5DAF
:104430001F4F822E912CA12CB12C6F2F7D2DA50109
:1044400094010E942325F22FD32ECA010150110995
:104450006A3014F4E0E301C0E7E3E60FD801EC931F
:10446000232B242B252B49F7B801C7010E9491214A
:10447000A1960FB6F894DEBF0FBECDBFDF91CF91EE
:104480001F910F91FF90EF90DF90BF90AF909F90A2
:104490008F900895CF92DF92EF92FF920F931F9328
:1044A000CF93DF93EC016A017B012115310579F48B
:1044B000E881F9810190F081E02D642FDF91CF91A7
:1044C0001F910F91FF90EF90DF90CF9009942A30C9
:1044D0003105E9F477FF1AC06DE20E94CC218C010E
:1044E00044275527BA014C195D096E097F092AE056
:1044F000CE010E94FB21800F911FDF91CF911F9170
:104500000F91FF90EF90DF90CF9008952AE0B701D0
:10451000A601CE01DF91CF911F910F91FF90EF90F7
:10452000DF90CF900C94FB219A01AB01662757FDD9
:104530006095762F0C944A220F931F93CF93DF93AD
:10454000EC019A01AB01662757FD6095762F0E941A
:104550004A228C01CE010E94D321800F911FDF914E
:10456000CF911F910F9108952115310541F4DC0180
:10457000ED91FC910190F081E02D642F09940C9451
:10458000FB219A01462F50E060E070E00C94B422C9
:104590000F931F93CF93DF93EC019A01462F50E0C6
:1045A00060E070E00E94B4228C01CE010E94D32111
:1045B000800F911FDF91CF911F910F9108950F935D
:1045C0001F93CF93DF93EC019A01AB0160E070E0A1
:1045D0000E94B4228C01CE010E94D321800F911F32
:1045E000DF91CF911F910F9108950F931F93CF9358
:1045F000DF93EC010E94B4228C01CE010E94D321F2
:10460000800F911FDF91CF911F910F910895FC01B1
:1046100044835583668377830895CF93DF9300D0D7
:1046200000D0CDB7DEB79B01AC01611571058105E6
:10463000910569F069833A834B835C830E9402276A
:1046400029813A814B815C810E94452503C060E04D
:1046500070E0CB010F900F900F900F90DF91CF91F2
:10466000089508950E94831E0E9431230E94940F92
:10467000CCEADFE10E9443142097E1F30E94AC1FD3
:10468000F9CF5058BB27AA270ED008C1F9D030F077
:10469000FED020F031F49F3F11F41EF4EEC00EF472
:1046A000E095E7FBE4C0E92F0AD180F3BA1762076F
:1046B00073078407950718F071F49EF522C10EF474
:1046C000E0950B2EBA2FA02D0B01B90190010C0122
:1046D000CA01A0011124FF27591B99F0593F50F43A
:1046E000503E68F11A16F040A22F232F342F442792
:1046F000585FF3CF469537952795A795F04053958A
:10470000C9F77EF41F16BA0B620B730B840BBAF059
:104710009150A1F0FF0FBB1F661F771F881FC2F7C4
:104720000EC0BA0F621F731F841F48F487957795D8
:104730006795B795F7959E3F08F0B3CF9395880F8F
:1047400008F09927EE0F9795879508956CD008F497
:1047500081E00895BCD088F09F5790F0B92F992739
:10476000B751A0F0D1F0660F771F881F991F1AF07C
:10477000BA95C9F712C0B13081F0C3D0B1E0089545
:10478000C0C0672F782F8827B85F39F0B93FCCF3C6
:10479000869577956795B395D9F73EF49095809572
:1047A000709561957F4F8F4F9F4F0895E89409C092
:1047B00097FB3EF490958095709561957F4F8F4F54
:1047C0009F4F9923A9F0F92F96E9BB279395F6956A
:1047D000879577956795B795F111F8CFFAF4BB0FE8
:1047E00011F460FF1BC06F5F7F4F8F4F9F4F16C04C
:1047F000882311F096E911C0772321F09EE8872FD6
:10480000762F05C0662371F096E8862F70E060E091
:104810002AF09A95660F771F881FDAF7880F96950A
:10482000879597F90895990F0008550FAA0BE0E8AE
:10483000FEEF16161706E807F907C0F01216130662
:10484000E407F50798F0621B730B840B950B39F4A2
:104850000A2661F0232B242B252B21F408950A2608
:1048600009F4A140A6958FEF811D811D089597F948
:104870009F6780E870E060E008959FEF80EC089506
:1048800000240A941616170618060906089500242F
:104890000A9412161306140605060895092E0394A9
:1048A000000C11F4882352F0BB0F40F4BF2B11F41D
:1048B00060FF04C06F5F7F4F8F4F9F4F089557FD7C
:1048C0009058440F551F59F05F3F71F04795880F7E
:1048D00097FB991F61F09F3F79F087950895121615
:1048E00013061406551FF2CF4695F1DF08C01616C1
:1048F00017061806991FF1CF869571056105089472
:104900000895E894BB2766277727CB0197F9089588
:104910008ADF08F48FEF08950BD0C0CFB1DF28F005
:10492000B6DF18F0952309F0A2CFA7CF1124EACF64
:10493000C6DFA0F3959FD1F3950F50E0551F629FFE
:10494000F001729FBB27F00DB11D639FAA27F00DE8
:10495000B11DAA1F649F6627B00DA11D661F829F0F
:104960002227B00DA11D621F739FB00DA11D621FF4
:10497000839FA00D611D221F749F3327A00D611D11
:10498000231F849F600D211D822F762F6A2F1124F3
:104990009F5750408AF0E1F088234AF0EE0FFF1F46
:1049A000BB1F661F771F881F91505040A9F79E3F7D
:1049B000510570F05CCFA6CF5F3FECF3983EDCF37F
:1049C000869577956795B795F795E7959F5FC1F7BA
:1049D000FE2B880F911D9695879597F90895991B41
:1049E00079E004C0991F961708F0961B881F7A95E6
:1049F000C9F780950895AA1BBB1B51E107C0AA1FE8
:104A0000BB1FA617B70710F0A61BB70B881F991F6F
:104A10005A95A9F780959095BC01CD01089597FB13
:104A2000072E16F4009407D077FD09D00E94FB24CE
:104A300007FC05D03EF4909581959F4F08957095A1
:104A400061957F4F0895A1E21A2EAA1BBB1BFD01A1
:104A50000DC0AA1FBB1FEE1FFF1FA217B307E4075D
:104A6000F50720F0A21BB30BE40BF50B661F771FB5
:104A7000881F991F1A9469F7609570958095909595
:104A80009B01AC01BD01CF010895052E97FB1EF4DB
:104A900000940E945C2557FD07D00E94232507FC47
:104AA00003D04EF40C945C2550954095309521959B
:104AB0003F4F4F4F5F4F089590958095709561954A
:104AC0007F4F8F4F9F4F0895EE0FFF1F0590F4917A
:104AD000E02D09940E947D25A59F900DB49F900D17
:104AE000A49F800D911D11240895B7FF0C946A2591
:104AF0000E946A25821B930B0895A29FB001B39F69
:104B0000C001A39F700D811D1124911DB29F700DD6
:104B1000811D1124911D0895CF93DF93823091055B
:104B200010F482E090E0E091DE05F091DF0520E0F6
:104B300030E0A0E0B0E0309739F140815181481772
:104B40005907B8F04817590771F48281938110977B
:104B500029F013969C938E9312972CC09093DF05A7
:104B60008093DE0527C02115310531F04217530728
:104B700018F0A901DB0101C0EF019A01BD01DF01BD
:104B80000280F381E02DD7CF21153105F9F0281BE4
:104B9000390B2430310580F48A819B8161157105C0
:104BA00021F0FB019383828304C09093DF058093FF
:104BB000DE05FE01329644C0FE01E20FF31F819331
:104BC000919322503109398328833AC02091DC0522
:104BD0003091DD05232B41F4209102013091030136
:104BE0003093DD052093DC05209100013091010117
:104BF0002115310541F42DB73EB740910401509184
:104C00000501241B350BE091DC05F091DD05E21771
:104C1000F307A0F42E1B3F0B2817390778F0AC01DF
:104C20004E5F5F4F2417350748F04E0F5F1F5093BC
:104C3000DD054093DC058193919302C0E0E0F0E054
:104C4000CF01DF91CF910895CF93DF93009709F4BF
:104C500087C0FC01329713821282C091DE05D09189
:104C6000DF05209781F420813181280F391F809141
:104C7000DC059091DD058217930779F5F093DD054A
:104C8000E093DC056DC0DE0120E030E0AE17BF0729
:104C900050F412964D915C9113979D014115510569
:104CA00009F1DA01F3CFB383A28340815181840FEC
:104CB000951F8A179B0771F48D919C911197840F12
:104CC000951F02969183808312968D919C911397E4
:104CD000938382832115310529F4F093DF05E09356
:104CE000DE053EC0D9011396FC93EE9312974D91C9
:104CF0005D91A40FB51FEA17FB0779F480819181BC
:104D0000840F951F0296D90111969C938E938281F0
:104D1000938113969C938E931297E0E0F0E08A8142
:104D20009B81009719F0FE01EC01F9CFCE010296AC
:104D300028813981820F931F2091DC053091DD0598
:104D40002817390769F4309729F41092DF0510927B
:104D5000DE0502C013821282D093DD05C093DC050C
:104D6000DF91CF9108958F929F92AF92BF92CF9291
:104D7000DF92EF92FF92CF93DF93EC01688179810C
:104D80008A819B81611571058105910521F464E299
:104D900079ED8BE597E02DE133EF41E050E00E94A3
:104DA000452549015A019B01AC01A7EAB1E40E94E3
:104DB0006A256B017C01ACEEB4EFA50194010E9461
:104DC0007825C60ED71EE81EF91EF7FE06C081E044
:104DD000C81AD108E10880E8F80AC882D982EA82B4
:104DE000FB82C701B6019F77DF91CF91FF90EF90D3
:104DF000DF90CF90BF90AF909F908F9008950E94CA
:104E0000B326089586E091E00E94B326089560934A
:104E1000060170930701809308019093090108959A
:104E2000FC0188279927E89421912032E9F3293061
:104E300010F02E30C8F32B3241F02D3239F4689443
:104E400004C00E943E27820F911D219120532A30D9
:104E5000C0F31EF4909581959F4F0895DC0101C029
:104E60006D9341505040E0F70895FB01DC018D91B6
:104E7000019080190110D9F3990B08957AE0979F5A
:104E8000902D879F802D910D11240895F999FECFC3
:104E900092BD81BDF89A992780B50895262FF9997A
:104EA000FECF1FBA92BD81BD20BD0FB6F894FA9A0D
:104EB000F99A0FBE0196089514E0CEEDD4E004C037
:104EC000FE010E9466252296C03ED107C9F7F894DC
:024ED000FFCF12
:104ED2000000E00580000100000001060501050553
:104EE20001000101010101195374617274696E6755
:104EF2002050524F504147414E442D455945206B59
:104F020065726E656C3A0070006D003F007200774A
:104F12000000010203040506070809000504030254
:104F22000100090807060502040006080709050131
:104F3200030203010400050906080709060005012A
:104F42000402030104000509060807FFFF08070918
:104F520006000501040203FFFF00000000CB1669F2
:104F6200210617161637161E175116000000000EDE
:104F72001AE119B619BE19D119E01900000000FD95
:104F82001F69217F1F981F8A1FDB1F0D0A006E6198
:0C4F92006E00696E66006F7666002E00EF
:107E0000112484B714BE81FFF0D085E080938100F7
:107E100082E08093C00088E18093C10086E0809377
:107E2000C20080E18093C4008EE0C9D0259A86E02C
:107E300020E33CEF91E0309385002093840096BBD3
:107E4000B09BFECF1D9AA8958150A9F7CC24DD24C4
:107E500088248394B5E0AB2EA1E19A2EF3E0BF2EE7
:107E6000A2D0813461F49FD0082FAFD0023811F036
:107E7000013811F484E001C083E08DD089C08234E0
:107E800011F484E103C0853419F485E0A6D080C0E4
:107E9000853579F488D0E82EFF2485D0082F10E0AE
:107EA000102F00270E291F29000F111F8ED06801E7
:107EB0006FC0863521F484E090D080E0DECF843638
:107EC00009F040C070D06FD0082F6DD080E0C81688
:107ED00080E7D80618F4F601B7BEE895C0E0D1E017
:107EE00062D089930C17E1F7F0E0CF16F0E7DF06D8
:107EF00018F0F601B7BEE89568D007B600FCFDCFD4
:107F0000A601A0E0B1E02C9130E011968C91119780
:107F100090E0982F8827822B932B1296FA010C0160
:107F200087BEE89511244E5F5F4FF1E0A038BF0790
:107F300051F7F601A7BEE89507B600FCFDCF97BE46
:107F4000E89526C08437B1F42ED02DD0F82E2BD052
:107F50003CD0F601EF2C8F010F5F1F4F84911BD097
:107F6000EA94F801C1F70894C11CD11CFA94CF0C13
:107F7000D11C0EC0853739F428D08EE10CD085E9AC
:107F80000AD08FE07ACF813511F488E018D01DD067
:107F900080E101D065CF982F8091C00085FFFCCF94
:107FA0009093C60008958091C00087FFFCCF809118
:107FB000C00084FD01C0A8958091C6000895E0E648
:107FC000F0E098E1908380830895EDDF803219F02E
:107FD00088E0F5DFFFCF84E1DECF1F93182FE3DFCA
:107FE0001150E9F7F2DF1F91089580E0E8DFEE27F6
:047FF000FF270994CA
:027FFE00040479
:0400000300007E007B
:00000001FF
