:100000000C9442030C946A030C946A030C94291C0C
:100010000C944D1C0C94711C0C946A030C946A0390
:100020000C946A030C946A030C946A030C946A039C
:100030000C949E1D0C94941D0C946A030C946A03FA
:100040000C944E220C946A030C9442250C94742553
:100050000C946A030C946A030C946A030C946A036C
:100060000C94BE1E0C946A03F713FD1304140B14B6
:1000700012141914201427142E1435143C1443148C
:100080004A14511458145E14627574746F6E2068AB
:10009000656C643F3D0053657467656E6520746FE1
:1000A0003A00456666656374203D20006D61737497
:1000B0006572206D6F646520616374697661746533
:1000C00064004E65772067656E65206C6561726EB1
:1000D0006564203D2000203A200043757272656EF1
:1000E000742053686F7747656E65203D200042613C
:1000F00073652067656E652073657420746F3A00C0
:1001000049207365652067656E653A00416C7265CC
:1001100061647920686176652067656E653A0020C4
:1001200067656E657320746F20454550524F4D00D2
:10013000436F706965642000577269746520454596
:1001400050524F4D2043524331363A0042414420F1
:100150004352433A00435243204F4B3A00424144FA
:10016000204352433A00203A2000454550524F4D1B
:1001700047656E65733A00454550524F4D4E756D5B
:1001800047656E6573203D20005374617274696E1B
:10019000672050524F504147414E442D455945200C
:1001A0006B65726E656C3A004E756D47656E657372
:1001B000203D20002E004C6F6164696E6700496E1F
:1001C00076616C696420636F6C6F72736574202351
:1001D0000046696C6C206D6F64652E2020456E743E
:1001E0006572206120636F6C6F7273657420746F29
:1001F00020636F707920746F20616C6C2067656E6E
:1002000065733A0020746F200053657474696E67DB
:100210002067656E65202300456E7465722061203D
:10022000636F6C6F72736574202300456E74657222
:1002300020616E2065666665637420230050726FCE
:100240006772616D206D6F64652E2020456E746548
:100250007220612067656E652023006D203A20665C
:10026000616C6C6F757420340062203A2072656294
:100270006F6F742041726475696E6F0066203A205A
:1002800066696C6C2072616D2D67656E6573207791
:1002900069746820616C6C206566666563747300C0
:1002A00077203A20776970652067656E657320282E
:1002B00072657665727369626C65290072203A20F6
:1002C000726561642067656E65730070203A207006
:1002D000726F6772616D0053657269616C20636F44
:1002E0006D6D616E642068656C703A00756E6B6E42
:1002F0006F776E20636F6D6D616E6400726561640F
:10030000206572726F723A204E756D47656E657327
:100310003D00434D443A200001010101010101016A
:1003200001010101010000000000010101010101C2
:1003300001010101010101010101010101000001AF
:1003400001010101010000000000010101010101A2
:100350000000000001010101010101000001010193
:100360000100010001000101010101000000000085
:100370000101010101000000010001010101010072
:100380000100000001010100000001000100000067
:100390000001020304050607080900050403020121
:1003A00000090807060502040006080709050103FD
:1003B00002030104000509060807090600050104F7
:1003C00002030104000509060807FFFF08070906E4
:1003D000000501040203FFFF0502070409060108E6
:1003E0000300000102FF070605FF000908FF0304E0
:1003F00005FF030804090500FFFF020701060005C9
:10040000FFFF0000000000000000000000000000EE
:1004100000000000000000000000000000000000DC
:10042000000000FF0000FF000000FF00FF0000FFD1
:10043000FF007F007F00007F7F00007F00007F00C3
:10044000000000FF0000FF00FF000000FF00FFFFB2
:10045000000000007F007F7F0000007F00007F0021
:100460007F0000FFFF000000FF00FF000000FFFF13
:1004700000007F0000007F7F0000007F7F00000001
:100480007F0000FF000000FF650000FF7F0000FF0D
:10049000FF00FF008F00FF00FF00FF000800FF00CB
:1004A0000000FF008F00FF00FF00FF000800FF00BA
:1004B000000000FF000000FF650000FF7F0000FF5C
:1004C000FF0000FF000000FFFF00FF00FF00FF7FB4
:1004D000000000FF7F000000FF00FF000000FFFFA2
:1004E000000000FF7F000000FF00FF000000FFFF92
:1004F000000000FF000000FFFF00FF00FF00FF7F83
:100500000000007FFF00FF00FF00FF7F0000FFFFF3
:1005100000007F3F00007F7F0000003F7F007F00E2
:100520007F00FF770000FF7F00007C9C0000FFFF42
:1005300000007F7F0000202000007F3F000020207F
:10054000000000FF7F0000EE550000CC330000AA41
:100550002200FF000000B0000000900000006600D4
:1005600066007733FF0033991100440022004400F5
:10057000880022001100220044003311770011444A
:1005800000007733FF00339911004400220044003B
:100590008800110008001133000011081100082222
:1005A00000001D763800751C35003891E600A07BF0
:1005B000C2002200110022004400331177001144D0
:1005C000000000FF000000BB0000009900000033A5
:1005D00000003300330099009900BB00BB00FF000E
:1005E000FF000000FF000000BB00000099000000B9
:1005F00033003333000099990000BBBB0000FFFFBC
:100600000000FF000000BB00000099000000330064
:100610000000003333000099990000BBBB0000FFCD
:10062000FF000000000800020100000304070000B2
:1006300000000000000001020408102040800102B8
:100640000408102001020408102004040404040417
:100650000404020202020202030303030303000074
:1006600000002300260029000000000025002800CB
:100670002B0000000000240027002A006414911EB3
:10068000A4257D1411241FBECFEFD8E0DEBFCDBF5F
:1006900011E0A0E0B1E0E4E2F8E502C005900D92BF
:1006A000AE38B107D9F725E0AEE8B1E001C01D9240
:1006B000A23BB207E1F716E0C2E8D6E004C02297F9
:1006C000FE010E940F2ACC37D107C9F70E94CC2720
:1006D0000C94052C0C9400000C94EF2B0C94F72B2D
:1006E00090919703937028E0829FF0011124E90F05
:1006F000F11DEE0FFF1FEE0FFF1FEE5FFB4F659129
:100700007591859194910895E0919803E370F0E0DC
:10071000349698E0899FE00DF11D1124EE0FFF1F24
:10072000EE0FFF1FEE5FFB4F6591759185919491E0
:100730000895FF920F931F93CF93DF93FC01862FB1
:100740006AE00E948A29C92FD0E0DA01C90161E17B
:10075000B695A795979587956A95D1F7682F6F7786
:10076000F62EEC0FFD1F648B62ABDF01A655BF4F69
:100770006C93DA01C90179E0B695A79597958795AD
:100780007A95D1F7682F6F77628760A7DF01A0564F
:10079000BF4F6C93DA01C901B695A79597958795D8
:1007A000482F4F77468F44AFEC54FF4F40838F2D37
:1007B0000E9404229B01AC01BE01C8010E949F213E
:1007C000DF91CF911F910F91FF900895CF92DF920B
:1007D000EF92FF920F931F93CF93DF937C01862FAD
:1007E0006AE00E948A29C92ED12CDA01C90161E18F
:1007F000B695A795979587956A95D1F7682F6F77E6
:10080000E701CC0DDD1D6AABDA01C90179E0B695CF
:10081000A795979587957A95D1F78F7788A756955D
:100820004795379527952F772CAFFE01E056FF4F60
:1008300030813A873A9640814C8B3A9690819E8FD0
:10084000E456F109641B60833A97831B8083749696
:10085000291B20830E949822F6017E96EE0FFF1F2F
:10086000EE0FFF1FEE0DFF1D608371838283938364
:10087000F601F296EE0FFF1FEE0DFF1D11830083B0
:1008800080E28883DF91CF911F910F91FF90EF90CD
:10089000DF90CF900895CF92DF92EF92FF92CF93A7
:1008A00080911401882349F182E00E94D423C1E0A1
:1008B000892B09F4C0E0809116018C17E1F080913A
:1008C000720390917303A0917403B09175038093A8
:1008D0006E0390936F03A0937003B0937103109213
:1008E00014010E94A4226093720370937303809397
:1008F000740390937503C0931601809114018111C4
:100900003BC00E94A4226B017C01809172039091F4
:100910007303A0917403B0917503A7019601281B7E
:10092000390B4A0B5B0BDA01C90180379741A105EE
:10093000B10510F182E00E94D42321E0892B09F453
:1009400020E0209315012223A1F080916E03909165
:100950006F03A0917003B0917103C81AD90AEA0A13
:10096000FB0AC0926A03D0926B03E0926C03F09290
:100970006D0381E080931401CF91FF90EF90DF90A1
:10098000CF9008952F923F924F925F926F927F92F5
:100990008F929F92AF92BF92CF92DF92EF92FF928F
:1009A0000F931F93CF93DF93CDB7DEB72C970FB67E
:1009B000F894DEBF0FBECDBF5C018B011A010E940F
:1009C0009822980117FF02C020E030E0790100274B
:1009D000F7FC0095102FE60EF71E081F191FEB827B
:1009E000FC820D831E838501C12CD12C80EEF82E54
:1009F000D8018C91803129F0803299F4D801FC9291
:100A000010C0F8011082F501EC0DFD1D44AD60A58C
:100A100082A90E9404229B01AC01B601C1010E947F
:100A20009F21BFEFCB1ADB0A0F5F1F4FEAE0CE1604
:100A3000D104F1F6C1010E9483200E949822EB802C
:100A4000FC800D811E816E157F058007910708F0DF
:100A5000D8C0C5010E944B04BA86A986BC86AB8665
:100A6000B886AF82812C912C0E949822EF81F88564
:100A7000E858FF4FC080D180E280F380AB85BC8511
:100A80002C91203E09F092C02B013C014C185D08CE
:100A90006E087F08E985FA85EC59FF4FC080D18048
:100AA000E12CF12C8501080D191DA056BF4FBA830A
:100AB000A9834C145D046E047F040CF048C0EB85E0
:100AC000FC85EA5BFF4FA081BB27A7FDB095A30182
:100AD00092010E941E2AA70196010E94EE29F801A8
:100AE0008285820FA981BA818C93EB85FC85E05BBE
:100AF000FF4FA081BB27A7FDB095A30192010E94E3
:100B00001E2AA70196010E94EE29F8018489820F0E
:100B1000EB85FC85E655FF4F8083EB85FC85E65A27
:100B2000FF4FA081BB27A7FDB095A30192010E94B2
:100B30001E2AA70196010E94EE29D8015E968C918B
:100B4000820FEB85FC85EC54FF4F808318C0F801C1
:100B500080A58287A981BA818C9382A9848BEB8539
:100B6000FC85E655FF4F8083F80184AD868FEB85C9
:100B7000FC85EC54FF4F8083AB85BC851C92EB85D4
:100B8000FC85EC54FF4F4081EB85FC85E056FF4F20
:100B90006081EB85FC85E655FF4F80810E94042231
:100BA0009B01AC01B401C1010E949F21BFEF8B1AD0
:100BB0009B0A0F8118850C5F1F4F18870F830B85C9
:100BC0001C850F5F1F4F1C870B8709851A850E5FD9
:100BD0001F4F1A8709871AE08116910409F044CF44
:100BE00080919403882309F425CF61E070E080E0D0
:100BF00090E00E94C72280919403815080939403D7
:100C0000EFCF2C960FB6F894DEBF0FBECDBFDF91AD
:100C1000CF911F910F91FF90EF90DF90CF90BF90F9
:100C2000AF909F908F907F906F905F904F903F908C
:100C30002F90089567ED72E081E195E00E945526BE
:100C40006BEC72E081E195E00E9455266CEB72E05E
:100C500081E195E00E94552660EA72E081E195E02D
:100C60000E9455266CE772E081E195E00E945526CE
:100C700069E672E081E195E00E9455266BE572E03D
:100C800081E195E00C945526FC0180E05CE8615020
:100C900088F0419198E0742F7827282F30E035951F
:100CA0002795822F70FF02C0852F8227469591508D
:100CB00091F7EDCF0895FC0120E030E080E090E076
:100CC00077FD1BC0DF01A20FB31F4D915C918427FC
:100CD0009527A8E0AC015695479580FF06C0CA014C
:100CE000B1E08B27B0EA9B2701C0CA01A15091F760
:100CF000615071092E5F3F4FE3CF08958F3FE1F0C0
:100D000090918E018A3011F08D3021F410928E0175
:100D1000892F0895292F30E04150510924173507B4
:100D20005CF49F5F90938E01FB01E20FF31F8083C1
:100D3000FB01E90FF11D10828FEF0895BF92CF9252
:100D4000DF92EF92FF920F931F93CF93DF93B82E12
:100D5000EA0180916B028F5F813820F4883018F0AF
:100D600080E001C087E080936B029FEF980F91387D
:100D700018F067E0E62E01C0E92EC82ED12C8601BE
:100D8000000F111F0E501C4FF8018491CC0CDD1C7C
:100D90008F3F09F44EC08B2D0E9470039B01AC0164
:100DA000F80164918E0187E992E00E94E6038B2DA1
:100DB0000E9470039B01AC01F601ED50FC4F649161
:100DC0008E0187E992E00E94E603F12CEE0CFF1CF5
:100DD00087010E501C4FF80180818F3FD1F08B2D81
:100DE0000E9484039B01AC01F80164918E0187E9A4
:100DF00092E00E94E6038B2D0E9484039B01AC01CC
:100E0000F701ED50FC4F64918E0187E992E00E945A
:100E1000E60345E553E0BE0187E992E0DF91CF911B
:100E20001F910F91FF90EF90DF90CF90BF900C94A7
:100E3000C204CC0FDD1FCC0FDD1FF12C80E00E941F
:100E400084039B01AC018E016F2D87E992E00E9423
:100E5000E603F394FAE0FF12F1CF45E553E0BE015B
:100E600087E992E00E94C204809197038F5F80938C
:100E70009703809198038F5F80939803DF91CF91C0
:100E80001F910F91FF90EF90DF90CF90BF9008954A
:100E9000DF92EF92FF920F931F93CF93DF93E82E91
:100EA000EA0190916B029F5F913820F4903128F015
:100EB000F12C04C0FFE0FF2E01C0F92EF0926B026E
:100EC0000FEF0F0D013818F0EFE0DE2E01C0D02E2D
:100ED0000F2D10E00E511C4FF80184918F3F69F1E6
:100EE0008E2D0E9470039B01AC01F80164918E016C
:100EF00087E992E00E94E6030D2D10E00E511C4F91
:100F0000F80184918F3F61F08E2D0E9484039B0134
:100F1000AC01F80164918E0187E992E00E94E6033A
:100F2000F1101FC0809197038F5F8093970380918A
:100F300098038F5F8093980314C0CC0FDD1FCC0FF4
:100F4000DD1FF12C80E00E9484039B01AC018E0127
:100F50006F2D87E992E00E94E603F394FAE0FF1216
:100F6000F1CF45E553E0BE0187E992E0DF91CF91F3
:100F70001F910F91FF90EF90DF900C94C204CF92DD
:100F8000DF92EF92FF920F931F93CF93DF93C82EC0
:100F9000EA0110916B021F5F113820F41A3018F02B
:100FA00010E001C019E010936B02EFEFE10FE138A0
:100FB00018F0B9E0DB2E01C0DE2E8C2D0E947003EC
:100FC0009B01AC01E12EF12CF701E852FC4F64913A
:100FD0008E0187E992E00E94E6038C2D0E94840333
:100FE0009B01AC01ED2DF0E0E852FC4F64918E01C5
:100FF0001595079587E992E00E94E60345E553E0E1
:10100000BE0187E992E00E94C204F701E852FC4F5A
:10101000808181110AC0809197038F5F809397032D
:10102000809198038F5F80939803DF91CF911F91F8
:101030000F91FF90EF90DF90CF900895BF92CF92E5
:10104000DF92EF92FF920F931F93CF93DF93B82E0F
:10105000EA0110916B021F5F113820F41A3018F06A
:1010600010E001C019E010936B028FEF810F8138FF
:1010700018F029E0E22E01C0E82E8B2D0E947003AB
:101080009B01AC01C12ED12CC60188529C4F6C0132
:10109000FC0164918E0187E992E00E94E60380E002
:1010A0000E9484039B01AC01F12CC70188529C4F24
:1010B0007C01FC0164918E0194E0000F111F9A9550
:1010C000E1F787E992E00E94E60345E553E0BE01BF
:1010D00087E992E00E94C2046AE070E080E090E05C
:1010E0000E948B2716161706180619060CF58B2D6D
:1010F0000E9484039B01AC01F60164918E0187E993
:1011000092E00E94E60380E00E9470039B01AC0124
:10111000F70164918E011595079587E992E00E9489
:10112000E60345E553E0BE0187E992E00E94C20470
:10113000809197038F5F80939703809198038F5FCF
:1011400080939803DF91CF911F910F91FF90EF90C3
:10115000DF90CF90BF900895BF92CF92DF92EF9231
:10116000FF920F931F93CF93DF93B82EEA01622F64
:1011700085E593E00E940D2280916B028F5F81389C
:1011800020F48C3018F080E001C08BE080936B027B
:101190009FEF980F913818F0EBE0EE2E01C0E92E8A
:1011A000C82ED12C8601000F111F00541C4FF801CE
:1011B0008491CC0CDD1C8F3F09F450C08B2D0E9414
:1011C00070039B01AC01F80164918E0187E992E004
:1011D0000E94E6038B2D0E9470039B01AC01F60177
:1011E000EF53FC4F64918E0187E992E00E94E60381
:1011F000F12C8701000F111F00541C4FF80184913E
:10120000EE0CFF1C8F3FD1F08B2D0E9484039B01BD
:10121000AC01F80164918E0187E992E00E94E60337
:101220008B2D0E9484039B01AC01F701EF53FC4F0F
:1012300064918E0187E992E00E94E60345E553E060
:10124000BE0187E992E0DF91CF911F910F91FF904E
:10125000EF90DF90CF90BF900C94C204CC0FDD1FB5
:10126000CC0FDD1FF12C80E00E9484039B01AC01B8
:101270008E016F2D87E992E00E94E603F394FAE075
:10128000FF12F1CF45E553E0BE0187E992E00E94ED
:10129000C20462E070E080E090E00E948B27209121
:1012A0009703620F711D811D911D6093970362E08A
:1012B00070E080E090E00E948B2720919803620FFD
:1012C000711D811D911D60939803DF91CF911F9136
:1012D0000F91FF90EF90DF90CF90BF900895AF9265
:1012E000BF92CF92DF92EF92FF920F931F93CF9313
:1012F000DF93C82EEA01622F85E593E00E940D225C
:1013000080916B028F5F813820F4883028F0D12CD7
:1013100004C097E0D92E01C0D82ED0926B028FEF77
:101320008D0D813818F087E0E82E01C0E82E8C2D55
:101330000E9470039B01AC01AD2CB12CF501EE0FA6
:10134000FF1FE055FC4F64918E0187E992E00E94F7
:10135000E6038C2D0E9470039B01AC01F501EE0F9A
:10136000FF1FEF54FC4F64918E0187E992E00E94C9
:10137000E6038C2D0E9484039B01AC01F12CF70144
:10138000EE0FFF1FE055FC4F64918E0187E992E05C
:101390000E94E6038C2D0E9484039B01AC01F7019F
:1013A000EE0FFF1FEF54FC4F64918E0187E992E02E
:1013B0000E94E60345E553E0BE0187E992E00E9402
:1013C000C204DD2019F085E0D8120DC0809197038A
:1013D0008F5F8093970385E0D81205C080919803B2
:1013E0008F5F80939803DF91CF911F910F91FF90B2
:1013F000EF90DF90CF90BF90AF900895DF92EF9283
:10140000FF920F931F93CF93DF93D82EEA01622FA1
:1014100085E593E00E940D2290916B029F5F9138C9
:1014200020F49A3028F0F12C04C0F9E0FF2E01C01E
:10143000F92EF0926B02EFEFEF0DE13818F0E9E0D2
:10144000EE2E01C0EE2E8D2D0E9470039B01AC018B
:10145000EF2DF0E0EA55FC4F64918E0187E992E0B0
:101460000E94E6038D2D0E9484039B01AC01EE2DAA
:10147000F0E0EA55FC4F64918E01000F111F87E9DF
:1014800092E00E94E60345E553E0BE0187E992E061
:101490000E94C204F1100AC0809197038F5F80936D
:1014A0009703809198038F5F80939803DF91CF918A
:1014B0001F910F91FF90EF90DF900895DF92EF92D0
:1014C000FF920F931F93CF93DF93D82EEA01622FE1
:1014D00085E593E00E940D2290916B029F5F913809
:1014E00020F4963128F0F12C04C015E1F12E01C052
:1014F000F92EF0926B02EFEFEF0DE13818F0B5E145
:10150000EB2E01C0EE2E8D2D0E9470039B01AC01CD
:10151000EF2DF0E0E057FC4F64918E0187E992E0F7
:101520000E94E6038D2D0E9484039B01AC01EE2DE9
:10153000F0E0E057FC4F64918E01000F111F87E926
:1015400092E00E94E60345E553E0BE0187E992E0A0
:101550000E94C204F1100AC0809197038F5F8093AC
:101560009703809198038F5F80939803DF91CF91C9
:101570001F910F91FF90EF90DF9008957F928F92CF
:101580009F92AF92BF92CF92DF92EF92FF920F9312
:101590001F93CF93DF93882E7A01622F85E593E026
:1015A0000E940D2260E071E080E090E00E948B27B5
:1015B000613F98F0633F48F46FEF7FEFCB010E94EB
:1015C0008B276F5F6093690225C08091690281302B
:1015D00009F181E0809369021DC080916902811147
:1015E00010926902643050F462E070E080E090E0B4
:1015F0000E948B27675F60936A020CC0603851F4C9
:10160000809197038F5F80939703809198038F5FFA
:10161000809398036EE185E593E00E940D226701B7
:1016200004E0D594C7940A95E1F7C0E0D0E08AE0E1
:10163000A82EB12C9AE0792E80916A029E01280F83
:10164000311DC901B5010E94B829982E8091690207
:10165000FE01789EE00DF11D1124E25AFC4FE49149
:10166000EE2339F0882D0E9470039B01AC018601A6
:1016700006C080E00E9484039B01AC018701692DB4
:1016800087E992E00E94E6032196CA30D105A1F6CF
:1016900045E553E0B70187E992E00E94C2048091DA
:1016A0006B028F5F80936B02DF91CF911F910F913F
:1016B000FF90EF90DF90CF90BF90AF909F908F9072
:1016C0007F9008958F929F92AF92BF92CF92DF92B8
:1016D000EF92FF920F931F93CF93DF93A82E7A017F
:1016E000622F85E593E00E940D2290916B029F5F2F
:1016F000913820F4953018F090E001C094E0909378
:101700006B0260E071E080E090E00E948B27611145
:1017100003C0109268020CC0603851F49091970396
:101720009F5F90939703909198039F5F9093980386
:10173000C0E0D0E03AE0C32ED12C45E0842E28E072
:10174000A29E50011124809168029E01280F311D34
:10175000C901B6010E94B829982E80916B02682DAC
:101760000E9496293AE0292F2303F0011124EC0F5F
:10177000FD1FE45DFC4FE491EE23A1F080919703FF
:10178000F0E0E80FF11DE370FF27EA0DFB1DEE0FFF
:10179000FF1FEE0FFF1FEE5FFB4F25913591459127
:1017A000549105C080E00E9484039B01AC01870135
:1017B000692D87E992E00E94E6032196CA30D1059F
:1017C00009F0C1CF85E593E00E94832045E553E011
:1017D000B70187E992E0DF91CF911F910F91FF90C0
:1017E000EF90DF90CF90BF90AF909F908F900C9430
:1017F000C204BF92CF92DF92EF92FF920F931F939A
:10180000CF93DF93D82E7A01622F85E593E00E9473
:101810000D226EE170E080E090E00E948B27611164
:1018200007C081E08093670283E08093660217C05F
:1018300080916602811107C0613019F460936702DC
:101840000EC010926702623051F4809197038F5F4F
:1018500080939703809198038F5F80939803809182
:101860006602882351F0E82FF0E0E05FFE4F9081A0
:1018700090936702815080936602C0E0D0E05AE006
:10188000C52EBC2E80916702FE01C89EE00DF11DA1
:101890001124E85EFC4FE491EE2379F0882321F0D7
:1018A0008D2D0E94840303C08D2D0E9470039B0127
:1018B000AC0105E513E06B2D08C080E00E948403B5
:1018C0009B01AC0105E513E06C2F87E992E00E94D3
:1018D00099032196CA30D105A1F685E593E00E94CF
:1018E000832045E553E0B70187E992E0DF91CF918E
:1018F0001F910F91FF90EF90DF90CF90BF900C94CD
:10190000C204DF92EF92FF920F931F93CF93DF9366
:10191000D82EEA016091170185E593E00E940D221F
:101920008091100190916B02980F913820F49A30B9
:1019300028F0F12C04C0E9E0FE2E01C0F92EF0924F
:101940006B029F2D981B913820F49A3028F0E12CDF
:1019500004C079E0E72E01C0E92E8D2D0E947003AE
:101960009B01AC018E016F2D87E992E00E94E60396
:101970008D2D0E9484039B01AC01000F111F000FED
:10198000111F6E2D87E992E00E94E60345E553E0C2
:10199000BE0187E992E00E94C204F1100AC0809162
:1019A00097038F5F80939703809198038F5F809355
:1019B000980360E071E080E090E00E948B27672B45
:1019C000682B692B29F48091100181958093100177
:1019D000DF91CF911F910F91FF90EF90DF900895CD
:1019E00066EB71E081E195E00E94552661E170E0CF
:1019F00080E090E00E948B27C62F48EC50E066E91B
:101A000072E08C2F0E94810C64EB71E081E195E023
:101A10000E94252664EF71E080E090E00E948B2711
:101A20000E94C722EACF2F923F924F925F926F920D
:101A30007F928F929F92AF92BF92CF92DF92EF925E
:101A4000FF920F931F93CF93DF93CDB7DEB76097CD
:101A50000FB6F894DEBF0FBECDBF8A875C834B8381
:101A60002D83622F85E593E00E940D229091ED0178
:101A700081E0892726E0929F2001112466E0869F5D
:101A8000A00111245A834983612C712C0FEF1FEFA1
:101A900042515E4F5C874B87A82FB0E0BE87AD8771
:101AA00081E0800F6AE00E948A29292FC8016AE03C
:101AB00070E00E94B8293CE0389F6001399FD00C4B
:101AC0001124C40CD51CA60142515E4F6A01C80105
:101AD00002966AE070E00E94B829389F7001399F31
:101AE000F00C1124E40CF51CB70162517E4F7B0110
:101AF00012017CE0279F200C311C1124C10182516E
:101B00009E4F1C01AB85BC85A60DB71DB987A88764
:101B1000188A1F86EF85F889EC0DFD1D8081918163
:101B2000BC0180E090E00E9471282AE939E949E986
:101B30005EE30E9427294B015C01EF85F889EE0DD9
:101B4000FF1D80819181BC0180E090E00E9471289E
:101B50002AE939E949E95EE30E9427299B01AC01A2
:101B6000C501B4010E94DD274B015C01EF85F889B6
:101B7000E20DF31D80819181BC0180E090E00E9424
:101B800071289B01AC01C501B4010E94DD270E94B0
:101B9000452880E090E00E9471282DEC3CEC4CE060
:101BA0005FE30E942729A884B984EF85F889AE0EE7
:101BB000BF1E0E944528D5016D937C93EF85F8895F
:101BC0003296F88BEF87369709F0A4CF0F5F1F4F3F
:101BD000FCE06F0E711C0930110509F061CF65E062
:101BE00070E080E090E00E948B27672B682B692BC8
:101BF00059F56AE070E080E090E00E948B27162F94
:101C00008A850E94700326E04D855E85249FF00141
:101C1000259FF00D11245CE0159FE00DF11D1124AE
:101C2000E251FE4F072F182F292F3327002711834A
:101C300000839B0122273383228314826583809152
:101C400097038F5F8093970369817A8162517E4FFA
:101C50007B01A12CB12CD12CF701EA0DFB1D858154
:101C600071817F831E82AE81BF819D0140E050E083
:101C7000280F311D411D511D838190E0A0E0B0E08F
:101C8000DC0199278827280F391F4A1F5B1F0B810A
:101C90001C816D2D87E992E00E94E603D394BCE09D
:101CA000AB0EB11CEAE0DE12D7CF6D8185E593E083
:101CB0000E940D2245E553E06B817C8187E992E02B
:101CC0000E94C2048091ED0191E089278093ED018B
:101CD00060960FB6F894DEBF0FBECDBFDF91CF91F7
:101CE0001F910F91FF90EF90DF90CF90BF90AF903A
:101CF0009F908F907F906F905F904F903F902F902C
:101D000008953F924F925F926F927F928F929F922F
:101D1000AF92BF92CF92DF92EF92FF920F931F93F9
:101D2000CF93DF932B013C01EA016091170185E518
:101D300093E00E940D2251E4852E53E0952E67E337
:101D4000A62E63E0B62E7BE4C72E73E0D72EE5EC1B
:101D5000EE2EE1E0FE2E312CF40131914F01F50120
:101D600081915F01F60121916F0190E0A0E0B0E068
:101D7000BA2FA92F982F8827A32B822BF7018193A5
:101D80009193A193B1937F0105E513E0A301920123
:101D9000632D87E992E00E9499033394FAE03F12A1
:101DA000DBCFC8010E94832085ECE82E81E0F82E6D
:101DB000D12CF70121913191419151917F018E01F7
:101DC0006D2D87E992E00E94E603D394FAE0DF12DA
:101DD000F0CF45E553E0BE0187E992E0DF91CF9176
:101DE0001F910F91FF90EF90DF90CF90BF90AF9039
:101DF0009F908F907F906F905F904F903F900C944A
:101E0000C2044F925F926F927F928F929F92AF9295
:101E1000BF92CF92DF92EF92FF920F931F93CF93D7
:101E2000DF93B82E7A016091170185E593E00E9457
:101E30000D22C0906B028C2D6AE00E949629A92E7B
:101E4000DD24C7FCD0948B2D0E9470039B01AC0154
:101E500087016A2D87E992E00E94E6034701880C1A
:101E6000991C880C991C8B2D0E9484032B013C012A
:101E7000C6010197CAE0D0E0BE010E94B8298401E2
:101E8000A3019201682F87E992E00E94E6038B2D5F
:101E90000E9470032B013C01C60180959095BE0104
:101EA0000E94B8298701A3019201682F87E992E077
:101EB0000E94E6038B2D0E9484032B013C0188279E
:101EC00099278C199D09BE010E94B8298401A3019C
:101ED0009201682F87E992E00E94E60345E553E00E
:101EE000B70187E992E00E94C204A11049C0809125
:101EF00097038F5F80939703809198038F5F809300
:101F000098036AE070E080E090E00E948B27672BE6
:101F1000682B692BA9F124EF31E040E050E06AEF33
:101F200070E080E090E00E94AF276B017C018B2D78
:101F30000E947003A6010E94810E809197038F5F1B
:101F40008093970320ED37E040E050E068EE73E0C7
:101F500080E090E00E94AF276B017C018B2D0E94F6
:101F60007003A6010E94810E809197038F5F80937A
:101F700097038B2D0E9470034CED55E00E94810E5B
:101F800080916B028F5F80936B02DF91CF911F91E5
:101F90000F91FF90EF90DF90CF90BF90AF909F9008
:101FA0008F907F906F905F904F9008950F931F9345
:101FB0008C0180910D0191E0892780930D01909112
:101FC000C4012FEF290F223060F4882329F02FEF6E
:101FD0003FEF4FEF50E003C020E030E0A90164E0A4
:101FE0000FC0933089F4882329F02FEF30E840E8C0
:101FF00050E004C02FEF30E040E050E060910E016F
:1020000087E992E00E94E6031F910F910895FF92E5
:102010000F931F93CF93DF93F82EEB018B0120E0FA
:1020200030E0A90160910F0187E992E00E94E60388
:1020300020910F018F2D992787FD9095820F911D7B
:1020400027FD9A956AE070E00E94B82987FD89E033
:1020500080930F018E0120E03FEF4FEF50E0609141
:102060000F0187E992E00E94E603DF91CF911F9173
:102070000F91FF900895BF92CF92DF92EF92FF925F
:102080000F931F93CF93DF93B82E6A017B01E90171
:10209000890120E030E0A90160910E0187E992E01A
:1020A0000E94E60320910E018B2D992787FD9095C4
:1020B000820F911D27FD9A956AE070E00E94B82971
:1020C00087FD89E080930E018E01A7019601609142
:1020D0000E0187E992E00E94E603DF91CF911F9104
:1020E0000F91FF90EF90DF90CF90BF900895DF9217
:1020F000EF92FF920F931F93CF93DF93EA01622F2A
:1021000085E593E00E940D228091C401823009F49C
:1021100058C030F4882359F0813009F43FC091C091
:10212000833009F461C0843009F480C08AC085E03E
:1021300080930F017E01EE0CFF1CEE0CFF1CD12CD6
:1021400087012FEF3FEF4FEF50E06D2D87E992E0D1
:102150000E94E60361E06D0D20E030E0A90187E90F
:1021600092E00E94E603D394D3948AE0D812E8CF99
:1021700020E03FEF4FEF50E060910F0187E992E0E0
:102180000E94E603BE01660F771F6C0F7D1F45E5B9
:1021900053E087E992E00E94C2040DC060E070E065
:1021A00081E00E94071080910F01883009F049C03A
:1021B00085E080930E018091C4018F5F8093C401FC
:1021C00040C060E070E081E00E94071020E030E055
:1021D00040E05FEF60E070E081E00E943B108091A2
:1021E0000F01843071F5E7CF60E070E08FEF0E945F
:1021F000071020E030E04FEF50E060E070E08FEF3C
:102200000E943B1080910E018430D9F48091C4016A
:102210008F5F8093C40100E010E020E030E0A9016E
:1022200064E087E992E00E94E6030BC060E070E0A2
:102230008FEF0E94071080910F01853011F41092EA
:10224000C40180E090E00E94D60FD595C79545E582
:1022500053E0BE0187E992E00E94C20480E090E072
:102260000E94D60F45E553E0BE0187E992E0DF9179
:10227000CF911F910F91FF90EF90DF900C94C204CB
:10228000BF92CF92DF92EF92FF920F931F93CF9363
:10229000DF93C82EEA016091170185E593E00E9463
:1022A0000D2280916B02823014F010926B028091AB
:1022B0006B02D12C80FF21C0F12C33E0CC0CDD1C53
:1022C0003A95E1F7809197038370F601E80FF11DCD
:1022D000EE0FFF1FEE0FFF1FEE5FFB4F25913591B5
:1022E000459154918E016F2D87E992E00E94E6039B
:1022F000F3948AE0F812E6CF2EC07E01EE0CFF1CAC
:10230000B12C93E0CC0CDD1C9A95E1F7E091980399
:10231000E370F0E03496EC0DFD1DEE0FFF1FEE0FA5
:10232000FF1FEE5FFB4F2591359145915491870139
:102330006B2D87E992E00E94E603B3948AE0B8121D
:10234000E5CF809197038F5F8093970380919803E7
:102350008F5F8093980345E553E0BE0187E992E0E3
:102360000E94C20480916B028F5F80936B02DF91A9
:10237000CF911F910F91FF90EF90DF90CF90BF9082
:1023800008950F931F93CF93DF9380E090E00E9416
:102390006C03182F67E771E081E195E00E94252624
:1023A0004AE050E0612F81E195E00E9446276AE60D
:1023B00071E081E195E00E945526143138F181E009
:1023C00090E00E946C03C82F82E090E00E946C03B2
:1023D000D0E0DC2FCC27C82B612F70E06150710951
:1023E0008EE692E00E945B06C817D90759F16DE5A9
:1023F00071E081E195E00E94252640E150E0BE01B8
:1024000081E195E00E945D2780E02AC0CEE6D2E01F
:1024100000E00117A1F240E150E0602F81E195E07A
:102420000E943F2766E671E081E195E00E94252643
:102430006991799140E150E081E195E00E945D274A
:102440000F5FE7CF65E571E081E195E00E94252609
:1024500040E150E0BE0181E195E00E945D2781E00E
:10246000DF91CF911F910F910895BF92CF92DF928C
:10247000EF92FF920F931F93CF93DF9380E090E052
:102480000E946C03C82FD0E0C431D1050CF043C0CA
:102490007EE6E72E72E0F72E00E010E00C171D0735
:1024A000B0F46801CC0CDD1CC6010B960E946C03D5
:1024B000B82EC6010A960E946C032B2D30E0382BF3
:1024C000F701219331937F010F5F1F4FE7CF81E029
:1024D00090E00E946C03082F82E090E00E946C0361
:1024E00010E0102F0027082BBE01615071098EE605
:1024F00092E00E945B060817190781F06CE471E016
:1025000081E195E00E94252640E150E0B80181E19B
:1025100095E00E945D2780E090E001C0CE01DF9150
:10252000CF911F910F91FF90EF90DF90CF90BF90D0
:102530000895CF93DF9385E593E00E94FF1F6EE13E
:1025400085E593E00E940D22C0E0D0E020E030E07D
:10255000A901BE0185E593E00E949F212196CA3022
:10256000D105A1F785E593E00E94832026E040E0B5
:1025700052EC61E070E081E195E00E94E0244AE0E5
:1025800050E060E070E081E195E00E9485274CE238
:1025900051E060E070E086E793E00E94181D86E756
:1025A00093E00E94771B60E089E00E949E2362E036
:1025B00088E00E94652362E082E00E9465230E9419
:1025C000351280936D0210926A0310926B03109281
:1025D0006C0310926D0368EA71E081E195E00E945E
:1025E000252660916D02772767FD70954AE050E0DF
:1025F00081E195E00E941A2769E871E081E195E0A8
:102600000E94552661E083E10E94652361E082E13A
:102610000E946523C3E0D0E061E083E10E949E2335
:1026200061E082E10E949E2364E670E080E090E039
:102630000E94C72260E083E10E949E2360E082E165
:102640000E949E2364E670E080E090E00E94C72232
:10265000219711F7DF91CF9108956F927F928F921A
:102660009F92AF92BF92CF92DF92EF92FF920F9321
:102670001F93CF93DF933C01C62E80E090E00E9431
:102680006C038C1529F06C2D80E090E00E946E03A5
:10269000C62DD72D00E010E0D12C0C151D0530F50E
:1026A0005801AA0CBB1C45018AE0880E911CC4018C
:1026B0000E946C03E980F12C90E08E159F0521F0BB
:1026C0006E2DC4010E946E038BE0A80EB11CC501E3
:1026D0000E946C036991799190E08617970719F031
:1026E000C5010E946E030F5F1F4FD7CFB601615027
:1026F0007109C3010E945B06EC016D2F81E090E03F
:102700000E946E036C2F82E090E00E946E0368E3EB
:1027100071E081E195E00E94252640E150E0BE0194
:1027200081E195E0DF91CF911F910F91FF90EF90A4
:10273000DF90CF90BF90AF909F908F907F906F90E1
:102740000C945D27CF93DF93D82FC92FE82FF92F53
:1027500020E030E050E0261748F4B22FAA27A42B3F
:10276000B52BA193B1932F5F3F4FF5CF60936D02CF
:1027700060E371E081E195E00E94252660916D02A1
:10278000772767FD70954AE050E081E195E00E946F
:1027900012276FE171E081E195E00E94552660917A
:1027A0006D028D2F9C2FDF91CF910C942D138AE019
:1027B00090E00E946C03682F60958AE090E00E9490
:1027C0006E030E94351248EE53E060E070E08FEF38
:1027D00090E00C94810E482F862F50E04031510537
:1027E00008F071C0FA01EC5CFF4F0C940D2A48EC24
:1027F00050E066E972E00C94810C2EE144E650E072
:1028000066E972E00C94BF072EE142E350E066E90E
:1028100072E00C941E082EE148EC50E066E972E08C
:102820000C94AC082EE148EC50E066E972E00C94A0
:102830006F092EE14EE551E066E972E00C94FE0965
:102840002EE144E650E066E972E00C945E0A2EE167
:1028500048EC50E066E972E00C949E062EE146E9F1
:1028600050E066E972E00C9448072EE14CE251E03A
:1028700066E972E00C94BE0A26E944E650E066E997
:1028800072E00C94130D2EE148EC50E066E972E022
:102890000C94F90B2EE146E450E066E972E00C94EA
:1028A000620B2EE144EF51E066E972E00C94771080
:1028B00046E450E066E972E00C94010F4CE251E00E
:1028C00060E00E9440110895EF92FF920F93E12C77
:1028D000F12C01E020E049E068E086E793E00E9407
:1028E000DC1C22E530E047E06AE070E085E593E03B
:1028F0000F91FF90EF900C94772185E593E00E9473
:10290000EB1F86E793E00C948D1DFF920F931F93AE
:10291000CF93DF936DE372E081E195E00E9455264D
:1029200081E195E00E94162446E050E065E971E0FF
:102930000E947E0687FDF4CF85E991E00E94B92BC5
:10294000F82E83E18F1508F46AC06BE272E081E132
:1029500095E00E94552681E195E00E94162446E00C
:1029600050E065E971E00E947E0687FDF4CF85E9BD
:1029700091E00E94B92B182F803108F050C068E117
:1029800072E081E195E00E94552681E195E00E9488
:10299000162446E050E065E971E00E947E0687FD5E
:1029A000F4CF85E991E00E94B92B8131B8F5D12FA0
:1029B00090E0C92FC82B69E072E081E195E00E94A8
:1029C00025260F2D112707FD10954AE050E0B8018C
:1029D00081E195E00E94122764E072E081E195E0D8
:1029E0000E94252640E150E0BE0181E195E00E9471
:1029F0005D27F801EE0FFF1FE259FD4FD183C08321
:102A000061E06F0D60936D028EE692E00E942D13DF
:102A100020916D02332727FD309503C003C02FEFAF
:102A20003FEFC901DF91CF911F910F91FF90089562
:102A300061ED71E081E195E00E94552681E195E02C
:102A40000E94162446E050E06FE871E00E947E0686
:102A500087FDF4CF8FE891E00E94B92B813148F4D3
:102A6000482F60E18EE692E00E94A2130C940000D1
:102A700008956EEB71E081E195E00E9455268FEF9D
:102A80009FEF089581E195E00E94162444E050E014
:102A90006BE971E00E947E068F3F09F474C062E129
:102AA00073E081E195E00E9425266BE971E081E108
:102AB00095E00E94672668E171E08BE991E00E9451
:102AC000DE2B892B11F40C94851465E871E08BE9F9
:102AD00091E00E94DE2B892B11F40C9418156AE109
:102AE00071E08BE991E00E94DE2B892B11F40E94AA
:102AF000F00C6CE171E08BE991E00E94DE2B892BF8
:102B000019F40E941A063FC062E471E08BE991E07B
:102B10000E94DE2B892BD9F480E090E00E946C03A8
:102B2000853118F40E94C1112EC06CEF72E081E172
:102B300095E00E94252660916D02772767FD7095CC
:102B40004AE050E081E195E00E941A271CC06EE146
:102B500071E08BE991E00E94DE2B892B19F40E9431
:102B6000D71311C060E271E08BE991E00E94DE2B87
:102B7000892B19F40C94000006C06CEE72E081E120
:102B800095E00E9455268FEF9FEF08950F931F93B6
:102B9000CF9386E793E00E94501B892B09F470C005
:102BA00086E793E00E94601AC82F40E150E0682F4A
:102BB00081E195E00E943F27C03FB8F06AE081E1E3
:102BC00095E00E944A260E94982268517C4F8F4FC0
:102BD0009F4F6093B6017093B7018093B8019093B3
:102BE000B901CF3F11F410920C0180910C01853096
:102BF000A0F5E82FF0E0E154FE4FC083813051F49E
:102C0000C13041F4C093BE011092940385E08093DB
:102C10000C0112C08F5F80930C01853009F0B9CF91
:102C200064E08FEB91E00E944406C813B2CF81E0CC
:102C30008093BE01109294030E94982268577C4EA4
:102C40008F4F9F4F6093BA017093BB018093BC017B
:102C50009093BD018091C00114C00E949822009100
:102C6000BA011091BB012091BC013091BD01061742
:102C700017072807390708F08CCF1092BE0189CFBB
:102C800080E0CF911F910F910895CF93DF932FEFA5
:102C90002093B20120E12093B3019093B40180937B
:102CA000B501C2EBD1E0688186E793E00E949B1AF0
:102CB000892BC9F345E553E062E070E087E992E0D3
:102CC0000E94C204219681E0C63BD80761F764E008
:102CD00082EB91E00E944406682F86E793E00E9411
:102CE0009B1A892BA1F3DF91CF910895CF93DF93A6
:102CF0002FEF2093B20127E22093B3019093B40108
:102D00008093B501C2EBD1E0688186E793E00E9431
:102D10009B1A892BC9F3219681E0C63BD807A1F7FE
:102D200064E082EB91E00E944406682F86E793E01E
:102D30000E949B1A892BA1F3DF91CF910895CF9226
:102D4000DF92EF92FF926CEA70E081E195E00E94E1
:102D5000552610926A0310926B0310926C03109226
:102D60006D0380910A01882309F4DBC060910B0197
:102D70008091A3010E94EB130E94C615C0909F0191
:102D8000D090A001E090A101F090A2010E949822B1
:102D9000C616D706E806F906B0F444E650E06FEF31
:102DA0007FEF8FEF90E00E94810E0E949822685181
:102DB0007C4F8F4F9F4F60939F017093A001809332
:102DC000A1019093A20160916A0370916B038091BD
:102DD0006C0390916D03611571058105910509F2F0
:102DE0000E9471286B017C0120E034E244E759E441
:102DF0000E94412887FF1FC08091A30190E00196A7
:102E00008F7099278093A30161E170E080E090E0EA
:102E10000E948B2760930B0162EA70E081E195E0EC
:102E20000E9425264AE050E06091A30181E195E0EF
:102E30000E9446278ECF20E034E244E759E4C701E0
:102E4000B6010E94232987FD40C020E836E948E901
:102E50005AE4C701B6010E94412887FF36C0E090BE
:102E6000A301F12CFE2CEE2480910B01E82A109294
:102E70006A0310926B0310926C0310926D034091E1
:102E80006A0350916B0360916C0370916D03452B45
:102E9000462B472B09F05DCFC7010E94761666E9E5
:102EA00070E081E195E00E94252640E150E0B70105
:102EB00081E195E00E945D2744EF51E060E07FEF03
:102EC00080E090E00E94810EDACF20E836E948E108
:102ED0005BE4C701B6010E94232987FD0DC020ECE9
:102EE00031EE44EE5BE4C701B6010E94412887FF42
:102EF00003C010920A012DCF68E870E081E195E0EF
:102F00000E94252640916A0350916B0360916C03E7
:102F100070916D032AE030E081E195E00E94732713
:102F200018CFFF90EF90DF90CF900895CF92DF926F
:102F3000EF92FF920F931F930E9498220091AE018F
:102F40001091AF012091B0013091B101601771076C
:102F50008207930708F478C080916D021816ECF58B
:102F60000E9498220091B6011091B7012091B801FA
:102F70003091B901061717072807390710F50E9485
:102F800098226B017C0160ED77E080E090E00E9488
:102F90008B279701860108511C4F2F4F3F4F060F7B
:102FA000171F281F391F0093B6011093B7012093F4
:102FB000B8013093B90180916E0290916F020E9426
:102FC0004516E0916C02F0E0EE0FFF1FE259FD4F55
:102FD000608181810E94EB1337C06FEF7FEF8FEF2D
:102FE00090E00E948B2720E1209397028B019C01A7
:102FF000E1E13695279517950795EA95D1F70F7773
:103000000093AB020093C902009341038B019C0122
:10301000F9E03695279517950795FA95D1F70F772B
:103020000093A1020093BF0200933703DC01CB01A0
:10303000B695A79597958795682F6F776093B5029A
:103040006093D30260934B030E9498220091A801E1
:103050001091A9012091AA013091AB01601771076D
:1030600082079307A0F46FEF86E793E00E949B1A14
:10307000892BC9F361E086E793E00E949B1A892BB4
:10308000C9F362E271E081E195E00E9467260E9447
:10309000C615182F882309F460C00091C101E09083
:1030A000C201813059F060E078E080E090E00E9459
:1030B0008B27672B682B692B09F086C10E94982209
:1030C000C090AE01D090AF01E090B001F090B1019E
:1030D000C616D706E806F906F0F56BE271E081E165
:1030E00095E00E9467260E94982268577C4E8F4F79
:1030F0009F4F6093AE017093AF018093B0019093A6
:10310000B10184EF91E09093AD018093AC0140E078
:1031100050E06FEF70E04093A4015093A5016093DD
:10312000A6017093A7011092A8011092A901109214
:10313000AA011092AB010E949822C090AE01D090DB
:10314000AF01E090B001F090B101C616D706E806D5
:10315000F90608F0E3C01092BE0145E553E060E0D7
:1031600070E087E992E00E94C20460916A03709166
:103170006B0380916C0390916D036115710581055E
:10318000910509F4C2C00E9471286B017C0120E006
:1031900034E244E759E40E94412887FF82C08091CD
:1031A000BE01811131C080916C0290E00196609166
:1031B0006D02772767FD70950E94B82980936C0295
:1031C0006AED70E081E195E00E9425264AE050E03A
:1031D00060916C0281E195E00E943F2766ED70E00E
:1031E00081E195E00E942526E0916C02F0E0EE0F6F
:1031F000FF1FE259FD4F6081718140E150E081E1A4
:1032000095E00E945D2779C08091C001803109F06E
:1032100048C020916D02E22FEE0FFF0BE259FD4FE7
:103220008091C10190E0982F88273091C201832BB3
:103230009183808320936C0262EC70E081E195E0E1
:103240000E942526E0916D02EE0FFF0BE259FD4F23
:103250006081718140E150E081E195E00E945D274D
:1032600060916D026F5F60936D028EE692E00E9446
:103270002D1380916D0285311CF084E180936D02E5
:103280001092BE010E94982268577C4E8F4F9F4F2C
:103290006093A8017093A9018093AA019093AB0158
:1032A0002CC020E836E948E15BE4C701B6010E9482
:1032B000232987FD0DC020EC31EE44EE5BE4C7010D
:1032C000B6010E94412887FF03C00E949F1615C0C7
:1032D00020EC31EE44EE5BE4C701B6010E942329E5
:1032E00087FD0BC020EC31EE44EE5CE4C701B60173
:1032F0000E94412887FD0E94D71310926A03109202
:103300006B0310926C0310926D030E944215181605
:1033100019060CF0CEC080936D02CBC0103F08F4AC
:1033200046C04091AC015091AD016091A4017091F3
:10333000A5018091A6019091A7010E94810E809124
:10334000AC019091AD01C2979093AD018093AC0117
:1033500097FF0EC06FEF7FEF8FEF90E00E948B27FB
:103360006093A4017093A5018093A6019093A70197
:103370006FEF86E793E00E949B1A892BC9F361E007
:1033800086E793E00E949B1A892BC9F364E471E0FD
:1033900081E195E00E9448266091AC017091AD01F9
:1033A0004AE050E081E195E00E941A2710E086E7AC
:1033B00093E00E94501B892B09F4BDCE86E793E071
:1033C0000E94601A182FB7CEF12CF02A103141F16B
:1033D000173209F0C2CE48EE53E06FEF70E080E0A4
:1033E00090E00E94810E81E080936D02F0926F0266
:1033F000E0926E026EEE70E081E195E00E9425267B
:1034000040E150E0B70181E195E00E945D276091C5
:103410006D028EE692E00E942D1310926C029DCEFA
:1034200080916D02992787FD909540E0E42FF0E0B0
:10343000E817F9071CF5EE0FFF1FE259FD4F208139
:1034400031812E153F05C1F41092BE016CE071E090
:1034500081E195E00E94252640E150E0B70181E13D
:1034600095E00E945D2744EF51E060E07FEF80E04F
:1034700090E00E94810E02C04F5FD8CF8091BE01C4
:10348000882309F46ACE48EE53E06FEF7FEF8FEFA9
:1034900090E00E94810E60E071E081E195E00E9481
:1034A000252640E150E0B70181E195E00E945D27CB
:1034B00054CE1F910F91FF90EF90DF90CF90089521
:1034C000209147043091480428173907B9F49091A6
:1034D000050480910604981789F0E0910504F0E056
:1034E000E95FFB4F80812091050430E02F5F3F4F63
:1034F0002F7333272093050490E008958FEF9FEFFB
:10350000089520914704309148042817390781F421
:103510009091050480910604981751F0E0910504FC
:10352000F0E0E95FFB4F8081992787FD9095089532
:103530008FEF9FEF08958091BC03811173C01092AB
:10354000B90388EC8093AC0382E38093AB0380E102
:1035500090E039E122E346E9DC01A656BC4FEFEFEB
:10356000E80F67FF02C04C9301C03C93F0E0E656C1
:10357000FC4F2083660F029779F782E180939903CD
:10358000809180008093B603809181008093B50381
:1035900080918400909185009093B4038093B3034D
:1035A00080918800909189009093B2038093B10339
:1035B00080918600909187009093B0038093AF0331
:1035C00080916F008093AE03809180008873826841
:1035D0008093800080918100807E8961809381004A
:1035E000109285001092840082ED90E09093890003
:1035F0008093880085EA91E090938700809386000D
:103600006093B8036093B70389E08093B90381E0C6
:103610008093BC0380916F00846080936F0081E091
:1036200090E0089580E090E0089520914704309163
:1036300048048217930789F53091C3032091C4038E
:10364000321759F12091C4034091050430E02F5FF7
:103650003F4F2F73332750E024173507B9F0E0911F
:10366000C403F0E0EB53FC4F60832091C40330E0CF
:103670002F5F3F4F2F7333272093C403DC01ED915D
:10368000FC910484F585E02D099504C0FC01258D8D
:103690002260258F80E090E008958FEF9FEF0895DE
:1036A00020914704309148042817390771F480911C
:1036B00006042091050490E0805C9F4F821B9109D5
:1036C00060E470E00E94B829089580E090E00895D9
:1036D00020914704309148042817390739F48FB7EF
:1036E000F89410920604109205048FBF089520915B
:1036F00047043091480428173907B1F0FC01258DA3
:103700002E7F2D7F258F2FB7F894109206041092EC
:1037100005041092C4031092C3039093480480934D
:1037200047042FBF81E0089580E008950F931F9311
:10373000CF93DF93EC010E94A4220091BF0310916C
:10374000C0032091C1033091C2034091BC034423C4
:1037500019F01092BD036FC0EE85FF8540815D8535
:10376000452309F460C09B01201B310B48B150E197
:10377000452748B94091BD03411114C0273931058F
:103780000CF451C020EC39E03093BB032093BA0312
:103790001092BE0328E02093BD031F8E2E8D2F5F55
:1037A0002E8F41C04091BE03440F4093BE03409111
:1037B000BD0341504093BD034091BA035091BB03F8
:1037C0004217530728F42091BE0321602093BE03C3
:1037D0002091BD03211127C02091BE0328A321E021
:1037E0002F8F209106044091050430E02F5F3F4F5A
:1037F0002F73332750E02417350791F0E09106042A
:103800002091BE03F0E0E95FFB4F20832091060486
:1038100030E02F5F3F4F2F7333272093060403C000
:103820002D8D21602D8F6093BF037093C003809313
:10383000C1039093C203DF91CF911F910F9108951F
:103840008091470490914804009711F00C94961BC6
:1038500008951F920F920FB60F9211242F933F934A
:103860004F935F936F937F938F939F93AF93BF9388
:10387000EF93FF930E94201CFF91EF91BF91AF91B6
:103880009F918F917F916F915F914F913F912F9178
:103890000F900FBE0F901F9018951F920F920FB6AA
:1038A0000F9211242F933F934F935F936F937F93C6
:1038B0008F939F93AF93BF93EF93FF930E94201C2E
:1038C000FF91EF91BF91AF919F918F917F916F91F8
:1038D0005F914F913F912F910F900FBE0F901F90CE
:1038E00018951F920F920FB60F9211242F933F93AA
:1038F0004F935F936F937F938F939F93AF93BF93F8
:10390000EF93FF930E94201CFF91EF91BF91AF9125
:103910009F918F917F916F915F914F913F912F91E7
:103920000F900FBE0F901F9018951F93CF93DF93AA
:10393000EC01162F61E0812F0E94652361E0812F49
:103940000E949E23812F90E0FC01EA5CF94FE491F4
:10395000E88BFC01E65BF94FE491F0E0EE0FFF1F0E
:10396000E859F94F859194919A8B898BDF91CF918A
:103970001F9108951F93CF93DF93EC01162F60E002
:10398000812F0E9465231C87612F70E0FB01EA5C98
:10399000F94FE491ED87FB01E65BF94FE491F0E02C
:1039A000EE0FFF1FE25AF94F859194919F878E8702
:1039B000DF91CF911F910895CF92DF92EF92FF9206
:1039C0000F931F93CF93DF93EC01162FC7011B8238
:1039D0001A8238EEC32E33E0D32EE12CF12CCC82A8
:1039E000DD82EE82FF82EEE4F1E0F983E8831C8A57
:1039F0001B8A1E8A1D8A188E1F8A1A8E198E9C8F0A
:103A00008B8F8D8D8C7F20FB82F900FB83F98D8F4E
:103A1000642FCE010E94951C612FCE01DF91CF91C2
:103A20001F910F91FF90EF90DF90CF900C94BA1CF4
:103A3000FC012485263108F03FC040916800283001
:103A400050F031E02E3008F430E021E001C0220FC8
:103A50003A95EAF701C024E0242B20936800FC018A
:103A60004485483038F04E3040F0463148F0E0E0D0
:103A7000F0E008C0EDE6F0E005C0EBE6F0E002C0E3
:103A8000ECE6F0E05081483030F421E001C0220F34
:103A90004A95EAF70FC0242F30E04E3018F4285032
:103AA000310902C02E50310931E001C0330F2A958F
:103AB000EAF7232F252B20830C94771BFC014485E8
:103AC000463150F5483028F04E3030F4EBE6F0E067
:103AD00005C0EDE6F0E002C0ECE6F0E050814830D1
:103AE00040F481E090E0042E01C0880F0A94EAF7C8
:103AF00010C0242F30E04E3018F42850310902C095
:103B00002E50310981E090E0022E01C0880F0A9406
:103B1000EAF780958523808308952EE431E0FC0147
:103B2000318320830C945E1D1F920F920FB60F926B
:103B300011240F900FBE0F901F9018951F920F9297
:103B40000FB60F9211248F939F93EF93FF93F894E6
:103B5000809199038823D9F0E0919903F0E0E6562B
:103B6000FC4F808181508083E0919903F0E0E6561C
:103B7000FC4F8081811135C08091800080588093F6
:103B80008000809199038150809399032AC080918D
:103B9000BC03882331F18091AE0380936F00809144
:103BA000B603809380008091B5038093810080915B
:103BB000B3039091B4039093850080938400809127
:103BC000B1039091B2039093890080938800809113
:103BD000AF039091B003909387008093860010927A
:103BE000BC03FF91EF919F918F910F900FBE0F90AB
:103BF0001F9018958091780490E020917904821BA1
:103C0000910908952091790480917804281750F43F
:103C1000E22FF0E0E658FB4F808190E02F5F209389
:103C2000790408958FEF9FEF0895E09179048091D2
:103C30007804E81730F4F0E0E658FB4F808190E01C
:103C400008958FEF9FEF08950895CF92DF92EF923E
:103C5000FF920F931F93CF93DF937C01CB018A01D7
:103C600020915504222389F0EB016B01C40ED51E6F
:103C7000CC15DD0569F06991D701ED91FC910190BA
:103C8000F081E02DC7010995F3CF642F0E94951EA6
:103C9000C801DF91CF911F910F91FF90EF90DF90BE
:103CA000CF900895CF93DF931F92CDB7DEB769838E
:103CB000209155042223D1F020915604203240F067
:103CC00021E030E0FC013383228380E090E015C0E6
:103CD00080915704E82FF0E0E85AFB4F99819083D8
:103CE0008F5F809357048093560405C061E0CE0136
:103CF00001960E94951E81E090E00F90DF91CF9198
:103D00000895FC011382128248EE53E060E070E0F7
:103D1000448355836683778380E691E09183808333
:103D2000089589E494E00C94811E613298F4209106
:103D30000705243089F46093BC04FC018EEB94E009
:103D4000DC012A2F281B261718F421912D93F9CF77
:103D500080E0089581E0089582E0089585ED8093E4
:103D6000BC008091BC0084FDFCCF10920705089533
:103D700085EC8093BC001092070508951F920F9266
:103D80000FB60F9211242F933F934F935F936F932E
:103D90007F938F939F93AF93BF93EF93FF93809104
:103DA000B900887F803609F49EC078F5883209F41E
:103DB0005DC090F4803109F456C038F4882309F4CA
:103DC000F5C0883009F44FC0F5C0883109F44EC001
:103DD000803209F45FC0EEC0803409F46AC058F440
:103DE000803309F457C0883309F0E4C080939A0403
:103DF0000E94B81EDFC0803509F44FC0883509F431
:103E00005DC0883409F0D6C0D3C0883909F4C4C075
:103E1000A8F4883709F467C038F4883609F463C019
:103E2000803709F460C0C6C0883809F4B5C080394D
:103E300009F45FC0803809F0BDC05BC0803B09F465
:103E400083C038F4803A09F466C0883A09F47CC02B
:103E5000B1C0803C09F4A4C0883C09F4A1C0883BEF
:103E600009F487C0A7C08091060510C09091DF04B7
:103E70008091DE04981770F5E091DF0481E08E0FE9
:103E80008093DF04F0E0E052FB4F80818093BB0021
:103E900085EC83C080939A048BC0E091DF0481E0BD
:103EA0008E0F8093DF048091BB00F0E0E052FB4F67
:103EB00080839091DF048091DE046BC0E091DF0489
:103EC00081E08E0F8093DF048091BB00F0E0E05230
:103ED000FB4F80838091050581116AC081E080934A
:103EE000040584EA5EC083E08093070510929B047A
:103EF000CFCF80919B04803208F04EC0E0919B04AC
:103F000081E08E0F80939B048091BB00F0E0E4562B
:103F1000FB4F8083BDCF0E94B81E80919B048032EE
:103F200030F4E0919B04F0E0E456FB4F1082609186
:103F30009B0470E0E0910005F09101058CE994E0AC
:103F4000099510929B0436C084E080930705109277
:103F5000BD041092BC04E0910205F091030509959F
:103F60008091BC04811105C081E08093BC04109253
:103F7000BE04E091BD0481E08E0F8093BD04F0E0AB
:103F8000E254FB4F80818093BB009091BD048091EF
:103F9000BC04981708F47CCF85E88093BC000AC065
:103FA00085EC8093BC001092070504C010929A041F
:103FB0000E94AE1EFF91EF91BF91AF919F918F91A3
:103FC0007F916F915F914F913F912F910F900FBE15
:103FD0000F901F901895CF93DF93EC0188859985FA
:103FE000009711F00E94CD2A8E8187FD05C060E008
:103FF000DF91CF910C946523DF91CF910895CF93FA
:10400000DF93EC018E8187FD07C061E00E9465238C
:1040100060E08E810E949E2381E08983DF91CF91B1
:104020000895EF92FF920F931F93CF93DF93EC01CC
:104030007B0188859985009711F00E94CD2A9D8586
:104040008A85981303C083E090E002C084E090E08A
:104050008E9D80018F9D100D9E9D100D11241D833E
:104060000C83C8010E94352A99878887009741F000
:10407000A80160E070E00E94D72BFB82EA8204C0B6
:104080001D821C821B821A82DF91CF911F910F919A
:10409000FF90EF900895FC0121E0958582859813AB
:1040A00020E0CB0136E0969587953A95E1F7482FC9
:1040B00043704587CB0154E0969587955A95E1F773
:1040C000382F33703287CB019695879596958795D3
:1040D00083708387862F8370848781E06F3F7105AB
:1040E00011F008F080E0808380859185892B51F064
:1040F00091E0431390E0921729F062817381CF0120
:104100000C9411200895CF92DF92EF92FF920F93BB
:104110001F93CF93DF93CDB7DEB729970FB6F894EF
:10412000DEBF0FBECDBF8C01DC0118968D919C9136
:104130001997892B09F49AC00E94A422F801C68419
:10414000D784E088F1886C197D098E099F09623354
:1041500071058105910580F3F894848195819A8396
:104160008983A085B1857D01EFEFEE1AFE0A8C915F
:104170008987D8019C9152960D90BC91A02DF80191
:104180008489992309F42EC09C91982B98879C913F
:10419000809589238F838F818E8388E08D835885D6
:1041A0006F8149853D812E8189819A81F7015C93D8
:1041B00047FD252F3A952C93262F39F0441F00C038
:1041C00000006C93000000C0F2CF38E041916C9386
:1041D0000000019761F7F801B38BA28B49873D83FB
:1041E0002E8338C09C91982B98879C918095892329
:1041F0008F838F818C8388E08B8358856F8149857D
:104200003B812C8189819A81F7015C9347FD252FA1
:1042100000C000C02C9300C000C000C000C000C09F
:104220006C930000262F3A9541F0441F000000C017
:1042300000C000C000C000C0E8CF38E0419100C01D
:104240006C9300C0019709F7F801B38BA28B4987E3
:104250003B832C839A83898378940E94A422D8017B
:104260001E966D937D938D939C93519729960FB6CF
:10427000F894DEBF0FBECDBFDF91CF911F910F919C
:10428000FF90EF90DF90CF9008951F93CF93DF932F
:10429000EC01162F8981882331F08E8187FD03C0C0
:1042A00060E00E9465231E838981882341F061E0DC
:1042B000812F0E94652360E0812F0E949E23812F21
:1042C00090E0FC01E65BF94FE491F0E0EE0FFF1F98
:1042D000E859F94F259134913B8B2A8BFC01EA5C1C
:1042E000F94F84918C8BDF91CF911F910895EF92BC
:1042F000FF920F931F93CF93DF931F92CDB7DEB73B
:104300007C018B01FC0111821782118610861686B2
:104310001786108A118AB90149830E944B20B8017F
:10432000C7010E9411204981642FC7010F90DF91BE
:10433000CF911F910F91FF90EF900C944521CF9258
:10434000DF92EF92FF920F931F93CF93DF93FC01C5
:10435000828193816817790708F04DC0CA01AA27A6
:10436000BB27182FC32ED42EE52EFF24DC2DC22F01
:104370000781002361F0809FC0011124192FC09E86
:1043800060011124DD2D209FC0011124C92FF58467
:104390008285A085B185F81208C0CB01880F991FCE
:1043A000860F971F8A0F9B1F17C0CB01880F991F7D
:1043B000880F991F8A0F9B1F452F55276627772740
:1043C000DC01AF0DB11D002329F0409F90011124A5
:1043D000232F01C0242F2C932285DC01A20FB11DB5
:1043E0001C932385DC01A20FB11DDC932485FC0105
:1043F000E20FF11DC083DF91CF911F910F91FF90CC
:10440000EF90DF90CF900895962F50E060E070E03D
:10441000592B682BCB01BA010895FF920F931F937C
:10442000CF93DF93EC01FF24F394F60E2F81F21665
:1044300079F1088519852150B9F06F3F59F430E0C2
:1044400040E050E06FEF7FEF80E090E00E94EE29C7
:10445000B9010CC08F2D90E0982F88270197622F0B
:1044600070E00E94A42902C060E070E0F8018C8135
:104470009D81AF01401B510B4817590740F4408103
:10448000469FC001479F900D11249193F0CFFF826A
:10449000DF91CF911F910F91FF9008951F920F927E
:1044A0000FB60F9211242F933F938F939F93AF9347
:1044B000BF938091090590910A05A0910B05B091D9
:1044C0000C053091080523E0230F2D3720F40196C9
:1044D000A11DB11D05C026E8230F0296A11DB11D27
:1044E000209308058093090590930A05A0930B0576
:1044F000B0930C0580910D0590910E05A0910F05CC
:10450000B09110050196A11DB11D80930D059093EA
:104510000E05A0930F05B0931005BF91AF919F9129
:104520008F913F912F910F900FBE0F901F90189574
:104530002FB7F8946091090570910A0580910B05D9
:1045400090910C052FBF08953FB7F89480910D0509
:1045500090910E05A0910F05B091100526B5A89B6E
:1045600005C02F3F19F00196A11DB11D3FBF662761
:10457000782F892F9A2F620F711D811D911D42E0A6
:10458000660F771F881F991F4A95D1F708958F925C
:104590009F92AF92BF92CF92DF92EF92FF926B0108
:1045A0007C010E94A4224B015C01C114D104E104EE
:1045B000F104F1F00E94DB270E94A4226819790916
:1045C0008A099B09683E73408105910570F321E0DB
:1045D000C21AD108E108F10888EE880E83E0981E1F
:1045E000A11CB11CC114D104E104F10429F7DDCFF1
:1045F000FF90EF90DF90CF90BF90AF909F908F9003
:104600000895789484B5826084BD84B5816084BD4A
:1046100085B5826085BD85B5816085BDEEE6F0E03B
:10462000808181608083E1E8F0E010828081826097
:104630008083808181608083E0E8F0E08081816018
:104640008083E1EBF0E0808184608083E0EBF0E048
:10465000808181608083EAE7F0E0808184608083EC
:104660008081826080838081816080838081806896
:1046700080831092C1000895833081F028F4813046
:1046800099F08230A1F008958730A9F08830B9F010
:104690008430D1F4809180008F7D03C080918000B0
:1046A0008F7780938000089584B58F7702C084B59A
:1046B0008F7D84BD08958091B0008F7703C0809175
:1046C000B0008F7D8093B0000895CF93DF9390E08A
:1046D000FC01EA5CF94F2491FC01E65BF94F8491FF
:1046E000882349F190E0880F991FFC01EE58F94F9B
:1046F000A591B4918859994FFC01C591D4919FB768
:10470000611108C0F8948C91209582238C93888144
:1047100082230AC0623051F4F8948C91322F309584
:1047200083238C938881822B888304C0F8948C9196
:10473000822B8C939FBFDF91CF9108950F931F938E
:10474000CF93DF931F92CDB7DEB7282F30E0F9016A
:10475000EE5DF94F8491F901EA5CF94F1491F9018A
:10476000E65BF94F04910023C9F0882321F06983A7
:104770000E943C236981E02FF0E0EE0FFF1FE85913
:10478000F94FA591B4919FB7F8948C91611103C032
:104790001095812301C0812B8C939FBF0F90DF91D7
:1047A000CF911F910F910895CF93DF93282F30E081
:1047B000F901EE5DF94F8491F901EA5CF94FD4916A
:1047C000F901E65BF94FC491CC2391F081110E946D
:1047D0003C23EC2FF0E0EE0FFF1FE25AF94FA591BA
:1047E000B4912C912D2381E090E021F480E002C06F
:1047F00080E090E0DF91CF910895FC01818D228DC2
:1048000090E0805C9F4F821B91098F7399270895D8
:10481000FC01918D828D981731F0828DE80FF11D8A
:10482000858D90E008958FEF9FEF0895FC01918DA5
:10483000828D981761F0828DDF01A80FB11D5D9602
:104840008C91928D9F5F9F73928F90E008958FEF70
:104850009FEF08958AE995E2892B49F080E090E086
:10486000892B29F00E949A2581110C94000008954B
:10487000FC01848DDF01A80FB11DA35ABF4F2C91FD
:10488000848D90E001968F739927848FA689B789CC
:104890002C93A089B1898C9180648C93938D848DA5
:1048A000981306C00288F389E02D80818F7D808374
:1048B0000895CF93DF93EC01888D8823C9F0EA89AE
:1048C000FB89808185FD05C0A889B9898C9186FD09
:1048D0000FC00FB607FCF5CF808185FFF2CFA88906
:1048E000B9898C9185FFEDCFCE010E943824E7CFA6
:1048F000DF91CF910895CF92DF92FF920F931F9394
:10490000CF93DF931F92CDB7DEB76C0181E0D60164
:1049100058968C9358975B969C915B975C968C917C
:104920005C97981307C05096ED91FC915197808148
:1049300085FD2EC0F601038D10E00F5F1F4F0F7332
:104940001127F02EF601848DF81211C00FB607FC66
:10495000F9CFD6015096ED91FC915197808185FF5A
:10496000F1CFC60169830E9438246981EBCF838D22
:10497000E80FF11DE35AFF4F6083D6015B960C935D
:104980005B975296ED91FC915397808180620CC0A9
:10499000D6015696ED91FC91579760835096ED9114
:1049A000FC91519780818064808381E090E00F903A
:1049B000DF91CF911F910F91FF90DF90CF900895DD
:1049C000BF92CF92DF92EF92FF92CF93DF93EC01F1
:1049D0006A017B01B22EE889F98982E08083411562
:1049E00081EE580761057105A1F060E079E08DE383
:1049F00090E0A70196010E94CC292150310941097C
:104A000051095695479537952795211580E1380727
:104A100098F0E889F989108260E874E88EE190E006
:104A2000A70196010E94CC29215031094109510961
:104A30005695479537952795EC85FD853083EE850E
:104A4000FF852083188EEC89FD89B082EA89FB8975
:104A5000808180618083EA89FB898081886080838E
:104A6000EA89FB89808180688083EA89FB8980816B
:104A70008F7D8083DF91CF91FF90EF90DF90CF907B
:104A8000BF9008951F920F920FB60F9211242F938B
:104A90008F939F93EF93FF93E0912105F09122056F
:104AA0008081E0912705F091280582FD12C0908158
:104AB00080912A058F5F8F7320912B05821751F00B
:104AC000E0912A05F0E0EF5EFA4F958F80932A057A
:104AD00001C08081FF91EF919F918F912F910F9055
:104AE0000FBE0F901F9018951F920F920FB60F9246
:104AF00011242F933F934F935F936F937F938F93E3
:104B00009F93AF93BF93EF93FF9381E195E00E9452
:104B10003824FF91EF91BF91AF919F918F917F9139
:104B20006F915F914F913F912F910F900FBE0F901A
:104B30001F90189581E195E00E94FD2321E0892BCB
:104B400009F420E0822F08951092140510921305A5
:104B500088EE93E0A0E0B0E08093150590931605F1
:104B6000A0931705B093180580E791E09093120584
:104B70008093110585EC90E090931E0580931D05B0
:104B800084EC90E09093200580931F0580EC90E0EA
:104B9000909322058093210581EC90E09093240569
:104BA0008093230582EC90E0909326058093250561
:104BB00086EC90E0909328058093270510922A05B3
:104BC00010922B0510922C0510922D050895CF926E
:104BD000DF92EF92FF920F931F93CF93DF937C01AD
:104BE0006A01EB0100E010E00C151D0571F0699100
:104BF000D701ED91FC910190F081E02DC70109955D
:104C0000892B19F00F5F1F4FEFCFC801DF91CF91B4
:104C10001F910F91FF90EF90DF90CF900895611555
:104C2000710581F0DB010D900020E9F7AD014150E5
:104C30005109461B570BDC01ED91FC910280F38179
:104C4000E02D099480E090E00895EF92FF920F9399
:104C50001F93CF93DF938C017B01C0E0D0E0F7017D
:104C6000EC0FFD1F6491662359F0F801A081B1811A
:104C7000ED91FC91C8010995892B11F02196EFCF98
:104C8000CE01DF91CF911F910F91FF90EF9008958A
:104C90000C940F26DC01ED91FC910190F081E02D48
:104CA00009946CE771E00C940F260F931F93CF9338
:104CB000DF93EC010E9425268C01CE010E94512633
:104CC000800F911FDF91CF911F910F9108950F9346
:104CD0001F93CF93DF93EC010E940F268C01CE012E
:104CE0000E945126800F911FDF91CF911F910F914C
:104CF00008958F929F92AF92BF92DF92EF92FF92B0
:104D00000F931F93CF93DF93CDB7DEB7A1970FB665
:104D1000F894DEBF0FBECDBF7C01F42FD52ECB01A2
:104D200019A2223008F42AE08E010F5D1F4F822E57
:104D3000912CA12CB12C6F2F7D2DA50194010E94E7
:104D4000CC29F22FD32ECA01015011096A3014F474
:104D5000E0E301C0E7E3E60FD801EC93232B242B1B
:104D6000252B49F7B801C7010E940F26A1960FB65F
:104D7000F894DEBF0FBECDBFDF91CF911F910F9191
:104D8000FF90EF90DF90BF90AF909F908F9008952D
:104D9000CF92DF92EF92FF920F931F93CF93DF9307
:104DA000EC016A017B012115310579F4E881F98173
:104DB0000190F081E02D642FDF91CF911F910F9131
:104DC000FF90EF90DF90CF9009942A303105E9F4FD
:104DD00077FF1AC06DE20E944A268C0144275527AE
:104DE000BA014C195D096E097F092AE0CE010E94C3
:104DF0007926800F911FDF91CF911F910F91FF9026
:104E0000EF90DF90CF9008952AE0B701A601CE0180
:104E1000DF91CF911F910F91FF90EF90DF90CF9096
:104E20000C9479269A01AB01662757FD6095762F81
:104E30000C94C8260F931F93CF93DF93EC019A0134
:104E4000AB01662757FD6095762F0E94C8268C011E
:104E5000CE010E945126800F911FDF91CF911F91AB
:104E60000F9108952115310541F4DC01ED91FC917C
:104E70000190F081E02D642F09940C9479269A0119
:104E8000462F50E060E070E00C9432270F931F93A0
:104E9000CF93DF93EC019A01462F50E060E070E081
:104EA0000E9432278C01CE010E945126800F911F53
:104EB000DF91CF911F910F9108950F931F93CF937F
:104EC000DF93EC019A01AB0160E070E00E943227B1
:104ED0008C01CE010E945126800F911FDF91CF914E
:104EE0001F910F9108950F931F93CF93DF93EC01C0
:104EF0000E9432278C01CE010E945126800F911F03
:104F0000DF91CF911F910F910895FC014483558348
:104F1000668377830895CF93DF9300D000D0CDB719
:104F2000DEB79B01AC01611571058105910569F042
:104F300069833A834B835C830E94AB2B29813A813E
:104F40004B815C810E94EE2903C060E070E0CB01E0
:104F50000F900F900F900F90DF91CF910895CF9207
:104F6000DF92EF92FF926B017C0162177307840757
:104F7000950764F4CA01B9016C197D098E099F096E
:104F80000E948B276C0D7D1D8E1D9F1DFF90EF9045
:104F9000DF90CF90089508950E9401230E94CB27AF
:104FA0000E949912CAE2D4E20E9496172097E1F378
:104FB0000E942A24F9CF08955058BB27AA270ED063
:104FC00008C1F9D030F0FED020F031F49F3F11F449
:104FD0001EF4EEC00EF4E095E7FBE4C0E92F0AD121
:104FE00080F3BA17620773078407950718F071F406
:104FF0009EF522C10EF4E0950B2EBA2FA02D0B01C9
:10500000B90190010C01CA01A0011124FF27591B0D
:1050100099F0593F50F4503E68F11A16F040A22F13
:10502000232F342F4427585FF3CF46953795279584
:10503000A795F0405395C9F77EF41F16BA0B620B83
:10504000730B840BBAF09150A1F0FF0FBB1F661FCA
:10505000771F881FC2F70EC0BA0F621F731F841F0D
:1050600048F4879577956795B795F7959E3F08F033
:10507000B3CF9395880F08F09927EE0F97958795F2
:1050800008956CD008F481E00895BCD088F09F5753
:1050900090F0B92F9927B751A0F0D1F0660F771F84
:1050A000881F991F1AF0BA95C9F712C0B13081F064
:1050B000C3D0B1E00895C0C0672F782F8827B85FAC
:1050C00039F0B93FCCF3869577956795B395D9F7C5
:1050D0003EF490958095709561957F4F8F4F9F4FCF
:1050E0000895E89409C097FB3EF4909580957095DB
:1050F00061957F4F8F4F9F4F9923A9F0F92F96E924
:10510000BB279395F695879577956795B795F11198
:10511000F8CFFAF4BB0F11F460FF1BC06F5F7F4F35
:105120008F4F9F4F16C0882311F096E911C0772347
:1051300021F09EE8872F762F05C0662371F096E850
:10514000862F70E060E02AF09A95660F771F881F1F
:10515000DAF7880F9695879597F90895990F0008C3
:10516000550FAA0BE0E8FEEF16161706E807F90739
:10517000C0F012161306E407F50798F0621B730BD4
:10518000840B950B39F40A2661F0232B242B252B55
:1051900021F408950A2609F4A140A6958FEF811DF8
:1051A000811D089597F99F6780E870E060E0089599
:1051B0009FEF80EC089500240A941616170618062F
:1051C0000906089500240A9412161306140605060B
:1051D0000895092E0394000C11F4882352F0BB0F9C
:1051E00040F4BF2B11F460FF04C06F5F7F4F8F4FFF
:1051F0009F4F089557FD9058440F551F59F05F3F3A
:1052000071F04795880F97FB991F61F09F3F79F0E8
:1052100087950895121613061406551FF2CF46956A
:10522000F1DF08C0161617061806991FF1CF8695EC
:105230007105610508940895E894BB2766277727D0
:10524000CB0197F908958ADF08F48FEF08950BD00A
:10525000C0CFB1DF28F0B6DF18F0952309F0A2CF58
:10526000A7CF1124EACFC6DFA0F3959FD1F3950F06
:1052700050E0551F629FF001729FBB27F00DB11DDA
:10528000639FAA27F00DB11DAA1F649F6627B00D6A
:10529000A11D661F829F2227B00DA11D621F739F53
:1052A000B00DA11D621F839FA00D611D221F749F61
:1052B0003327A00D611D231F849F600D211D822FA8
:1052C000762F6A2F11249F5750408AF0E1F08823EF
:1052D0004AF0EE0FFF1FBB1F661F771F881F9150FC
:1052E0005040A9F79E3F510570F05CCFA6CF5F3FBD
:1052F000ECF3983EDCF3869577956795B795F7952F
:10530000E7959F5FC1F7FE2B880F911D96958795B6
:1053100097F90895991B79E004C0991F961708F032
:10532000961B881F7A95C9F78095089587FB082EEC
:10533000062687FD819567FD61950E948A290EF4F6
:10534000919507FC81950895AA1BBB1B51E107C0ED
:10535000AA1FBB1FA617B70710F0A61BB70B881F05
:10536000991F5A95A9F780959095BC01CD01089594
:1053700097FB072E16F4009407D077FD09D00E9402
:10538000A42907FC05D03EF4909581959F4F089580
:10539000709561957F4F0895A1E21A2EAA1BBB1B41
:1053A000FD010DC0AA1FBB1FEE1FFF1FA217B307F1
:1053B000E407F50720F0A21BB30BE40BF50B661F07
:1053C000771F881F991F1A9469F7609570958095CB
:1053D00090959B01AC01BD01CF010895052E97FB6F
:1053E0001EF400940E94052A57FD07D00E94CC2984
:1053F00007FC03D04EF40C94052A50954095309547
:1054000021953F4F4F4F5F4F089590958095709530
:1054100061957F4F8F4F9F4F0895EE0FFF1F0590AF
:10542000F491E02D09940E94262AA59F900DB49F27
:10543000900DA49F800D911D11240895B7FF0C9429
:10544000132A0E94132A821B930B0895A29FB00176
:10545000B39FC001A39F700D811D1124911DB29FA8
:10546000700D811D1124911D0895CF93DF9382301B
:10547000910510F482E090E0E091B005F091B10563
:1054800020E030E0A0E0B0E0309739F14081518178
:1054900048175907B8F04817590771F4828193816A
:1054A000109729F013969C938E9312972CC090938B
:1054B000B1058093B00527C02115310531F04217A1
:1054C000530718F0A901DB0101C0EF019A01BD01EA
:1054D000DF010280F381E02DD7CF21153105F9F0EE
:1054E000281B390B2430310580F48A819B8161159A
:1054F000710521F0FB019383828304C09093B10571
:105500008093B005FE01329644C0FE01E20FF31F06
:105510008193919322503109398328833AC0209195
:10552000AE053091AF05232B41F42091020130915B
:1055300003013093AF052093AE0520910001309117
:1055400001012115310541F42DB73EB74091040109
:1055500050910501241B350BE091AE05F091AF058C
:10556000E217F307A0F42E1B3F0B2817390778F03A
:10557000AC014E5F5F4F2417350748F04E0F5F1F99
:105580005093AF054093AE058193919302C0E0E044
:10559000F0E0CF01DF91CF910895CF93DF93009793
:1055A00009F487C0FC01329713821282C091B005C2
:1055B000D091B105209781F420813181280F391FC6
:1055C0008091AE059091AF058217930779F5F0931E
:1055D000AF05E093AE056DC0DE0120E030E0AE1710
:1055E000BF0750F412964D915C9113979D014115A0
:1055F000510509F1DA01F3CFB383A28340815181D0
:10560000840F951F8A179B0771F48D919C911197B8
:10561000840F951F02969183808312968D919C91A1
:105620001397938382832115310529F4F093B105F3
:10563000E093B0053EC0D9011396FC93EE93129708
:105640004D915D91A40FB51FEA17FB0779F4808196
:105650009181840F951F0296D90111969C938E9388
:105660008281938113969C938E931297E0E0F0E0F1
:105670008A819B81009719F0FE01EC01F9CFCE01E0
:10568000029628813981820F931F2091AE053091B7
:10569000AF052817390769F4309729F41092B1053E
:1056A0001092B00502C013821282D093AF05C0934E
:1056B000AE05DF91CF9108958F929F92AF92BF92E6
:1056C000CF92DF92EF92FF92CF93DF93EC0168814C
:1056D00079818A819B81611571058105910521F48C
:1056E00064E279ED8BE597E02DE133EF41E050E0A6
:1056F0000E94EE2949015A019B01AC01A7EAB1E4DD
:105700000E94132A6B017C01ACEEB4EFA501940159
:105710000E94212AC60ED71EE81EF91EF7FE06C0FB
:1057200081E0C81AD108E10880E8F80AC882D98265
:10573000EA82FB82C701B6019F77DF91CF91FF908C
:10574000EF90DF90CF90BF90AF909F908F90089593
:105750000E945C2B089586E091E00E945C2B0895E6
:1057600060930601709307018093080190930901EB
:105770000895FC0188279927E89421912032E9F3C4
:10578000293010F02E30C8F32B3241F02D3239F48D
:10579000689404C00E94E72B820F911D2191205331
:1057A0002A30C0F31EF4909581959F4F0895DC0137
:1057B00001C06D9341505040E0F70895FB01DC01BA
:1057C0008D91019080190110D9F3990B08957AE019
:1057D000979F902D879F802D910D11240895F99901
:1057E000FECF92BD81BDF89A992780B50895262FE6
:1057F000F999FECF1FBA92BD81BD20BD0FB6F894B6
:10580000FA9AF99A0FBE0196089516E0C2E8D6E01A
:1058100004C0FE010E940F2A2296C438D107C9F79E
:04582000F894FFCF2A
:105824000000B20580000100000001060501050525
:10583400FF0100010101011970006D003F007700B4
:105844006200636F757274696E67004D6174696E8E
:1058540067206D6F64652066726F6D20706172746D
:105864006E65720068756D70200000000000151BE5
:10587400E725501B601A811A681B9B1A0000000060
:10588400521E251EFA1D021E151E241E00000000B5
:105894007B24E725FD231624082459240D0A006ED1
:0E58A400616E00696E66006F7666002E000071
:107E0000112484B714BE81FFF0D085E080938100F7
:107E100082E08093C00088E18093C10086E0809377
:107E2000C20080E18093C4008EE0C9D0259A86E02C
:107E300020E33CEF91E0309385002093840096BBD3
:107E4000B09BFECF1D9AA8958150A9F7CC24DD24C4
:107E500088248394B5E0AB2EA1E19A2EF3E0BF2EE7
:107E6000A2D0813461F49FD0082FAFD0023811F036
:107E7000013811F484E001C083E08DD089C08234E0
:107E800011F484E103C0853419F485E0A6D080C0E4
:107E9000853579F488D0E82EFF2485D0082F10E0AE
:107EA000102F00270E291F29000F111F8ED06801E7
:107EB0006FC0863521F484E090D080E0DECF843638
:107EC00009F040C070D06FD0082F6DD080E0C81688
:107ED00080E7D80618F4F601B7BEE895C0E0D1E017
:107EE00062D089930C17E1F7F0E0CF16F0E7DF06D8
:107EF00018F0F601B7BEE89568D007B600FCFDCFD4
:107F0000A601A0E0B1E02C9130E011968C91119780
:107F100090E0982F8827822B932B1296FA010C0160
:107F200087BEE89511244E5F5F4FF1E0A038BF0790
:107F300051F7F601A7BEE89507B600FCFDCF97BE46
:107F4000E89526C08437B1F42ED02DD0F82E2BD052
:107F50003CD0F601EF2C8F010F5F1F4F84911BD097
:107F6000EA94F801C1F70894C11CD11CFA94CF0C13
:107F7000D11C0EC0853739F428D08EE10CD085E9AC
:107F80000AD08FE07ACF813511F488E018D01DD067
:107F900080E101D065CF982F8091C00085FFFCCF94
:107FA0009093C60008958091C00087FFFCCF809118
:107FB000C00084FD01C0A8958091C6000895E0E648
:107FC000F0E098E1908380830895EDDF803219F02E
:107FD00088E0F5DFFFCF84E1DECF1F93182FE3DFCA
:107FE0001150E9F7F2DF1F91089580E0E8DFEE27F6
:047FF000FF270994CA
:027FFE00040479
:0400000300007E007B
:00000001FF
